:020000040800F2
:10C00000280D02208DC20008F561010815460108BF
:10C01000E15E0108EDCF0008FFC20108000000004A
:10C0200000000000000000000000000051AA01080C
:10C030001FD200080000000009C8000895AE0108E2
:10C04000C7C20008C7C20008C7C200080996010895
:10C05000C7C20008C7C20008C7C20008C7C200089C
:10C06000C7C20008C7C20008C7C20008C7C200088C
:10C07000C7C20008C7C20008C7C20008C7C200087C
:10C08000C7C20008C7C20008C7C20008C7C200086C
:10C09000F1CF0008C7C20008C7C20008C7C2000825
:10C0A000C7C20008C7C20008C7C20008C7C200084C
:10C0B00019B1010829B10108C7C20008C7C20008A8
:10C0C000C7C20008C7C20008C7C20008C7C200082C
:10C0D000C7C200080DC101085DC1010899C101086E
:10C0E000C7C20008ED940108C7C20008C7C2000813
:10C0F000C5B10108ADB10108C7C20008C7C2000838
:10C10000C7C20008E5970108C7C20008C7C20008F7
:10C11000C7C20008C7C2000839B101089DB10108B3
:10C12000A5D00008B5D00008C5D00008D5D00008BB
:10C13000E5D00008C7C20008C7C20008C7C200088F
:10C14000C7C20008C7C20008C7C20008C7C20008AB
:10C15000C7C20008F5D0000805D10008F1C10108E8
:10C16000C7C20008C7C20008C7C20008C7C200088B
:10C17000C7C20008C7C20008C7C20008000000000C
:10C18000C7C20008C7C20008C7C20008C7C200086B
:10C19000C7C20008C7C20008C7C20008C7C200085B
:10C1A000C7C20008C7C20008C7C2000800F002F8F2
:10C1B00000F05CF80AA090E8000C82448344AAF1E5
:10C1C0000107DA4501D100F051F8AFF2090EBAE8E3
:10C1D0000F0013F0010F18BFFB1A43F001031847BB
:10C1E000541B0100741B01000A444FF0000C10F8AE
:10C1F000013B13F0070408BF10F8014B1D1108BFE5
:10C2000010F8015B641E05D010F8016B641E01F884
:10C21000016BF9D113F0080F1EBF10F8014BAD1CD4
:10C220000C1B09D16D1E58BF01F801CBFAD505E0F2
:10C2300014F8016B01F8016B6D1EF9D59142D6D34C
:10C24000704700000023002400250026103A28BF74
:10C2500078C1FBD8520728BF30C148BF0B60704778
:10C260001FB511F005FB1FBD10B510BD00F009FA98
:10C270001146FFF7F5FF10F0E3FF00F027FA03B4D3
:10C28000FFF7F2FF03BC00F0E9F900001148804716
:10C29000DFF84400016841F470010160BFF34F8F83
:10C2A000DFF83800016821F040410160BFF36F8F73
:10C2B0000B480047FEE7FEE7FEE7FEE7FEE7FEE786
:10C2C000FEE7FEE7FEE7FEE706480749074A084B98
:10C2D00070470000E5AF010888ED00E034EF00E0B2
:10C2E000ADC1000828F90120280D022028010220F4
:10C2F0002801022072B6704762B67047EFF31080D3
:10C3000072B6704780F31088704730BF704720BF07
:10C310007047B0FA80F0704790FAA0F0B0FA80F061
:10C32000704790FAA0F0704753EA020C00F0698061
:10C330002DE9F04B4FF00006002B1FBFB3FA83F539
:10C3400003FA05F424FA05F65E4012BF1643B2FA6A
:10C3500082F502FA05F4C5F120051EBF22FA05FC9C
:10C3600044EA0C04203556EA044C4FEA144418BF42
:10C37000641C4FF000084FF00009904271EB030C71
:10C3800039D3002919BFB1FA81F701FA07F6B0FADB
:10C3900080F700FA07F6C7F120071EBF20FA07FC56
:10C3A00046EA0C062037B6FBF4FCA7EB0507103F66
:10C3B00007F01F0BCBF120060CFA0BFB2CFA06F64C
:10C3C00044BFB3460026202FA4BF5E464FF0000BAB
:10C3D0005BEA060C08BF4FF0010B19EB0B09ABFB36
:10C3E000027C48EB0608C01B06FB02CC0BFB03CC0F
:10C3F00071EB0C01C1E70B46024641464846BDE8D9
:10C40000F08B13B54FF000004FF00001AFF3008048
:10C41000BDE81C40704700000EB5054614460E46A8
:10C4200013A000F009F9284600F006F916A000F064
:10C4300003F9304600F000F915A000F0FDF80021E6
:10C440008DF80B100A210DF10A008DF80A1008E092
:10C4500094FBF1F201FB124294FBF1F4303200F84C
:10C46000012D002CF4DC00F0E7F800F0DAF8000011
:10C470002A2A2A20617373657274696F6E2066615F
:10C48000696C65643A2000002C2066696C652000A8
:10C490002C206C696E65200040EA0103024630B52D
:10C4A0009B0710D14FF0013400E008C208C91D1BE2
:10C4B0009D4315EAC41FF8D013F0FF0102F8011BD9
:10C4C0000DD01B0AF8E711F8013B002B02F8013BE5
:10C4D00005D011F8013B002B02F8013BF3D130BD30
:10C4E000032A40F2308010F0030C00F0158011F8A0
:10C4F000013BBCF1020F624498BF11F801CB00F878
:10C50000013B38BF11F8013BA2F1040298BF00F8CB
:10C5100001CB38BF00F8013B11F0030300F0258088
:10C52000083AC0F0088051F8043B083A51F804CBAF
:10C53000A0E80810F5E7121D5CBF51F8043B40F875
:10C54000043BAFF30080D20724BF11F8013B11F880
:10C5500001CB48BF11F8012B24BF00F8013B00F8C4
:10C5600001CB48BF00F8012B704710B5203AC0F04E
:10C570000B80B1E81850203AA0E81850B1E81850E4
:10C58000A0E81850BFF4F5AF5FEA027C24BFB1E821
:10C590001850A0E8185044BF18C918C0BDE8104092
:10C5A0005FEA827C24BF51F8043B40F8043B08BF9B
:10C5B0007047D20728BF31F8023B48BF11F8012B62
:10C5C00028BF20F8023B48BF00F8012B70474FF00E
:10C5D000000200B5134694469646203922BFA0E8D3
:10C5E0000C50A0E80C50B1F12001BFF4F7AF0907DF
:10C5F00028BFA0E80C5048BF0CC05DF804EB8900D0
:10C6000028BF40F8042B08BF704748BF20F8022B12
:10C6100011F0804F18BF00F8012B7047704770472A
:10C62000704710B5002000F01FF8FFF71DFEBDE8B1
:10C630001040012000F012B810B5044602E0641C5E
:10C6400000F004F820780028F9D110BD08B569463B
:10C650008DF800000320ABBE08BD00000149182082
:10C66000ABBEFEE72600020010B500F03DF8BDE8C5
:10C67000104000F034B8000000487047C8F80120AE
:10C6800070477546FFF7F8FFAE460500694653460A
:10C6900020F00700854618B020B5FFF715FEBDE86D
:10C6A00020404FF000064FF000074FF000084FF019
:10C6B000000B21F00701AC46ACE8C009ACE8C009AA
:10C6C000ACE8C009ACE8C0098D46704710B5044617
:10C6D000AFF300802046BDE81040FFF7D0BD002832
:10C6E00001D0FFF7BBBF704710B5002102A000F0DA
:10C6F00013F8012010BD0000534947414252543AFB
:10C700002041626E6F726D616C207465726D696E2E
:10C710006174696F6E00000070B505460C460A2012
:10C7200000E06D1CFFF792FF35B128780028F8D1A2
:10C7300002E0641CFFF78AFF14B120780028F8D1CA
:10C74000BDE870400A20FFF781BF0000EFF30981C8
:10C7500041B1F1EE101A40F8041D20ED200A3E49C7
:10C760000A6810607047B0EC200A02C8E1EE101AA7
:10C770003A490A681060704772B64EF62250CEF2FF
:10C78000000040F2FF01C0F2000101704FF0000014
:10C7900080F309880AF0AEFF40F21C30C2F20000BC
:10C7A000016881F3088840F2A220C2F2000040F242
:10C7B000A321C2F200010A78027040F21435C2F2DD
:10C7C000000540F21831C2F200010A682A601068C0
:10C7D00080F30988EFF3148040F0020080F314889E
:10C7E000BFF36F8FBDE8F00F0FBCBDE8005006BC73
:10C7F00062B608471A484FF08051016070471848E8
:10C800004FF080510160704772B6EFF3098020E964
:10C81000F00F40F21435C2F200052E683060744605
:10C820000AF068FF40F2A220C2F2000040F2A32109
:10C83000C2F200010A78027040F21831C2F200011F
:10C840000A682A6044F0F40E1068B0E8F00F80F334
:10C85000098862B670470000140300201803002006
:10C8600004ED00E070B504465B4D686820F440308C
:10C87000686068686168084368602068406820F400
:10C8800080702168486020684168206941EA002082
:10C89000216848602068406820F040702168486046
:10C8A00020684068A1680843216848602068806863
:10C8B00020F400602168886020688068E16808438F
:10C8C000216888604549A06A884218D0206880683D
:10C8D00020F070602168886020688068A16A084341
:10C8E000216888602068806820F040502168886056
:10C8F00020688068E16A0843216888600BE020684E
:10C90000806820F07060216888602068806820F06E
:10C910004050216888602068806820F0020021680B
:10C92000886020688168207E41EA40002168886034
:10C930002020005DF8B1606A18B1606A082800D84C
:10C9400004E040F2777126A00FF08FFE2068406867
:10C9500040F40060216848602068406820F460402E
:10C960002168486020684168606A401E41EA4030A2
:10C970002168486005E02068406820F40060216874
:10C9800048602068C06A20F470002168C86220688E
:10C99000C16AA08B401E41EA00502168C86220682D
:10C9A000806820F40070216888602068816894F8AD
:10C9B000300041EA4020216888602068806820F4C7
:10C9C00080602168886020688168606941EA802011
:10C9D0002168886070BD0000002301400100000F45
:10C9E0002E2E5C4C6962726172795C53544D333205
:10C9F000463478785F48414C5F4472697665725C72
:10CA00005372635C73746D3332663478785F686137
:10CA10006C5F6164632E63000EB500BF00BF00F061
:10CA2000EFFA02A80AF096F900200346024611A187
:10CA300000900DF0EBFD0020034602460FA1009090
:10CA40000DF090FD00F054F80EF0FEFA0EF0C6F96D
:10CA500009F062FB0DE002A800210B460122CDE99E
:10CA6000001008460AF0E2FE06A2002108460DF07A
:10CA7000D5FEF0E75254545550000000525454442F
:10CA80004F574E002D2D3E2043757272656E7420F7
:10CA900072756E20737465702069732E2E2E0D0AC8
:10CAA0000000000070B502F0E1F94FF6FF700D498B
:10CAB000086001460B488038C0F88410C0F8881020
:10CAC00000204FF0E021086102F034FF0120064908
:10CAD0000860C00604684568204680F3088800BFE7
:10CAE000A84770BD80E100E0542800407047000076
:10CAF00010B5002400BF00BFFFF700FC044600BFD4
:10CB000000BF0E480E4908600E480F4908600F48E4
:10CB10000F4908600F481049086010481049086024
:10CB200010481149086011481149086000BF00BF52
:10CB30002046FFF7E7FB00BF00BF10BD77CB000822
:10CB40006802002079CB00086C0200207BCB000833
:10CB500070020020EDCA00087402002075CB0008A6
:10CB6000780200207DCB00087C02002081CB0008E9
:10CB70008002002070477047704770477047000080
:10CB800008B509480088401C074908800846008805
:10CB9000B0F57A7F06D3002008806A46002103485A
:10CBA00009F0FCFF08BD000020030020600E0020FB
:10CBB00010B503F003FB0446204610BD70477047D4
:10CBC000704710B52DED028BB0EE408AB5EEC08AED
:10CBD000F1EE10FA02DD00F075F801E000F066F801
:10CBE000BDEC028B10BD10B52DED028BB0EE408A6E
:10CBF000B5EEC08AF1EE10FA02DD00F07DF801E03A
:10CC000000F06CF8BDEC028B10BD10B52DED028B61
:10CC1000B0EE408AB5EEC08AF1EE10FA02DD00F007
:10CC2000CBF801E000F0BCF8BDEC028B10BD10B5F4
:10CC30002DED028BB0EE408AB5EEC08AF1EE10FA0F
:10CC400002DD00F0D3F801E000F0C2F8BDEC028B89
:10CC500010BD10B52DED028BB0EE408AB5EEC08A46
:10CC6000F1EE10FA02DD00F0F5F801E000F0E4F872
:10CC7000B2EE040A28EE000ABCEEC00A10EE100A5A
:10CC800084B220460EF01EF8BDEC028B10BD10B52C
:10CC90000446207820B9012020700EF02DFB03E01F
:10CCA000002020700EF006FB10BD000010B5002221
:10CCB0001021034802F05EFC01200CF0ADFC10BD19
:10CCC0000010024010B501221021034802F052FC6E
:10CCD00001200DF03DFF10BD0010024010B50022F4
:10CCE0004FF48071034802F045FC03200CF094FCE3
:10CCF00010BD00000020024010B5012211020348BF
:10CD000002F038FC03200DF023FF10BD002002408C
:10CD100010B500220421024802F02CFC10BD0000D6
:10CD20000010024010B501220421024802F022FC4A
:10CD300010BD00000010024010B500224FF4006149
:10CD4000034802F017FC07200CF066FC10BD000041
:10CD50000020024010B50122D102034802F00AFC73
:10CD600007200DF0F5FE10BD0020024010B508F0C0
:10CD700089FD08F031FC08F0D3FC08F011FD08F043
:10CD8000CDFE08F021FF08F06FFF08F0BDFF09F0AD
:10CD900015F809F015FA09F089F808F0F3FE10BD4E
:10CDA00010B500224021034802F0E4FB02200CF001
:10CDB00033FC10BD0010024010B501224021034891
:10CDC00002F0D8FB02200DF0C3FE10BD001002409F
:10CDD00010B500224FF40051034802F0CBFB0420B1
:10CDE0000CF01AFC10BD00000008024010B5012232
:10CDF0005103034802F0BEFB04200DF0A9FE10BD54
:10CE00000008024010B500224FF48061034802F090
:10CE1000B1FB06200CF000FC10BD00000020024019
:10CE200010B501229102034802F0A4FB06200DF088
:10CE30008FFE10BD0020024010B500224FF400719B
:10CE4000034802F097FB05200CF0E6FB10BD000044
:10CE50000020024010B501225102034802F08AFB73
:10CE600005200DF075FE10BD0020024010B5002217
:10CE70000821034802F07EFB00200CF0CDFB10BD22
:10CE80000010024010B501220821034802F072FB95
:10CE900000200DF05DFE10BD0010024010B5002214
:10CEA0000121034802F066FB08200CF0B5FB10BD21
:10CEB0000014024010B501221146034802F05AFB4B
:10CEC00008200DF045FE10BD0014024010B50022F0
:10CED0000221034802F04EFB09200CF09DFB10BD1F
:10CEE0000014024010B501220221034802F042FB67
:10CEF00009200DF02DFE10BD0014024010B50022D7
:10CF00000421034802F036FB0A200CF085FB10BD1B
:10CF10000014024010B501220421034802F02AFB4C
:10CF20000A200DF015FE10BD0014024010B50022BD
:10CF30000821034802F01EFB0B200CF06DFB10BD16
:10CF40000014024010B501220821034802F012FB30
:10CF50000B200DF0FDFD10BD0014024010B50022A5
:10CF60004021034802F006FB0E200CF055FB10BDDB
:10CF70000014024010B501224021034802F0FAFAE1
:10CF80000E200DF0E5FD10BD0014024010B500228A
:10CF90002021034802F0EEFA0D200CF03DFB10BDFD
:10CFA0000014024010B501222021034802F0E2FAE9
:10CFB0000D200DF0CDFD10BD0014024010B5002273
:10CFC0001021034802F0D6FA0C200CF025FB10BD0E
:10CFD0000014024010B501221021034802F0CAFAE1
:10CFE0000C200DF0B5FD10BD0014024000BFFEE79F
:10CFF00010B5024800F02AFF10BD000088CE0120C5
:10D0000010B500F01FF800F019F810BD10B500249D
:10D0100000BF00BFFFF772F9044600BF00BF102138
:10D02000054808F05FFF00BF00BF2046FFF76AF920
:10D0300000BF00BF10BD0000D4D7012010B5FFF71E
:10D04000E5FF10BD10B500200249086000F00AF8A5
:10D0500010BD00005C02002001490860704700001C
:10D060005C02002010B5FFF7A3FD044608480068E5
:10D0700040F0807006490860002006494860084674
:10D08000006840F0010008602046FFF7E5FF10BD92
:10D09000FCED00E0001000E0014948687047000026
:10D0A000001000E010B5024801F09CFB10BD00002C
:10D0B00010CE012010B5024801F094FB10BD000015
:10D0C00010D4012010B5024801F08CFB10BD000007
:10D0D00090D1012010B5024801F084FB10BD000082
:10D0E00014D7012010B5024801F07CFB10BD0000F0
:10D0F000B0CD012010B5024801F074FB10BD000056
:10D1000074D7012010B5024801F06CFB10BD00007F
:10D11000F0D101200146087810381823B0FBF3F253
:10D120000848805CC865032A05D908686FF30900C0
:10D13000001D886503E008686FF309008865886D45
:10D1400070470000B8D80108014600208A6A8B6940
:10D15000CBB932B1012A0DD0022A03D0032A10D153
:10D160000EE000BFCB6A03F08073B3F1807F00D183
:10D17000012007E0CB6AB3F1C07F00D1012001E0BC
:10D1800000E000BF34E08B69B3F5005F1AD132B123
:10D19000012A07D0022A03D0032A11D10AE000BFD6
:10D1A00001200EE0CB6A03F08073B3F1807F00D1E1
:10D1B000012006E0CB6AB3F1C07F00D1012000E07E
:10D1C00000BF15E032B1012A05D0022A04D0032A9B
:10D1D0000CD103E000BF00BF012008E0CB6A03F0E0
:10D1E0008073B3F1807F00D1012000E000BF00BF59
:10D1F000704730B50468246824F4802405682C60E6
:10D20000046863608468402C04D10468A2600468E8
:10D21000E16003E00468A1600468E26030BD70472B
:10D2200008B5C72003A307A20021009008460DF00F
:10D23000F5FA08BD2E2E5C555345525C6D61696E42
:10D240002E63000057726F6E6720706172616D65AA
:10D25000746572732076616C75653A2066696C65D9
:10D26000202573206F6E206C696E652025640D0A81
:10D2700000000000024901EB800191ED000A7047B7
:10D280008021002010B52DED028B0420FFF7F2FF66
:10D29000B0EE408A0520FFF7EDFF28EE000A0448B3
:10D2A00080ED000A90ED000ABDEC028B10BD00007D
:10D2B0002C00002001480078704700002400002066
:10D2C000F8B505460C46002000902068122803D9C6
:10D2D0007A492068884200D104E040F25A6178A07F
:10D2E0000FF0C3F9606818B16068102800D804E036
:10D2F00040F25B6172A00FF0B8F9A068A0B1A0681D
:10D30000012811D0A06802280ED0A06803280BD0F5
:10D31000A068042808D0A068052805D0A0680628C1
:10D3200002D0A068072800D104E040F25C6164A04C
:10D330000FF09BF900BF95F83C00012801D10220B5
:10D34000F8BD012085F83C0000BF2068092816D9E7
:10D350002868C06821780A3901EB41020721914011
:10D3600088432968C86021780A3901EB4101A06827
:10D3700088402968C96808432968C86013E028689C
:10D380000069217801EB4102072191408843296817
:10D390000861217801EB4101A0688840296809698A
:10D3A0000843296808616068072817D22868406B1D
:10D3B0002179491E01EB81021F2191408843296890
:10D3C0004863208880B22179491E01EB81018840A1
:10D3D0002968496B08432968486331E060680D2873
:10D3E00017D22868006B2179C91F01EB81021F2128
:10D3F0009140884329680863208880B22179C91F39
:10D4000001EB810188402968096B0843296808639A
:10D4100016E02868C06A21790D3901EB81021F21CD
:10D42000914088432968C862208880B221790D39EB
:10D4300001EB810188402968C96A08432968C862EC
:10D440002D4E2E49286888420AD12068122807D11B
:10D45000706820F400007060706840F480007060B4
:10D4600026492868884222D114492068884202D07F
:10D47000206811281BD1706820F4800070607068EB
:10D4800040F4000070600D49206888420FD11C48AC
:10D4900000681C49B0FBF1F000EB800040000090F8
:10D4A00002E00098401E009000980028F9D100BFCB
:10D4B000002085F83C0000BF00BF41E712000010CB
:10D4C0002E2E5C4C6962726172795C53544D33321A
:10D4D000463478785F48414C5F4472697665725C87
:10D4E0005372635C73746D3332663478785F68614D
:10D4F0006C5F6164632E63000023014000200140E3
:10D500000000002040420F0070B5044600250CB911
:10D51000012070BD8B492068884207D08A49206865
:10D52000884203D089492068884200D104E040F253
:10D53000431187A00FF099F8606858B16068B0F5A2
:10D54000803F07D06068B0F5003F03D06068B0F559
:10D55000403F00D104E04FF4A2717DA00FF085F8A8
:10D56000A06858B1A068B0F1807F07D0A068B0F182
:10D57000007F03D0A068B0F1407F00D104E040F20A
:10D58000451173A00FF071F8206910B120690128CE
:10D5900000D104E04FF4A3716DA00FF066F8207E77
:10D5A00010B1207E012800D104E040F2471168A0AC
:10D5B0000FF05BF8A06AE8B3A06AB0F1807F3DD0BD
:10D5C000A06AB0F1007F39D0A06AB0F1407F35D0B9
:10D5D000A06AB0F1806F31D0A06AB0F1A06F2DD0F9
:10D5E000A06AB0F1C06F29D0A06AB0F1E06F25D079
:10D5F000A06AB0F1006F21D0A06AB0F1106F1DD009
:10D60000A06AB0F1206F19D0A06AB0F1306F15D0C8
:10D61000A06AB0F1406F11D0A06AB0F1506F0DD088
:10D62000A06AB0F1606F09D0A06AB0F1706F05D048
:10D63000554900E002E0A06A884200D104E04FF4BE
:10D64000A47143A00FF011F8E06818B1E068B0F5DC
:10D65000006F00D104E040F249113DA00FF005F841
:10D66000E06918B1E069102800D804E04FF4A57112
:10D6700037A00EF0FAFF94F8300018B194F830009B
:10D68000012800D104E040F24B1131A00EF0EDFF73
:10D690006069012804D0606910B16069022800D176
:10D6A00004E04FF4A6712AA00EF0DFFF2020005DF9
:10D6B00018B12020005D012800D104E040F24D1196
:10D6C00023A00EF0D2FF3049A06A884213D0E06A4E
:10D6D00058B1E06AB0F1805F07D0E06AB0F1005F56
:10D6E00003D0E06AB0F1405F00D104E040F2511194
:10D6F00017A00EF0BAFF206C30B9204600F046F8B3
:10D700000020606484F83C00206C00F0100088B9B0
:10D71000206C20F4885040F0020020642046FFF77F
:10D72000A1F800206064206C20F0020040F00100AD
:10D73000206400E0012500BF002084F83C0000BF09
:10D740002846E6E600200140002101400022014079
:10D750002E2E5C4C6962726172795C53544D333287
:10D76000463478785F48414C5F4472697665725CF4
:10D770005372635C73746D3332663478785F6861BA
:10D780006C5F6164632E63000100000F10B586B00A
:10D790000446142101A8FEF71AFF81492068884237
:10D7A0007ED100BF002000907E48006840F4807069
:10D7B0007C4908600846006800F48070009000BF53
:10D7C00000BF00BF0020009076481438006840F485
:10D7D00080007449143908600846006800F480002D
:10D7E000009000BF00BF00BF002000900846006806
:10D7F00040F0040008600846006800F00400009053
:10D8000000BF00BF00BF002000900846006840F045
:10D81000010008600846006800F00100009000BFA9
:10D8200000BF00BF002000900846006840F00200E2
:10D8300008600846006800F00200009000BF00BFCA
:10D840003F200190032002900020039001A9564838
:10D8500001F044FCF020019003200290002003908E
:10D8600001A9524801F03AFC0320019002900020E7
:10D87000039001A94E4801F031FC4E484E49086022
:10D880000020486000214C488160C1604FF48061F5
:10D89000016149004161890081610021C16100E0AD
:10D8A00014E04FF4803101620021416201F0BAF8C6
:10D8B00000BF4148A063846300BF002205213C20D3
:10D8C00001F08AFF3C2001F053FF66E03B492068ED
:10D8D000884262D100BF002000903248006840F4C6
:10D8E0008060304908600846006800F4806000905D
:10D8F00000BF00BF00BF002000902A481438006815
:10D9000040F480002749143908600846006800F494
:10D910008000009000BF00BF00BF002000900846BC
:10D92000006840F0200008600846006800F0200011
:10D93000009000BF00BF4FF4C06001900320029030
:10D940000020039001A91E4801F0C8FB1948603867
:10D950001C4908608005486000211A488160C16048
:10D960004FF48061016149004161890081610021BA
:10D97000C1614FF4803101620021416201F052F82F
:10D9800000BF1048A063846300BF00220521382037
:10D9900001F022FF382001F0EBFE06B010BD0000C0
:10D9A00000200140443802400008024000000240CC
:10D9B0000004024070640240B0CD0120002201400A
:10D9C0000014024010CE012070B504460D4694F8B4
:10D9D00020600D48854200D804E04FF4D0610BA0D0
:10D9E0000EF043FE012E01D0022E06D120684069C0
:10D9F000284321684861002070BD606A40F480209F
:10DA000060620120F8E700007F8F03002E2E5C4C3F
:10DA10006962726172795C53544D3332463478785E
:10DA20005F48414C5F4472697665725C5372635C17
:10DA300073746D3332663478785F68616C5F6361EC
:10DA40006E2E63002DE9F04107460C463D6897F8BD
:10DA50002080B8F1010F02D0B8F1020F7ED120680A
:10DA6000B0F5803F00D204E04FF4547172A00EF084
:10DA7000FCFD6068B0F5803F00D204E040F2513117
:10DA80006DA00EF0F2FDA068B0F5803F00D204E07A
:10DA900040F2523168A00EF0E8FDE068B0F5803F3A
:10DAA00000D204E040F2533163A00EF0DEFDA06925
:10DAB00010B1A069012800D104E04FF455715EA0B7
:10DAC0000EF0D3FDE06910B1E069012800D104E057
:10DAD00040F2553158A00EF0C8FD206910B1206900
:10DAE000012800D104E040F2563153A00EF0BDFDF4
:10DAF000206A10B1206A012800D104E040F25731B9
:10DB00004DA00EF0B2FD5A4D60691B2800D804E00C
:10DB100040F2723148A00EF0A8FD606A1B2800D8C0
:10DB200004E040F2733144A00EF09FFD05F500754E
:10DB3000286840F001002860286820F47C502860A4
:10DB40002868616A40EA01202860207D00F01F01FA
:10DB5000012000FA01F6E869B04300E066E0E86100
:10DB6000A5F50075E069C8B9D5F80C02B043C5F851
:10DB70000C02A08880B2A18940EA014105F510702D
:10DB8000626940F83210208880B2218940EA014160
:10DB900005F51070626900EBC2004160E069012880
:10DBA00019D1D5F80C023043C5F80C02A08880B218
:10DBB000218840EA014105F51070626940F8321091
:10DBC000A08980B2218940EA014105F5107062699F
:10DBD00000EBC2004160A06928B9D5F80402B04347
:10DBE000C5F8040204E0D5F804023043C5F8040285
:10DBF000206928B9D5F81402B043C5F8140204E02E
:10DC0000D5F814023043C5F81402206A012804D163
:10DC1000D5F81C023043C5F81C02D5F8000220F0EC
:10DC20000100C5F800020020BDE8F081786A40F4E8
:10DC3000802078620120F7E72E2E5C4C69627261C9
:10DC400072795C53544D3332463478785F48414C96
:10DC50005F4472697665725C5372635C73746D3392
:10DC600032663478785F68616C5F63616E2E630042
:10DC700000640040704700002DE9F04104460D4665
:10DC800016461F4694F820800DB1012D00D104E006
:10DC90004FF4BE615FA00EF0E8FCB8F1010F02D0B6
:10DCA000B8F1020F7DD15DB92068C06800F00300B3
:10DCB00088B9606A40F4001060620120BDE8F0811C
:10DCC0002068006900F0030028B9606A40F4001081
:10DCD00060620120F2E7206800F5D87000EB0510C3
:10DCE000006800F00400B060B06840B9206800F53A
:10DCF000D87000EB05100068400D306007E0206828
:10DD000000F5D87000EB05100068C008706020684E
:10DD100000F5D87000EB0510006800F00200400824
:10DD2000F060206800F5D87000EB0510406800F046
:10DD30000F003061206800F5D87000EB05104068D6
:10DD400000F47F40000AB061206800F5D87000EB55
:10DD500005104068000C7061206800F5D87000EB79
:10DD6000051080683870206800F5D87000EB051049
:10DD7000806800F47F40000A7870206800F5D87051
:10DD800000EB0510806800F47F00000CB87020687C
:10DD900000F5D87000EB05108068000EF870206860
:10DDA00000E031E000F5D87000EB0510C068387174
:10DDB000206800F5D87000EB0510C06800F47F40C3
:10DDC000000A7871206800F5D87000EB0510C06873
:10DDD00000F47F00000CB871206800F5D87000EBEB
:10DDE0000510C068000EF87135B92068C06840F0B1
:10DDF00020002168C86005E02068006940F020002C
:10DE000021680861002059E7606A40F48020606260
:10DE1000012053E72E2E5C4C6962726172795C536B
:10DE2000544D3332463478785F48414C5F447269D0
:10DE30007665725C5372635C73746D3332663478EA
:10DE4000785F68616C5F63616E2E63002DE9F05F3F
:10DE500004460025206846692068D0F804902068B0
:10DE600087682068D0F80CA02068D0F810B020682F
:10DE7000D0F8188006F00100002855D007F0010006
:10DE8000C0B101202168886007F0020018B1204667
:10DE900000F08DFB0EE007F0040010B145F40065C2
:10DEA00008E007F0080010B145F4805502E0204674
:10DEB00000F07CFB07F48070C8B14FF480702168DB
:10DEC000886007F4007018B1204600F072FB0EE085
:10DED00007F4806010B145F4005508E007F40060D5
:10DEE00010B145F4804502E0204600F061FB07F4E4
:10DEF0008030C8B14FF480302168886007F400306A
:10DF000018B1204600F057FB0EE007F4802010B156
:10DF100045F4004508E007F4002010B145F48035D1
:10DF200002E0204600F046FB06F0080038B10AF097
:10DF3000100020B145F4007510202168C86006F07B
:10DF4000040040B10AF0080028B108202168C86028
:10DF5000204600F0BFFA06F0020038B12068C06821
:10DF600000F0030010B1204600F0B6FA06F04000C1
:10DF700038B10BF0100020B145F480651020216805
:10DF8000086106F0200040B10BF0080028B108201D
:10DF900021680861204600F0D7FA06F0100038B179
:10DFA0002068006900F0030010B1204600F0CDFAAF
:10DFB00006F4003040B109F0100028B110202168AB
:10DFC0004860204600F0C2FA06F4803040B109F003
:10DFD000080028B1082021684860204600F0ECFACB
:10DFE00006F4004088B309F0040078B306F48070AA
:10DFF00020B108F0010008B145F0010506F40070F9
:10E0000020B108F0020008B145F0020506F4806076
:10E0100020B108F0040008B145F0040506F40060E2
:10E02000A0B108F0700088B108F07000402817D047
:10E0300006DC10280BD020280CD0302819D10CE099
:10E04000502810D0602814D110E01DE019E045F0F0
:10E0500008050FE045F010050CE045F0200509E04B
:10E0600045F0400506E045F0800503E045F4807585
:10E0700000E000BF00BF2068806920F070002168C8
:10E0800088610420216848602DB1606A284360627D
:10E090002046FFF7EFFDBDE8F09F000070B5044695
:10E0A0000CB9012070BDD0492068884203D0CF4907
:10E0B0002068884200D104E040F21D11CCA00EF08F
:10E0C000D4FA207E10B1207E012800D104E04FF464
:10E0D0008F71C7A00EF0C9FA607E10B1607E012872
:10E0E00000D104E040F21F11C1A00EF0BEFAA07EE4
:10E0F00010B1A07E012800D104E04FF49071BCA0C3
:10E100000EF0B3FAE07E10B1E07E012800D104E009
:10E1100040F22111B6A00EF0A8FA207F10B1207FA6
:10E12000012800D104E04FF49171B1A00EF09DFAE6
:10E13000607F10B1607F012800D104E040F223111C
:10E14000ABA00EF092FAA06858B1A068B0F1804F71
:10E1500007D0A068B0F1004F03D0A068B0F1404FE5
:10E1600000D104E04FF49271A1A00EF07EFAE068B5
:10E1700058B1E068B0F1807F07D0E068B0F1007F6F
:10E1800003D0E068B0F1407F00D104E040F22511F7
:10E1900097A00EF06AFA2069D8B32069B0F5803FE5
:10E1A00037D02069B0F5003F33D02069B0F5403F4B
:10E1B0002FD02069B0F5802F2BD02069B0F5A02F8B
:10E1C00027D02069B0F5C02F23D02069B0F5E02F0B
:10E1D0001FD02069B0F5002F1BD02069B0F5102F9B
:10E1E00017D02069B0F5202F13D02069B0F5302F5B
:10E1F0000FD02069B0F5402F0BD02069B0F5502F1B
:10E2000007D02069B0F5602F03D02069B0F5702FDA
:10E2100000D104E04FF4937175A00EF026FA606906
:10E22000D8B16069B0F5801F17D06069B0F5001FE4
:10E2300013D06069B0F5401F0FD06069B0F5800F52
:10E240000BD06069B0F5A00F07D06069B0F5C00FC2
:10E2500003D06069B0F5E00F00D104E040F227116F
:10E2600063A00EF002FA606820B16068B0F5806FBC
:10E2700000D804E04FF494715DA00EF0F6F994F824
:10E28000200010B9204600F0CFF82068006820F088
:10E2900002002168086001F0A9F905460DE001F0CF
:10E2A000A5F9401B0A2808D9606A40F40030606272
:10E2B000052084F820000120F4E62068406800F082
:10E2C00002000028EBD12068006840F001002168BE
:10E2D000086001F08BF905460DE001F087F9401B5D
:10E2E0000A2808D9606A40F400306062052084F88A
:10E2F00020000120D6E62068406800F001000028D8
:10E30000EBD0207E012806D12068006840F0800014
:10E310002168086005E02068006820F0800021681E
:10E320000860607E012806D12068006840F0400047
:10E330002168086005E02068006820F0400021683E
:10E340000860A07E012806D12068006840F0200007
:10E350002168086005E02068006820F0200021683E
:10E360000860E07E012806D12068006820F01000D7
:10E370002168086005E02068006840F0100021680E
:10E380000860207F012806D12068006840F008005E
:10E390002168086005E02068006820F00800216816
:10E3A0000860607F012806D12068006840F0040002
:10E3B0002168086005E02068006820F004002168FA
:10E3C0000860D4E9020108432169084361690843F0
:10E3D0006168491E08432168C8610020606201200D
:10E3E00084F8200000205DE60064004000680040E2
:10E3F0002E2E5C4C6962726172795C53544D3332DB
:10E40000463478785F48414C5F4472697665725C47
:10E410005372635C73746D3332663478785F68610D
:10E420006C5F63616E2E630010B586B004461421E4
:10E4300001A8FEF7CCF823492068884240D100BFEC
:10E44000002000902048006840F000701E490860DD
:10E450000846006800F00070009000BF00BF00BFD9
:10E460000020009018481038006840F0020016495B
:10E47000103908600846006800F00200009000BFF4
:10E4800000BF4FF4407001900220029000200390E2
:10E49000032004900920059001A90C4800F01EFEFD
:10E4A0000B480068406940F002000949096848616A
:10E4B00000220121142001F08FF9142001F058F9F5
:10E4C00006B010BD00640040403802400004024025
:10E4D00088CE01207047000030B589B00546002085
:10E4E0000790089007AB6A4600212846FFF7C4FB57
:10E4F0000CA2002108460CF091F9002408E007A8BE
:10E50000035D0DA2002108460CF088F9601CC4B21E
:10E51000082CF4DB0BA2002108460CF07FF909B0AF
:10E5200030BD00002D2D3E2043616E2072782064A6
:10E530006174613A0000000025303258202D2D20F2
:10E5400000000000210D0A0070477047704770B549
:10E55000044694F82000012822D1022084F82000EB
:10E560002068006820F001002168086001F03EF892
:10E5700005460DE001F03AF8401B0A2808D9606A08
:10E5800040F400306062052084F82000012070BD56
:10E590002068406800F001000028EBD16062F6E7D7
:10E5A000606A40F4002060620120F0E77047704725
:10E5B0007047704770477047704770B50446A56D47
:10E5C00001F014F8064694F83500022808D080209F
:10E5D000606500BF002084F8340000BF012070BDDA
:10E5E0002068006820F016002168086020684069F3
:10E5F00020F0800021684861206C08B9A06C28B127
:10E600002068006820F00800216808602068006821
:10E6100020F00100216808600FE000F0E7FF801B98
:10E6200005280AD92020606500BF002084F8340046
:10E6300000BF032084F83500D1E72068006800F0AF
:10E6400001000028E9D194F85C103F208840A860C0
:10E6500000BF002084F8340000BF012084F835009A
:10E660000020BCE7014691F83500022803D0802045
:10E67000486501207047052081F83500086800686A
:10E6800020F001000A6810600020F3E770B504462E
:10E690000CB9012070BD94F83500022800D1F9E7CB
:10E6A00040492068884249D03E4918312068884254
:10E6B00044D03C493031206888423FD03949483104
:10E6C000206888423AD0374960312068884235D086
:10E6D000344978312068884230D0324990312068FE
:10E6E00088422BD02F49A8312068884226D02E4955
:10E6F0002068884222D02C491831206888421DD0D9
:10E70000294930312068884218D02749483120688B
:10E71000884213D024496031206888420ED02249B3
:10E7200078312068884209D01F499031206888429A
:10E7300004D01D49A8312068884200D104E04FF47C
:10E74000A4711AA00DF091FF2068006820F001006C
:10E7500021680860002021680860216848602168FD
:10E7600088602168C86021680861212021684861AB
:10E770002046FEF7CFFC05460020E063206460647D
:10E78000A064E064206594F85C103F208840A86095
:10E790000020606584F8350000BF84F8340000BFB5
:10E7A00000BF77E710600240106402402E2E5C4CE0
:10E7B0006962726172795C53544D333246347878B1
:10E7C0005F48414C5F4472697665725C5372635C6A
:10E7D00073746D3332663478785F68616C5F646D32
:10E7E000612E6300F8B50446002000908C48006854
:10E7F0004FF41651B0FBF1F7A56D2E6894F85C103C
:10E8000008208840304098B12068006800F004007B
:10E8100070B12068006820F004002168086094F856
:10E820005C1008208840A860606D40F001006065C1
:10E8300094F85C1001208840304068B1206840693D
:10E8400000F0800040B194F85C1001208840A8607E
:10E85000606D40F00200606594F85C100420884010
:10E86000304068B12068006800F0020040B194F8C0
:10E870005C1004208840A860606D40F00400606572
:10E8800094F85C1010208840304078B3206800680D
:10E8900000F0080050B394F85C1010208840A86085
:10E8A0002068006800F4802080B12068006800F4CF
:10E8B000002028B9206CC8B12046216C884715E09B
:10E8C000A06C98B12046A16C88470FE020680068D2
:10E8D00000F4807028B92068006820F008002168E2
:10E8E0000860206C10B12046216C884794F85C10B9
:10E8F000202088403040002865D02068006800F063
:10E90000100000285FD094F85C1020208840A86098
:10E9100094F83500052828D12068006820F01600FA
:10E92000216808602068406920F080002168486103
:10E93000206C08B9A06C28B12068006820F008009D
:10E940002168086094F85C103F208840A86000BFF0
:10E95000002084F8340000BF012084F83500206DC9
:10E9600010B12046216D8847F8BD2068006800F48A
:10E97000802080B12068006800F4002028B9606C15
:10E9800010B12046616C88471DE0E06BD8B120468D
:10E99000E16B884717E02068006800F4807068B970
:10E9A0002068006820F010002168086000BF002087
:10E9B00084F8340000BF012084F83500E06B10B10A
:10E9C0002046E16B8847606D38B3606D00F0010050
:10E9D000F0B1052084F835002068006820F00100BF
:10E9E0002168086000BF0098401C0090B84200D920
:10E9F00005E02068006800F001000028F3D100BFA6
:10EA000000BF002084F8340000BF012084F83500E6
:10EA1000E06C10B12046E16C884700BFA4E700001D
:10EA2000000000202DE9F0410446002500F0DEFD45
:10EA3000074614B90120BDE8F081C049206888422A
:10EA400049D0BE4918312068884244D0BB49303192
:10EA5000206888423FD0B9494831206888423AD07E
:10EA6000B64960312068884235D0B4497831206891
:10EA7000884230D0B1499031206888422BD0AF49CC
:10EA8000A8312068884226D0AD492068884222D02B
:10EA9000AB491831206888421DD0A949303120681F
:10EAA000884218D0A64948312068884213D0A4492A
:10EAB0006031206888420ED0A149783120688842B0
:10EAC00009D09F4990312068884204D09C49A831E0
:10EAD0002068884200D103E0B8219AA00DF0C5FD5E
:10EAE0006068D8B16068B0F1007F17D06068B0F19D
:10EAF000806F13D06068B0F1C06F0FD06068B0F164
:10EB0000006F0BD06068B0F1206F07D06068B0F183
:10EB1000406F03D06068B0F1606F00D103E0B921AD
:10EB200088A00DF0A2FDA06828B1A068402802D0FE
:10EB3000A068802800D103E0BA2182A00DF095FDE5
:10EB4000E068B0F5007F01D0E06800B903E0BB21C8
:10EB50007CA00DF08AFD2069B0F5806F01D020699E
:10EB600000B903E0BC2177A00DF07FFD606938B1EA
:10EB70006069B0F5006F03D06069B0F5805F00D1C7
:10EB800003E0BD216FA00DF070FDA06938B1A06950
:10EB9000B0F5005F03D0A069B0F5804F00D103E06D
:10EBA000BE2168A00DF061FDE06930B1E069B0F50B
:10EBB000807F02D0E069202800D103E0BF2161A05E
:10EBC0000DF053FD206A58B1206AB0F5803F07D0A0
:10EBD000206AB0F5003F03D0206AB0F5403F00D175
:10EBE00003E0C02157A00DF040FD606A10B1606ADB
:10EBF000042800D103E0C12152A00DF036FD606A67
:10EC0000002835D0A06A40B1A06A012805D0A06ACA
:10EC1000022802D0A06A032800D103E0C62149A03F
:10EC20000DF023FDE06A58B1E06AB0F5000F07D09F
:10EC3000E06AB0F1807F03D0E06AB0F1C07F00D11C
:10EC400003E0C7213FA00DF010FD206B58B1206BF1
:10EC5000B0F5001F07D0206BB0F5800F03D0206BFC
:10EC6000B0F5C00F00D103E0C82136A00DF0FDFCC7
:10EC700000BF002084F8340000BF022084F8350073
:10EC80002068006820F00100216808600AE000F0B8
:10EC9000ADFCC01B052805D920206065032084F841
:10ECA0003500C8E62068006800F001000028EED1B9
:10ECB0002068056831480540D4E901010843E1684E
:10ECC00008432169084361690843A1690843E16970
:10ECD0000843216A08430543606A042803D1D4E944
:10ECE0000B0108430543206805602068456925F04D
:10ECF0000705606A0543606A04280DD1A06A0543D0
:10ED0000E06A48B12046FEF71FFA28B1402060654E
:10ED1000012084F835008EE6206845612046FEF724
:10ED2000F9F9064694F85C103F208840B060002056
:10ED30006065012084F8350000207CE61060024008
:10ED4000106402402E2E5C4C6962726172795C53D1
:10ED5000544D3332463478785F48414C5F44726991
:10ED60007665725C5372635C73746D3332663478AB
:10ED7000785F68616C5F646D612E63003F8010F0A6
:10ED80002DE9F04704460E4617461D464FF0000891
:10ED9000D4F858901DB1B5F5803F00D204E04FF48F
:10EDA000E67124A00DF061FC00BF94F83400012846
:10EDB00002D10220BDE8F087012084F8340000BFB2
:10EDC00094F8350001282BD1022084F8350000206A
:10EDD00060652B463A4631462046FEF70AFA94F81B
:10EDE0005C103F208840C9F808002068006840F0A7
:10EDF0001600216808602068406940F080002168A2
:10EE00004861206C28B12068006840F00800216843
:10EE100008602068006840F001002168086006E092
:10EE200000BF002084F8340000BF4FF002084046C5
:10EE3000C0E700002E2E5C4C6962726172795C53EF
:10EE4000544D3332463478785F48414C5F447269A0
:10EE50007665725C5372635C73746D3332663478BA
:10EE6000785F68616C5F646D612E630010B54FF070
:10EE7000FF300E49086000200860401E091D086030
:10EE800000200860401E0949103908600020086011
:10EE9000401E091D086000200860401E091D086012
:10EEA0000020086000F0F8FB002010BD2038024070
:10EEB00070B5044600F09AFB06462546681C10B162
:10EEC00004480078054400BF00F090FB801BA84276
:10EED000FAD370BD580200202DE9F0470446884659
:10EEE0004FF0000900260027604884421DD060488A
:10EEF00084421AD05F48844217D05F48844214D0BD
:10EF00005E48844211D05E4884420ED05D488442FF
:10EF10000BD05D48844208D05C48844205D05C48F0
:10EF2000844202D05B48844200D104E04FF49871DF
:10EF300059A00DF09AFB002592E0012000FA05F996
:10EF400008EA09064E457DD16248A90850F82170AB
:10EF5000A807010F0F20884007404448844201D190
:10EF600000202DE04248844201D1012028E04148A0
:10EF7000844201D1022023E03F48844201D1032092
:10EF80001EE03E48844201D1042019E03C488442FE
:10EF900001D1052014E03B48844201D106200FE056
:10EFA0003948844201D107200AE03848844201D11F
:10EFB000082005E03648844201D1092000E00A20FB
:10EFC000A907090F8840B84221D1A807010F0F20D7
:10EFD00000FA01F73F48A90850F82100B8433D491D
:10EFE000AA0841F822003C480068B0433A4908604A
:10EFF000081D0068B043091D0860081D0068B04383
:10F00000091D0860081D0068B043091D08602068DC
:10F010006A000321914088432060E90804F1200040
:10F0200050F821006907CA0E0F2191408843EA0871
:10F0300004F1200141F82200A0686A0003219140F8
:10F04000884300E00BE0A06061680120A840814394
:10F050006160E0686A00032191408843E0606D1CB4
:10F06000102DFFF46AAFBDE8F087000000000240F9
:10F070000004024000080240000C02400010024060
:10F080000014024000180240001C02400020024010
:10F0900000240240002802402E2E5C4C69627261FE
:10F0A00072795C53544D3332463478785F48414C22
:10F0B0005F4472697665725C5372635C73746D331E
:10F0C00032663478785F68616C5F6770696F2E6351
:10F0D0000000000008380140003C01402DE9F843E1
:10F0E00005460C464FF00009C8460026FE488542FA
:10F0F0001DD0FE4885421AD0FD48854217D0FD48F4
:10F10000854214D0FC48854211D0FC4885420ED07F
:10F11000FB4885420BD0FB48854208D0FA4885421F
:10F1200005D0FA48854202D0F948854200D103E073
:10F13000B321F8A00DF099FA208880B220B12068A0
:10F140006FF30F0000B903E0B421F2A00DF08DFAC7
:10F15000606830B36068012823D06068112820D02F
:10F16000606802281DD0606812281AD0F8496068CB
:10F17000884216D0F7496068884212D0F649606824
:10F1800088420ED0F549606888420AD0F449606828
:10F19000884206D0F3496068884202D0606803283C
:10F1A00000D103E0B521DBA00DF05FFAA06828B123
:10F1B000A068012802D0A068022800D103E0B6218F
:10F1C000D4A00DF052FA002789E1012000FA07F9D6
:10F1D000206800EA0908C8457ED16068022802D08C
:10F1E0006068122879D12069002877D02069092821
:10F1F0007ED0206900287BD02069002878D0206943
:10F20000002875D02069002872D0206901286FD0AD
:10F21000206901286CD02069022869D02069022861
:10F2200066D02069022863D02069032860D0206955
:10F2300004285DD0206904285AD02069042857D0BA
:10F240002069052854D02069052851D02069092853
:10F250004ED0206906284BD02069092848D0206963
:10F26000072845D02069072842D0206907283FD0C9
:10F27000206908283CD02069082839D0206908284E
:10F2800036D02069092833D02069092830D0206978
:10F290000A282DD020690A282AD020690B2827D0D7
:10F2A00020690C2824D020690C2821D020690D2841
:10F2B0001ED020690F281BD02069052818D020698E
:10F2C000052815D02069052812D0206908280FD0FC
:10F2D000206908280CD002E0EEE022E008E0206976
:10F2E0000C2805D02069062802D020690E2800D1FC
:10F2F00003E0C72187A00DF0B8F9F90805F1200057
:10F3000050F821607807C10E0F20884086437907A6
:10F31000C90E206988400643F90805F1200040F82D
:10F3200021602E687900032088408643207900F010
:10F3300003007900884006432E606068012808D0E9
:10F340006068022805D06068112802D06068122821
:10F3500023D1E06840B1E068012805D0E0680228C8
:10F3600002D0E068032800D103E0DA2169A00DF0A3
:10F370007CF9AE6879000320884086437900E06814
:10F3800088400643AE606E680120B840864320790D
:10F39000C0F30010B84006436E60EE6879000320A9
:10F3A000884086437900A06888400643EE60606824
:10F3B00000F08050B0F1805F7ED100BF002000904F
:10F3C0006948006840F48040674908600846006862
:10F3D00000F48040009000BF00BF6448B90850F8B6
:10F3E0002160B807010F0F20884086433E488542C0
:10F3F00001D100202DE03D48854201D1012028E0C7
:10F400003B48854201D1022023E03A48854201D1A0
:10F4100003201EE03848854201D1042019E0374816
:10F42000854201D1052014E03548854201D10620EE
:10F430000FE03448854201D107200AE03248854276
:10F4400001D1082005E03148854201D1092000E0C2
:10F450000A20B907090F884006434448B90840F814
:10F4600021604348066826EA0806606800F4803098
:10F47000B0F5803F01D146EA08063D480660001D10
:10F48000066826EA0806606800F40030B0F5003F20
:10F4900001D146EA08063648001D0660001D0668D0
:10F4A00026EA0806606800F48010B0F5801F01D1DC
:10F4B00046EA08062E4800E010E008300660001D0D
:10F4C000066826EA0806606800F40010B0F5001F20
:10F4D00001D146EA080626480C3006607F1C102F32
:10F4E000FFF473AEBDE8F883000002400004024060
:10F4F00000080240000C02400010024000140240CC
:10F5000000180240001C024000200240002402407B
:10F51000002802402E2E5C4C6962726172795C5345
:10F52000544D3332463478785F48414C5F447269B9
:10F530007665725C5372635C73746D3332663478D3
:10F54000785F68616C5F6770696F2E630000000010
:10F5500000001110000021100000311000001210F6
:10F5600000002210000032104438024008380140E8
:10F57000003C014070B506460C461546A0B218B1D5
:10F58000200C000400B904E040F29F1108A00DF027
:10F590006CF80DB1012D00D104E04FF4D07104A03E
:10F5A0000DF063F80DB1B46101E02004B06170BDED
:10F5B0002E2E5C4C6962726172795C53544D333209
:10F5C000463478785F48414C5F4472697665725C76
:10F5D0005372635C73746D3332663478785F68613C
:10F5E0006C5F6770696F2E6300000000014800685F
:10F5F0007047000050020020034800680349097862
:10F600000844014908607047500200205802002059
:10F6100010B50D48006840F400700B4908600846BA
:10F62000006840F4806008600846006840F480701C
:10F630000860032000F03AF90F2000F007F800F00E
:10F640002CF8002010BD0000003C024070B50446BC
:10F650000E4800784FF47A71B1FBF0F00C4909685C
:10F66000B1FBF0F5284602F0C7FA08B1012070BDE1
:10F67000102C07D200222146501E00F0ADF805489C
:10F68000046001E00120F2E70020F0E758020020CA
:10F6900000000020540200207047704710B5044657
:10F6A000002C00DB04E040F2A71107A00CF0DDFF06
:10F6B00000BF04F01F01012088401249620941F88F
:10F6C000220000BF10BD00002E2E5C4C69627261EA
:10F6D00072795C53544D3332463478785F48414CEC
:10F6E0005F4472697665725C5372635C73746D33E8
:10F6F00032663478785F68616C5F636F72746578C6
:10F700002E63000080E200E010B50446002C00DB10
:10F7100003E0CE2106A00CF0A8FF00BF04F01F01FB
:10F72000012088401149620941F8220000BF10BD44
:10F730002E2E5C4C6962726172795C53544D333287
:10F74000463478785F48414C5F4472697665725CF4
:10F750005372635C73746D3332663478785F6861BA
:10F760006C5F636F727465782E63000080E100E067
:10F7700010B50446002C00DB03E0BE2107A00CF00E
:10F7800074FF00BF04F01F01012088406109890057
:10F7900001F1E021C1F8000100BF10BD2E2E5C4C2C
:10F7A0006962726172795C53544D333246347878B1
:10F7B0005F48414C5F4472697665725C5372635C6A
:10F7C00073746D3332663478785F68616C5F636F31
:10F7D000727465782E6300002DE9F05F80460C4658
:10F7E00015460027102D00D203E0AA2120A00CF01E
:10F7F0003CFF102C00D203E0AB211DA00CF035FF24
:10F8000006F0FAFC0746394622462B4601F007006F
:10F81000C0F1070ABAF1040F02D94FF0040A01E05F
:10F82000C0F1070AD14600F1040ABAF1070F02D26B
:10F830004FF0000A01E0A0F1030AD4464FF0010A9C
:10F840000AFA09FAAAF1010A0AEA020A0AFA0CFA01
:10F850004FF0010B0BFA0CFBABF1010B0BEA030BA6
:10F860004AEA0B063146404606F0CEFCBDE8F09F62
:10F870002E2E5C4C6962726172795C53544D333246
:10F88000463478785F48414C5F4472697665725CB3
:10F890005372635C73746D3332663478785F686179
:10F8A0006C5F636F727465782E63000010B5044658
:10F8B000072C07D0062C05D0052C03D0042C01D032
:10F8C000032C00D103E0922109A00CF0CEFE00BF72
:10F8D00004F00701154A10684FF6FF021040144A61
:10F8E000024342EA0120114A106000BF10BD00002F
:10F8F0002E2E5C4C6962726172795C53544D3332C6
:10F90000463478785F48414C5F4472697665725C32
:10F910005372635C73746D3332663478785F6861F8
:10F920006C5F636F727465782E6300000CED00E00D
:10F930000000FA05012001490862704700000E42EC
:10F94000F8B50446002500262068012803D3206866
:10F950007F2800D804E040F67B01F7A00CF085FE7C
:10F96000207800F0010020B9207800F00200022881
:10F9700076D16068322804D36068B0F5D87F00D8AB
:10F9800004E040F68501ECA00CF06FFE0020F94980
:10F990008866FFF72BFE054606E0FFF727FE401BB3
:10F9A000022801D90320F8BDF3480068C0F3C06005
:10F9B0000028F2D1207800F0010098B1A068022858
:10F9C00003D3A068072800D804E040F69B01DAA022
:10F9D0000CF04BFE60688101207A41EA0070E64934
:10F9E00084310860207800F00200022831D1E068FC
:10F9F000022803D3E0680F2800D804E040F6A801ED
:10FA0000CDA00CF032FEE069012803D3E069202884
:10FA100000D804E040F6A901C7A00CF026FED648A5
:10FA200084300068C0F3027660688101207B41EA7F
:10FA3000006040EA0670D04984310860CE488C30BE
:10FA4000006820F01F00E169491E0843CA498C3153
:10FA500008600120C7498866FFF7C8FD054607E032
:10FA60000CE0FFF7C3FD401B022801D903209AE7F1
:10FA7000C1480068C0F3C0600028F2D0207800F0D0
:10FA80000400042804D0207800F00800082877D16A
:10FA90002069322804D32069B0F5D87F00D804E06B
:10FAA00040F6CE01A4A00CF0E0FD0020B1490867AB
:10FAB000FFF79CFD054606E0FFF798FD401B022876
:10FAC00001D903206FE7AC480068C0F340700028FC
:10FAD000F2D1207800F00400042831D160690228B6
:10FAE00003D360690F2800D804E040F6E30192A038
:10FAF0000CF0BBFD206A012803D3206A202800D81F
:10FB000004E040F6E4018CA00CF0AFFD9A48883088
:10FB10000068C0F3027620698101207D41EA00601F
:10FB200040EA0670944988310860081D006820F496
:10FB3000F851206A401E41EA00208F498C3108604C
:10FB4000207800F00800082838D1A069022803D3E3
:10FB5000A069072800D804E040F6F30176A00CF075
:10FB600084FD606A58B1606AB0F5803F07D0606A72
:10FB7000B0F5003F03D0606AB0F5403F01D105E029
:10FB800030E040F6F4016CA00CF06FFD7A4888304C
:10FB90000068C0F303662069800140EA0661207EA8
:10FBA00041EA0070744988310860081D006820F43B
:10FBB0004030616A084370498C31086001206D490A
:10FBC0000867FFF713FD054606E0FFF70FFD401B32
:10FBD000022801D90320E6E667480068C0F34070B8
:10FBE0000028F2D0207800F0200020287ED1A06AE2
:10FBF000B0F5807F7ED0A06AB0F5007F7AD05F49F3
:10FC0000A06A884276D05E49A06A884272D05D4977
:10FC1000A06A88426ED05C49A06A88426AD05B497B
:10FC2000A06A884266D05A49A06A884262D059497F
:10FC3000A06A88425ED05849A06A88425AD0574983
:10FC4000A06A884256D05649A06A884252D0554987
:10FC5000A06A88424ED05449A06A88424AD053498B
:10FC6000A06A884246D05249A06A884242D051498F
:10FC7000A06A88423ED05049A06A88423AD04F4993
:10FC8000A06A884236D04E49A06A884232D04D4997
:10FC9000A06A88422ED04C49A06A88422AD04B499B
:10FCA000A06A884226D04A49A06A884222D049499F
:10FCB000A06A88421ED04849A06A88421AD04749A3
:10FCC000A06A884216D04649A06A884212D04549A7
:10FCD000A06A88420ED04449A06A88420AD04349AB
:10FCE000A06A884206D04249A06A01E0E2E001E051
:10FCF000884200D104E040F613110FA00CF0B5FCCF
:10FD000000BF002000901C484030006840F0805048
:10FD10001949403108600846006800F080500090A2
:10FD200000BF00BF3348006840F48070314908606C
:10FD3000FFF75CFC054666E02E2E5C4C6962726142
:10FD400072795C53544D3332463478785F48414C75
:10FD50005F4472697665725C5372635C73746D3371
:10FD600032663478785F68616C5F7263635F657870
:10FD70002E630000000047420038024000030200EA
:10FD80000003030000030400000305000003060055
:10FD900000030700000308000003090000030A0035
:10FDA00000030B0000030C0000030D0000030E0015
:10FDB00000030F00000310000003110000031200F5
:10FDC00000031300000314000003150000031600D5
:10FDD00000031700000318000003190000031A00B5
:10FDE00000031B0000031C0000031D0000031E0095
:10FDF00000031F0000700040FFF7F8FB401B0228C3
:10FE000001D90320CFE53148006800F48070002854
:10FE1000F2D02F48006800F4407636B3208D00F40D
:10FE20004070B04221D02A48006820F4407601207A
:10FE3000284908600020086025480660006800F036
:10FE4000010090B1FFF7D2FB054608E0FFF7CEFBBB
:10FE5000401B41F28831884201D90320A3E51C48A8
:10FE60000068C0F340000028F0D000BF208D00F4EF
:10FE70004070B0F5407F0CD115486838006820F418
:10FE8000F810154AA16A1140084311496839086001
:10FE900007E00F486838006820F4F8100C4968390A
:10FEA00008600B480068218DC1F30B010843084925
:10FEB000086000BF207800F01000102803D194F8EB
:10FEC0002C000649086000206DE50000007000402D
:10FED00070380240400E4742FFFCFF0FE0114742DE
:10FEE00070B504460D460CB9012070BD206801288C
:10FEF00003D320680F2800D804E04FF410719DA0B0
:10FF00000CF0B3FBEDB1012D1BD0022D19D0032D48
:10FF100017D0042D15D0052D13D0062D11D0072D87
:10FF20000FD0082D0DD0092D0BD00A2D09D00B2D87
:10FF300007D00C2D05D00D2D03D00E2D01D00F2D87
:10FF400000D104E040F241218AA00CF08EFB9748DA
:10FF5000006800F00F00A84209D294490D700846CD
:10FF6000006800F00F00A84201D00120BDE7207812
:10FF700000F0020002283DD1207800F0040004289F
:10FF800005D18B48006840F4E0508949086020782A
:10FF900000F00800082805D18548006840F460405A
:10FFA00083490860A068B8B1A068802814D0A06810
:10FFB000902811D0A068A0280ED0A068B0280BD03F
:10FFC000A068C02808D0A068D02805D0A068E02884
:10FFD00002D0A068F02800D104E04FF4197165A0A8
:10FFE0000CF043FB7248006820F0F000A168084361
:10FFF0006F490860207800F0010000284ED060684A
:020000040801F1
:1000000040B16068012805D06068022802D06068AD
:10001000032800D104E040F26B2156A00CF025FB30
:100020006068012807D1624808380068C0F3404082
:10003000B8B9012059E76068022802D06068032837
:1000400007D15B4808380068C0F3406048B9012018
:100050004BE7574808380068C0F3400008B9012052
:1000600043E75348006820F00300616808435049A3
:100070000860FFF7BBFA064608E0FFF7B7FA801BF7
:1000800041F28831884201D903202EE748480068B0
:1000900000F00C006168B0EB810FEED143480068BE
:1000A00000F00F00A84209D940490D7008460068C9
:1000B00000F00F00A84201D0012016E7207800F0E0
:1000C000040004281FD1E06878B1E068B0F5805FD3
:1000D0000BD0E068B0F5A05F07D0E068B0F5C05F76
:1000E00003D0E068B0F5E05F00D104E040F2A92160
:1000F00020A00CF0BAFA2E48006820F4E050E16825
:1001000008432B490860207800F00800082820D117
:10011000206978B12069B0F5805F0BD02069B0F517
:10012000A05F07D02069B0F5C05F03D02069B0F5AB
:10013000E05F00D104E04FF42C710EA00CF095FAB2
:100140001B48006820F46040216940EAC10018495A
:10015000086000F059F816490968C1F30311154AFF
:10016000515CC840144908600F20FFF76FFA002067
:10017000BBE600002E2E5C4C6962726172795C53A2
:10018000544D3332463478785F48414C5F4472694D
:100190007665725C5372635C73746D333266347867
:1001A000785F68616C5F7263632E6300003C02409D
:1001B000083802407AD80108000000200148006891
:1001C000704700000000002000B5FFF7F7FF04496A
:1001D0000968C1F38221034A515CC84000BD000098
:1001E000083802408AD8010800B5FFF7E7FF044944
:1001F0000968C1F34231034A515CC84000BD0000A8
:10020000083802408AD801082DE9F047002400256B
:100210000026A1462548006800F00C0020B1042803
:1002200005D008283AD105E0DFF8849039E0DFF8FE
:10023000849036E01D48001F006800F03F041B4812
:10024000001F006800F4800078B11A481749091FA0
:100250000968C1F38811A0FB017001462246002302
:100260003846FCF761F805460EE011480F49091FB2
:100270000968C1F38811A0FB0170014622460023E2
:100280003846FCF751F805460848001F0068C0F3DF
:100290000140401C4600B5FBF6F902E0DFF8109083
:1002A00000BF00BF4846BDE8F087000008380240A4
:1002B0000024F40000127A00F8B504460CB90120BD
:1002C000F8BD20680F2800D803E0E821FBA00CF05F
:1002D000CCF9207800F00100002870D0606838B1B7
:1002E0006068B0F5803F03D06068B0F5A02F00D102
:1002F00003E0ED21F1A00CF0B8F9FE48006800F031
:100300000C0004280DD0FB48006800F00C00082801
:1003100013D1F848001F006800F48000B0F5800F8A
:100320000BD1F44808380068C0F34040002859D089
:100330006068002856D10120C2E700BF6068B0F5B0
:10034000803F08D1EB480838006840F48030E94924
:10035000083908601EE06068B0F5A02F0DD1E548AF
:100360000838006840F48020E249083908600846EF
:10037000006840F4803008600CE0DE48083800680F
:1003800020F48030DB49083908600846006820F412
:100390008020086000BF606890B1FFF727F905462C
:1003A00006E0FFF723F9401B642801D9032087E703
:1003B000D04808380068C0F340400028F1D011E070
:1003C000FFF714F9054606E0FFF710F9401B642813
:1003D00001D9032074E7C74808380068C0F34040DB
:1003E0000028F1D1207800F00200022873D1E068E3
:1003F00010B1E068012800D104E040F21F11AFA065
:100400000CF033F920691F2800D804E04FF49071F4
:10041000AAA00CF02AF9B748006800F00C0058B107
:10042000B448006800F00C0008281CD1B148001F37
:10043000006800F48000B0B9AE4808380068C0F326
:10044000400020B1E068012801D0012038E7A94828
:100450000838006820F0F800216940EAC100A54989
:100460000839086037E0E06800B30120A24908605D
:10047000FFF7BCF8054606E0FFF7B8F8401B022876
:1004800001D903201CE79B4808380068C0F34000EE
:100490000028F1D097480838006820F0F80021695A
:1004A00040EAC10093490839086014E000209249ED
:1004B0000860FFF79BF8054606E0FFF797F8401B3A
:1004C000022801D90320FBE68A4808380068C0F3F7
:1004D00040000028F1D1207800F00800082837D12A
:1004E000606910B16069012800D104E04FF4B07177
:1004F00072A00CF0BAF86069A8B101207F490860C9
:10050000FFF774F8054606E0FFF770F8401B022875
:1005100001D90320D4E677486C300068C0F340006E
:100520000028F1D014E0002074490860FFF75EF85D
:10053000054606E0FFF75AF8401B022801D90320C0
:10054000BEE66C486C300068C0F340000028F1D172
:10055000207800F00400042875D10026A06828B196
:10056000A068012802D0A068052800D104E04FF45B
:10057000C67152A00CF079F85E483830006800F07F
:10058000805090B900BF002000905A483830006871
:1005900040F080505749383108600846006800F044
:1005A0008050009000BF00BF01265548006800F44D
:1005B0008070B0B95248006840F4807050490860BB
:1005C000FFF714F8054606E0FFF710F8401B022875
:1005D00001D9032074E64A48006800F480700028BE
:1005E000F2D000BFA068012808D1424868300068F6
:1005F00040F001003F49683108601DE0A06805280F
:100600000DD13C486830006840F004003949683139
:1006100008600846006840F0010008600CE03548BA
:100620006830006820F001003249683108600846EF
:10063000006820F00400086000BFA068A8B1FEF7C1
:10064000D5FF054609E02FE0FEF7D0FF401B41F241
:100650008831884201D9032032E626486830006894
:10066000C0F340000028EFD013E0FEF7BFFF0546BF
:1006700008E0FEF7BBFF401B41F28831884201D9F8
:1006800003201DE61B4868300068C0F340000028C6
:10069000EFD1012E07D117483830006820F0805084
:1006A00014493831086000BFA06928B1A069012849
:1006B00002D0A069022825D12AE000002E2E5C4C31
:1006C0006962726172795C53544D33324634787882
:1006D0005F48414C5F4472697665725C5372635C3B
:1006E00073746D3332663478785F68616C5F7263FF
:1006F000632E63000838024000004742800E4742E4
:100700000070004040F2CF11AFF250000BF0ADFF8F
:10071000A06900287CD05448006800F00C0008282C
:1007200077D0A069022875D1E06918B1E069B0F509
:10073000800F00D105E04FF4EC71AFF280000BF0B8
:1007400094FF206A3F2800D805E040F2D911AFF2AB
:1007500094000BF08AFF606A322804D3606AB0F517
:10076000D87F00D805E04FF4ED71AFF2B0000BF088
:100770007CFFA06A022808D0A06A042805D0A06ADD
:10078000062802D0A06A082800D105E040F2DB115B
:10079000AFF2D8000BF069FFE06A022803D3E06AE9
:1007A0000F2800D805E04FF4EE71AFF2F0000BF027
:1007B0005CFF00202D490866FEF718FF054606E09D
:1007C000FEF714FF401B022801D9032078E52648D4
:1007D00008380068C0F340600028F1D1D4E907016F
:1007E0000843616A40EA81110122A06AC2EB50000D
:1007F00041EA00412C20005D41EA00601A49091FCE
:100800000860012019490866FEF7F0FE054609E078
:1008100028E025E00EE0FEF7E9FE401B022801D9A2
:1008200003204DE5104808380068C0F340600028F8
:10083000F1D017E000200D490866FEF7D7FE054607
:1008400006E0FEF7D3FE401B022801D9032037E55E
:10085000054808380068C0F340600028F1D101E085
:1008600001202DE500202BE508380240000047421A
:100870007047000070B505460C4600262CB3012CCD
:1008800023D0022C21D0032C1FD0042C1DD0052CEA
:100890001BD0062C19D0072C17D0082C15D0092CEA
:1008A00013D00A2C11D00B2C0FD00C2C0DD00D2CEA
:1008B0000BD00E2C09D00F2C07D0102C05D0112CEA
:1008C00003D0122C01D0132C00D104E040F27F4160
:1008D00004A00BF0CAFE286800F1500606EB84065F
:1008E000306870BD2E2E5C4C6962726172795C5307
:1008F000544D3332463478785F48414C5F447269D6
:100900007665725C5372635C73746D3332663478EF
:10091000785F68616C5F7274635F65782E63000056
:100920002DE9F04105460C46164600272CB3012C54
:1009300023D0022C21D0032C1FD0042C1DD0052C39
:100940001BD0062C19D0072C17D0082C15D0092C39
:1009500013D00A2C11D00B2C0FD00C2C0DD00D2C39
:100960000BD00E2C09D00F2C07D0102C05D0112C39
:1009700003D0122C01D0132C00D104E04FF48D6170
:1009800005A00BF072FE286800F1500707EB840702
:100990003E60BDE8F08100002E2E5C4C6962726101
:1009A00072795C53544D3332463478785F48414C09
:1009B0005F4472697665725C5372635C73746D3305
:1009C00032663478785F68616C5F7274635F6578F3
:1009D0002E630000F8B504460E4615464DB1012DB4
:1009E00007D0022D05D0032D03D0042D01D0062DF4
:1009F00000D104E040F24B3153A00BF036FEB6F5C7
:100A0000803F00D204E04FF453714FA00BF02DFE55
:100A100000BF207F012801D10220F8BD01202077EE
:100A200000BF0220607700BFCA20216848625320BF
:100A30002168486200BF2068806800F4806000B3CD
:100A40005048006840094FF47A71B0FBF1F0484318
:100A5000009000BF0098411E009160B900BFFF20C8
:100A60002168486200BF0320607700BF0020207724
:100A700000BF0320D1E72068C068C0F380000028D1
:100A8000E8D12068806820F48060216888603D4853
:100A9000006840094FF47A71B0FBF1F048430090D0
:100AA00000BF0098411E009160B900BFFF2021687F
:100AB000486200BF0320607700BF0020207700BF9E
:100AC0000320AAE72068C068C0F380000028E8D0AF
:100AD000206846612068806820F0070021688860EF
:100AE000206880682843216888602748006840F4AF
:100AF00080002549086024480830006840F48000E0
:100B00002149083108602068C06800F0800060F466
:100B100090602168C8602068806840F48040216847
:100B200088602068806840F480602168886000BF29
:100B3000FF202168486200BF0120607700BF0020CD
:100B4000207700BF00BF68E72E2E5C4C696272619F
:100B500072795C53544D3332463478785F48414C57
:100B60005F4472697665725C5372635C73746D3353
:100B700032663478785F68616C5F7274635F657841
:100B80002E63000000000020003C01407047000080
:100B900010B504462068C068C0F3802078B1206892
:100BA000806800F4804050B12046FFF7EFFF2068D6
:100BB000C06800F0800060F490602168C8604FF465
:100BC0008000024908600120607710BD143C01409C
:100BD0007047000010B504462068C068C0F30020CC
:100BE00078B12068806800F4805050B12046FFF74B
:100BF000EFFF2068C06800F0800060F4C0702168DA
:100C0000C8602068C068C0F3402078B12068806860
:100C100000F4005050B12046FFF72AFE2068C0685B
:100C200000F0800060F420702168C8604FF400304C
:100C3000024908600120607710BD0000143C0140AB
:100C400010B504460CB9012010BD6068402801D0E1
:100C5000606800B903E0F82150A00BF006FDA06821
:100C60007F2800D803E0F9214CA00BF0FEFCE068DF
:100C7000B0F5004F00D203E0FA2148A00BF0F5FCDC
:100C8000206958B12069B0F5001F07D02069B0F580
:100C9000800F03D02069B0F5C00F00D103E0FB2125
:100CA0003EA00BF0E2FC606918B16069B0F5801FEE
:100CB00000D103E0FC2139A00BF0D7FCA06918B1EA
:100CC000A069B0F5802F00D103E0FD2133A00BF027
:100CD000CCFC607F20B900202077204600F07CF813
:100CE0000220607700BFCA20216848625320216833
:100CF000486200BF204608F019FC40B100BFFF2049
:100D00002168486200BF0420607701209CE72068CA
:100D1000806830490840216888602169606808431C
:100D200061690843216889680843216888602168EF
:100D3000E068086120680169208941EA0040216873
:100D400008612068C06820F080002168C8602068C1
:100D5000806800F0200060B9204600F0BFFA40B182
:100D600000BFFF202168486200BF04206077012097
:100D70006AE72068006C20F48020216808642068FD
:100D8000006CA16908432168086400BFFF20216846
:100D9000486200BF01206077002055E72E2E5C4C92
:100DA0006962726172795C53544D3332463478789B
:100DB0005F48414C5F4472697665725C5372635C54
:100DC00073746D3332663478785F68616C5F727407
:100DD000632E6300BFFF8FFF10B59AB0044615491C
:100DE0002068884224D100BF00200190124800688A
:100DF00040F08050104908600846006800F08050BC
:100E0000019000BF00BFFEF795FD04200E9000206A
:100E10001490012010900EA8FFF74EFA20200290A7
:100E2000C0000C9002A8FEF78BFD0120034908606A
:100E30001AB010BD00280040403802403C0E474226
:100E40002DE9F04105460C46164600270EB1012E4D
:100E500000D104E040F283316FA00BF006FC00BF2C
:100E6000287F012802D10220BDE8F08101202877E7
:100E700000BF022068774EB9607800F0100010289B
:100E800004D1607800F0EF000A306070207801280B
:100E900011D0207802280ED0207803280BD020789B
:100EA000042808D02078052805D02078062802D00C
:100EB0002078072800D104E040F28F3156A00BF0D3
:100EC000D4FB002E2FD1E078632800D804E040F254
:100ED000933151A00BF0C9FB607818B160780C28F1
:100EE00000D804E04FF465714BA00BF0BEFBA07876
:100EF00018B1A0781F2800D804E040F2953146A030
:100F00000BF0B3FBE07808F004FB0304607808F012
:100F100000FB43EA0023A07808F0FBFA03432078A3
:100F200043EA403732E0E07808F0E8FA632800D876
:100F300004E040F29E3138A00BF097FB607808F097
:100F4000DDFA28B1607808F0D9FA0C2800D804E05E
:100F500040F29F3130A00BF088FBA07808F0CEFA69
:100F600028B1A07808F0CAFA1F2800D804E04FF48E
:100F7000687129A00BF079FBE0780004617840EA01
:100F80000120A1780843217840EA413700BFCA20F8
:100F90002968486253202968486200BF284608F043
:100FA000C5FA60B100BFFF202968486200BF042075
:100FB000687700BF0020287700BF012054E724484D
:100FC0003840296848602868C06820F08000296897
:100FD000C8602868806800F0200080B9284600F0CA
:100FE0007DF960B100BFFF202968486200BF04207E
:100FF000687700BF0020287700BF012034E700BFDA
:10100000FF202968486200BF0120687700BF0020E8
:10101000287700BF00BF27E72E2E5C4C6962726103
:1010200072795C53544D3332463478785F48414C82
:101030005F4472697665725C5372635C73746D337E
:1010400032663478785F68616C5F7274632E630017
:101050003FFFFF002DE9F04105460C4616460027EC
:101060000EB1012E00D104E040F2D3218CA00BF090
:10107000FCFAE068B0F5003F05D0E068B0F5803FCD
:1010800001D0E06800B904E04FF4357184A00BF0A2
:10109000ECFA206918B12069B0F5802F00D104E086
:1010A00040F2D5217EA00BF0E0FA00BF287F012896
:1010B00002D10220BDE8F0810120287700BF022084
:1010C0006877002E4AD12868806800F04000002828
:1010D00016D0207818B120780C2800D804E04FF4FE
:1010E00038716FA00BF0C1FAE07810B1E0784028B9
:1010F00000D110E040F2E12169A00BF0B6FA0AE05D
:101100000020E0702078172800D804E040F2E621A3
:1011100063A00BF0AAFA60783B2800D804E04FF4F3
:101120003A715FA00BF0A1FAA0783B2800D804E048
:1011300040F2E9215AA00BF098FA207808F0E9F97A
:101140000304607808F0E5F943EA0023A07808F08A
:10115000E0F90343E07843EA00474CE02868806800
:1011600000F04000D0B1207808F0C8F928B120780C
:1011700008F0C4F90C2800D804E04FF43D7148A0F1
:101180000BF073FAE07810B1E078402800D112E05B
:1011900040F2F52142A00BF068FA0CE00020E0706C
:1011A000207808F0ABF9172800D804E040F2FA21C3
:1011B0003BA00BF05AFA607808F0A0F93B2800D861
:1011C00004E04FF43F7136A00BF04FFAA07808F01E
:1011D00095F93B2800D804E040F2FD2130A00BF047
:1011E00044FA20780004617840EA0120A17808439D
:1011F000E17840EA014700BFCA20296848625320CD
:101200002968486200BF284608F090F960B100BF25
:10121000FF202968486200BF0420687700BF0020D3
:10122000287700BF012045E72B483840296808602F
:101230002868806820F4802029688860D4E9030148
:101240000843296889680843296888602868C06855
:1012500020F080002968C8602868806800F02000BD
:1012600080B9284600F03AF860B100BFFF20296835
:10127000486200BF0420687700BF0020287700BFC5
:10128000012017E700BFFF202968486200BF012046
:10129000687700BF0020287700BF00BF0AE7000082
:1012A0002E2E5C4C6962726172795C53544D3332FC
:1012B000463478785F48414C5F4472697665725C69
:1012C0005372635C73746D3332663478785F68612F
:1012D0006C5F7274632E63007F7F7F0070B504467D
:1012E00000252068C06820F0A0002168C860FEF7D3
:1012F0007DF9054607E0FEF779F9401BB0F57A7FE6
:1013000001D9032070BD2068C06800F020000028CB
:10131000F1D00020F6E710B50446FBF74FFC10BDF6
:1013200070B58AB004460D4600262DB1B5F5006FA4
:1013300002D0B5F5805F00D104E040F6211129A06C
:101340000BF093F9032084F83400606C032820D05C
:10135000B5F5805F04D1A06B40F08050A0631CE025
:10136000B5F5006F07D1204609F0B4F80646A06B2A
:101370003043A06311E03DB9204609F076F80646F7
:10138000A06B3043A06308E0A06B40F00060A06356
:1013900003E0A06B40F08050A063A06B40B140F22E
:1013A000FF5021688863012084F834000AB070BDC2
:1013B00060680490A0680590E068069007956069F1
:1013C0000890A069099007A807C88DE80700206861
:1013D00004A90EC908F00EFA012084F83400002098
:1013E000E4E700002E2E5C4C6962726172795C53F6
:1013F000544D3332463478785F48414C5F447269CB
:101400007665725C5372635C73746D3332663478E4
:10141000785F68616C5F73642E630000704730B55D
:1014200003460022586E020E90090870C2F3830032
:10143000487002F003008870586EC0F30742CA700B
:10144000B3F86400C0F307220A7193F864204A716C
:10145000986E020E4FF6FF7000EA0210C880986E78
:10146000C0F30742C88840EA1210C88002F00F009B
:1014700008726820C05AC0F30722D0094872C2F32C
:1014800080108872C2F34010C872C2F30010087353
:1014900000204873586C00283ED19007000D086169
:1014A0006820C25C086940EA82000861D86E020EBA
:1014B000086940EA92100861C2F3C200087502F0A0
:1014C00007004875D86EC0F3074250098875C2F30B
:1014D0008200C8759007400F08766C20C05AC0F390
:1014E0000722087E40EAD21008760869401C586539
:1014F0000C7E586DA41C0125A540684358650C7AE4
:101500000120A0409865D3E91504640A6043D865BA
:101510004FF400741C6630E0586C012821D168201B
:10152000C25C9006800A0861D86E020E086940EA23
:1015300002200861D86EC0F30742086910430861B1
:101540006C20C05AC0F307220869441C4FF4806025
:10155000A4FB00045865D8654FF400749C651C66B4
:101560000BE040F2FF501C68A063986B40F0805085
:101570009863012083F8340030BDC2F3801001F875
:10158000190F9006400E48706C20C25C487840EA03
:10159000D210487002F07F008870186F020ED009D8
:1015A000C870C2F341100871C2F3820048719007FD
:1015B000000F8871186FC0F30742887940EA9210D3
:1015C0008871C2F34010C8710020087202F0010057
:1015D00048727020C05AC0F30722D0098872C2F343
:1015E0008010C872C2F340100873C2F30010487331
:1015F000C2F38100887302F00300C8737020C25CDC
:10160000500808740120487419390020B4E7F8B56F
:10161000044604260025002000906946204608F074
:101620000BFF054615B1A06B2843A0630098C0F3DB
:1016300043263046F8BD000070B5044600252068FA
:10164000406BC0F30020002863D04FF48070216805
:1016500088632068C06B40F23A3188432168C863D0
:10166000206B00F0080048B3206B00F0020018B9AE
:10167000206B00F0200050B1206808F009FB0546FF
:101680002DB1A06B2843A0632046FFF7C7FE40F2B0
:10169000FF5021688863012084F83400206B00F03B
:1016A000010018B9206B00F0020018B1204600F0CC
:1016B0005BFABCE0204600F05CFAB8E0206B00F07A
:1016C00080000028F5D0206B00F0200050B1206889
:1016D00008F0DEFA05462DB1A06B2843A063204632
:1016E000FFF79CFE206B00F001000028E1D1206B89
:1016F00000F002000028DCD12068C06A20F0080059
:101700002168C862012084F83400204600F031FAD4
:101710008DE02068406BC0F3803038B14FF48040DA
:1017200021688863204608F00AFF80E02068406B4B
:10173000C0F3C03038B14FF40040216888632046C0
:1017400008F067FE73E02068406B40F23A210840E1
:1017500008B1012000E00020002868D02068406B1C
:10176000C0F3400018B1A06B40F00200A0632068F5
:10177000406BC0F3C00018B1A06B40F00800A0633C
:101780002068406BC0F3401018B1A06B40F02000FF
:10179000A0632068406BC0F3001018B1A06B40F04C
:1017A0001000A0632068406BC0F3402018B1A06B0C
:1017B00040F00800A06340F2FF7021688863206851
:1017C000C06B40F23A3188432168C863206B00F057
:1017D000800010B3206C50B11548216C0865206C56
:1017E000FCF740FF10B1206C08F062FC1FE0E06BDA
:1017F00050B11048E16B0865E06BFCF733FFB0B106
:10180000E06B08F02FFC12E00020A063012084F8B8
:1018100034002046FFF77FFD09E0206B00F0080050
:1018200028B1012084F834002046FFF7F7FD70BD91
:10183000B1A0010865A0010810B504460CB901204B
:1018400010BD34492068884200D104E040F25B11A9
:1018500031A00AF00AFF606818B16068B0F5005F57
:1018600000D104E04FF4AE712BA00AF0FEFEA06898
:1018700018B1A068B0F5806F00D104E040F25D11AE
:1018800025A00AF0F2FEE06818B1E068B0F5007F2C
:1018900000D104E04FF4AF711FA00AF0E6FE20690A
:1018A00038B12069B0F5006F03D02069B0F5805FD2
:1018B00000D104E040F25F1117A00AF0D6FE606983
:1018C00018B16069B0F5804F00D104E04FF4B071F9
:1018D00011A00AF0CAFEA069FF2800D804E040F277
:1018E00061110DA00AF0C1FE94F8340020B9002067
:1018F0002077204600F06EF8032084F8340020465C
:1019000000F026F80020A0632063012084F8340052
:10191000002095E7002C01402E2E5C4C696272611C
:1019200072795C53544D3332463478785F48414C79
:101930005F4472697665725C5372635C73746D3375
:1019400032663478785F68616C5F73642E63000080
:1019500030B589B00446002500200390049005901E
:10196000069007907620089006A807C88DE8070023
:10197000206803A90EC907F03DFF00201449086044
:10198000206807F0BDFF01201149A039C1F8A0006F
:101990000220FDF78DFA204608F0C4FC054645B14B
:1019A000012084F83400A06B2843A063012009B013
:1019B00030BD204608F038FC05463DB1012084F8D2
:1019C0003400A06B2843A0630120F0E70020EEE77D
:1019D000A080254210B586B0044600BF00200090CC
:1019E0005B48006840F40060594908600846006898
:1019F00000F40060009000BF00BF00BF0020009016
:101A000053481438006840F0040051491439086004
:101A10000846006800F00400009000BF00BF00BF4F
:101A2000002000900846006840F008000860084662
:101A3000006800F00800009000BF00BF4FF4F850AD
:101A400001900220029001200390032004900C20BA
:101A5000059001A93F48FDF741FB042001900220B9
:101A6000029001200390032004900C20059001A90E
:101A70003948FDF733FB002205213120FDF7ACFE8C
:101A80003120FDF775FE3548354908604FF000609C
:101A900048604021324881600021C1604FF480617C
:101AA000016189004161890081612021C161C90210
:101AB000016204214162032181624FF40001C1628D
:101AC00089100163FCF7AEFF08B1FBF7A9FB00BF6B
