:020000040800F2
:10000000A81D00204D020008D12A00082126000862
:10001000CD2A000839080008B337000800000000A6
:100020000000000000000000000000008D2C00080F
:100030007108000800000000830200088D300008ED
:10004000870200088702000887020008870200086C
:10005000870200088702000887020008870200085C
:10006000870200088702000887020008870200084C
:10007000870200088702000887020008870200083C
:10008000870200088702000887020008870200082C
:10009000870200088702000887020008870200081C
:1000A00087020008C131000887020008B13100084A
:1000B000D1310008E13100088702000887020008FA
:1000C00087020008870200088702000887020008EC
:1000D00087020008413700085137000861370008DF
:1000E00087020008870200088702000887020008CC
:1000F00087020008870200088702000887020008BC
:100100008702000887020008E9310008870200081A
:10011000F9310008870200088702000887020008FA
:10012000870200088702000887020008870200088B
:10013000870200088702000887020008870200087B
:10014000870200088702000887020008870200086B
:10015000870200088702000887020008713700083C
:10016000870200088702000887020008870200084B
:1001700087020008D32A0008870200080000000058
:10018000870200088702000887020008870200082B
:10019000870200088702000887020008870200081B
:1001A00087020008870200088702000800F002F8B2
:1001B00000F03CF80AA090E8000C82448344AAF1C5
:1001C0000107DA4501D100F031F8AFF2090EBAE8C3
:1001D0000F0013F0010F18BFFB1A43F0010318477B
:1001E000503D0000703D0000103A24BF78C878C12F
:1001F000FAD8520724BF30C830C144BF04680C602D
:10020000704700000023002400250026103A28BF74
:1002100078C1FBD8520728BF30C148BF0B60704778
:100220001FB503F087FD1FBD10B510BD00F05AF9D2
:100230001146FFF7F5FF03F057FD00F078F903B41E
:10024000FFF7F2FF03BC00F07FF900001148804780
:10025000DFF84400016841F470010160BFF34F8F83
:10026000DFF83800016821F040410160BFF36F8F73
:100270000B480047FEE7FEE7FEE7FEE7FEE7FEE786
:10028000FEE7FEE7FEE7FEE706480749074A084B98
:10029000704700004D31000888ED00E034EF00E0C9
:1002A000AD010008A80B0020A81D0020A80D00200B
:1002B000A80D002053EA020C00F069802DE9F04BF4
:1002C0004FF00006002B1FBFB3FA83F503FA05F4C5
:1002D00024FA05F65E4012BF1643B2FA82F502FA1E
:1002E00005F4C5F120051EBF22FA05FC44EA0C0402
:1002F000203556EA044C4FEA144418BF641C4FF0F2
:1003000000084FF00009904271EB030C39D300292B
:1003100019BFB1FA81F701FA07F6B0FA80F700FACF
:1003200007F6C7F120071EBF20FA07FC46EA0C06B5
:100330002037B6FBF4FCA7EB0507103F07F01F0BB7
:10034000CBF120060CFA0BFB2CFA06F644BFB346A1
:100350000026202FA4BF5E464FF0000B5BEA060C80
:1003600008BF4FF0010B19EB0B09ABFB027C48EB0C
:100370000608C01B06FB02CC0BFB03CC71EB0C0187
:10038000C1E70B46024641464846BDE8F08B13B52F
:100390004FF000004FF00001AFF30080BDE81C40BB
:1003A0007047032A40F2308010F0030C00F01580F3
:1003B00011F8013BBCF1020F624498BF11F801CB68
:1003C00000F8013B38BF11F8013BA2F1040298BFCD
:1003D00000F801CB38BF00F8013B11F0030300F037
:1003E0002580083AC0F0088051F8043B083A51F8DB
:1003F00004CBA0E80810F5E7121D5CBF51F8043BE0
:1004000040F8043BAFF30080D20724BF11F8013B52
:1004100011F801CB48BF11F8012B24BF00F8013BB4
:1004200000F801CB48BF00F8012B704710B5203A07
:10043000C0F00B80B1E81850203AA0E81850B1E89D
:100440001850A0E81850BFF4F5AF5FEA027C24BF53
:10045000B1E81850A0E8185044BF18C918C0BDE84A
:1004600010405FEA827C24BF51F8043B40F8043B13
:1004700008BF7047D20728BF31F8023B48BF11F8C8
:10048000012B28BF20F8023B48BF00F8012B704722
:100490004FF0000200B5134694469646203922BF1D
:1004A000A0E80C50A0E80C50B1F12001BFF4F7AF68
:1004B000090728BFA0E80C5048BF0CC05DF804EB4A
:1004C000890028BF40F8042B08BF704748BF20F8B8
:1004D000022B11F0804F18BF00F8012B70477047B6
:1004E00070477047754600F02BF8AE460500694628
:1004F000534620F00700854618B020B5FFF7C4FE2C
:10050000BDE820404FF000064FF000074FF0000814
:100510004FF0000B21F00701AC46ACE8C009ACE895
:10052000C009ACE8C009ACE8C0098D46704710B5F9
:100530000446AFF300802046BDE81040FFF77FBEC1
:1005400000487047440B002001491820ABBEFEE76D
:10055000260002007047704710B507480078012850
:1005600004D10421054801F007F804E00022042129
:10057000024801F00AF810BD1C00002000100240E3
:1005800000B5034603E04FF47A7000F006F8181E39
:10059000A3F101018BB2F6D100BDA0E000BF00BF06
:1005A00000BF00BF00BF00BF00BF00BF00BF00BF53
:1005B00000BF00BF00BF00BF00BF00BF00BF00BF43
:1005C00000BF00BF00BF00BF00BF00BF00BF00BF33
:1005D00000BF00BF00BF00BF00BF00BF00BF00BF23
:1005E00000BF00BF00BF00BF00BF00BF00BF00BF13
:1005F00000BF00BF00BF00BF00BF00BF00BF00BF03
:1006000000BF00BF00BF00BF00BF00BF00BF00BFF2
:1006100000BF00BF00BF00BF00BF00BF00BF00BFE2
:1006200000BF00BF00BF00BF00BF00BF00BF00BFD2
:1006300000BF00BF00BF00BF00BF00BF00BF00BFC2
:1006400000BF00BF00BF00BF00BF00BF00BF00BFB2
:1006500000BF00BF00BF00BF00BF00BF00BF00BFA2
:1006600000BF00BF00BF00BF00BF00BF00BF00BF92
:1006700000BF00BF00BF00BF00BF00BF00BF00BF82
:1006800000BF00BF00BF00BF00BF00BF00BF00BF72
:1006900000BF00BF00BF00BF00BF00BF00BF00BF62
:1006A00000BF00BF00BF00BF00BF00BF00BF00BF52
:1006B00000BF00BF00BF00BF00BF00BF00BF00BF42
:1006C00000BF00BF00BF00BF00BF00BF00BF00BF32
:1006D00000BF00BF00BF00BF00BF00BF00BF011EC2
:1006E000A0F1010290B27FF459AF70472DE9F041BB
:1006F00005460F4690462C4800EB85142B4800EB2E
:10070000C506052D10D2DFE805F00306090C100020
:10071000274820600CE02748206009E02648206038
:1007200006E02648206003E000BF2548206000BFA7
:1007300000BF3770C6F804800C2161610021A161FF
:100740004FF40041E16170686060307830B1012899
:1007500009D0022810D0032817D117E00021A1608A
:10076000E16021611AE04FF48051A1600021E16055
:100770004FF4C061216111E04FF48051A16000216C
:10078000E1604FF48061216108E000BF0021A160B9
:100790004FF40051E1600021216100BF00BF2046FD
:1007A00001F0D4FCBDE8F081BC090020FC0A002067
:1007B000001001400044004000480040004C004050
:1007C0000014014010B51B480068006900F00100EA
:1007D00060B118480068C06800F0010030B16FF0E7
:1007E0000100144909680861FFF7B6FE6FF00200C6
:1007F0001049096808616FF004000E490968086132
:100800006FF008000B49096808616FF01000094992
:10081000096808616FF020000649096808616FF0F7
:1008200040000449096808616FF0800001490968C7
:10083000086110BDFC08002000BFFEE7F0B50546CA
:100840000E460024AF1905E015F8011BA0B202F016
:1008500097FF0446BD42F7D3A0B2002102F090FFFB
:1008600004462046002102F08BFF04462046F0BDDE
:100870007047704710B5002201B909E0012901D184
:100880000A0205E0022901D10A0201E04FF4407298
:100890000B2800D9001D0E4B1B6823F440730C4C31
:1008A000236023461B681343236023461B6823F001
:1008B000F803236023461B68022444EAC004234350
:1008C000034C236023461B6843F48033236010BD30
:1008D000103C02401C48006800F40070B0B11A4897
:1008E000006820F400701849086000BF08460068DE
:1008F00040F4006008600846006820F4006008606A
:1009000000BF0846006840F4007008600E480068A8
:1009100000F48060B0B10C48006820F480600A499F
:10092000086000BF0846006840F480500860084630
:10093000006820F48050086000BF0846006840F45A
:100940008060086070470000003C02402DE9F041E3
:1009500086B006460C46032503274FF000083046B4
:1009600000F082FA0546204600F07EFA0746781B22
:1009700000F10108002001900395CDF810800220BD
:100980000590694601A800F0A1FB18B1012006B04E
:10099000BDE8F0810020FAE710B588B0002401A876
:1009A00000F0ECFB40F6F870039920EA010414B162
:1009B000022008B010BD0020FBE7000010B500F0D9
:1009C000B3FCF3200149086010BD00000C3C02405C
:1009D0002DE9F04104460E461746002500BF15E0FC
:1009E00056F825C0624600232146022000F050FC44
:1009F00048B956F825102068884202D00220BDE888
:100A0000F081241D01E00320F9E76D1CBD4202D2F4
:100A100002488442E4D90020F1E70000FBFF1F08F0
:100A200070B58EB0044600250026684600F0A6FB8F
:100A30000CB9012000E00020089001200790AA20B6
:100A40000B909DF818008DF8340040F6F87102986C
:100A500040EA010500F006FC099507A800F0A0FB9C
:100A6000064616B900200EB070BD0420FBE700005A
:100A7000134A126822F44072114B1A60032906D1FE
:100A80001A461268DB131A430D4B1A600EE0012957
:100A900006D10B4A126842F00402094B1A6005E0C5
:100AA000074A126842F40042054B1A60044A126871
:100AB0004FF4803343EA00231A43014B1A60704716
:100AC000103C024001460648007820F00C00044A21
:100AD0001070104600780843107000207047000026
:100AE000143C024070B504460D4600264CF25030CE
:100AF00000F088F90646C6BB1D48844203D1012D8B
:100B000004D0032D02D0B4F5805F11D2184884427E
:100B100007D118480088C4F30F31084315490880ED
:100B20000FE014480088A1B208431249088008E089
:100B30001048001D0088C4F30F3108430D49091DFA
:100B400008800B48844210D1032D0ED14CF2503056
:100B500000F058F9064646B90648001D0088C4F35F
:100B60000F3108430349091D0880304670BD00005D
:100B700000F0FF00163C024070B504460D4600260A
:100B80004CF2503000F03EF90646A6BB1B488442AA
:100B900003D1012D04D0032D02D0B4F5805F0FD214
:100BA0001648844206D11648008820EA14301449B9
:100BB00008800DE012480088A0431149088007E032
:100BC0000F48001D008820EA14300D49091D0880D7
:100BD0000A4884420FD1032D0DD14CF2503000F061
:100BE00011F906463EB90648001D008820EA143077
:100BF0000349091D0880304670BD000000F0FF0069
:100C0000163C02400248007800F00C0070470000DB
:100C1000143C0240AA2007490978CC2901D1CC20F4
:100C200006E004490978AA2901D1AA2000E055204C
:100C300070470000153C02400248006800F0E000E8
:100C400070470000143C02400148008870470000D3
:100C5000163C024070B5044600254CF2503000F0BE
:100C6000D1F805460DB902480470284670BD000051
:100C7000153C02402DE9F04104460D4616464FF062
:100C8000FF0800274CF2503000F0BCF807464FB97F
:100C90000648007800F01F0845EA0800304320436A
:100CA000024908703846BDE8F0810000143C02405B
:100CB000074A126822F44072054B1A601A461268FD
:100CC0001A601A46126842F001021A6001707047F9
:100CD000103C024010B50949096821F44071074CE5
:100CE00021602146096841F440712160214609686C
:100CF00041F0010121600260436010BD103C0240E0
:100D0000084A126822F44072064B1A601A461268AA
:100D100042F480721A601A46126842F001021A60A8
:100D200001807047103C0240084A126822F4407269
:100D3000064B1A601A46126842F400721A601A468C
:100D4000126842F001021A6001607047103C0240D4
:100D50002A48006800F0100040B12948C06940F0FE
:100D600010002749C8611020244908602348006802
:100D700000F0200040B12248C06940F0080020493E
:100D8000C86120201D4908601C48006800F0400030
:100D900040B11B48C06940F004001949C8614020B7
:100DA000164908601548006800F0800040B11448FA
:100DB000C06940F002001249C86180200F490860F4
:100DC0000E48006800F4807048B10D48C06940F0DA
:100DD00001000B49C8614FF480700849086007485A
:100DE000006800F0020040B10548C06940F02000F2
:100DF0000349C86102200149086070470C3C024069
:100E0000240B002070B50446002500201449C86159
:100E100000F0C2FB054609E0601C38B124B100F0C7
:100E2000BBFB401BA04201D9032070BD0D480068E8
:100E300000F480300028EFD10A48006800F001007B
:100E400010B10120074908600648006800F4F970F5
:100E500018B1FFF77DFF0120E7E70020E5E700007C
:100E6000240B00200C3C0240014600205C4A9142C9
:100E700003D2B1F1006F00D3B0E05A4A914204D2DC
:100E8000574A914201D30120A8E0574A914204D227
:100E9000544A914201D30220A0E0544A914204D224
:100EA000514A914201D3032098E0514A914204D221
:100EB0004E4A914201D3042090E04E4A914204D21E
:100EC0004B4A914201D3052088E04B4A914204D21B
:100ED000484A914201D3062080E0484A914204D218
:100EE000454A914201D3072078E0454A914204D215
:100EF000424A914201D3082070E0424A914204D212
:100F00003F4A914201D3092068E03F4A914204D20E
:100F10003C4A914201D30A2060E0B1F1016F04D252
:100F2000394A914201D30B2058E0384A914204D209
:100F3000B1F1016F01D30C2050E0354A914204D247
:100F4000324A914201D30D2048E0324A914204D204
:100F50002F4A914201D30E2040E02F4A914204D201
:100F60002C4A914201D30F2038E02C4A914204D2FE
:100F7000294A914201D3102030E0294A914204D2FB
:100F8000264A914201D3112028E0264A914204D2F8
:100F9000234A914201D3122020E0234A914204D2F5
:100FA000204A914201D3132018E0204A914204D2F2
:100FB0001D4A914201D3142010E01D4A914204D2EF
:100FC0001A4A914201D3152008E01A4A914204D2EC
:100FD000174A914201D3162000E017207047000005
:100FE000004000080080000800C000080000010860
:100FF00000000208000004080000060800000808BD
:1010000000000A0800000C0800000E08004010084C
:101010000080100800C0100800001108000012082D
:1010200000001408000016080000180800001A0844
:1010300000001C0800001E08014691F83500022837
:1010400003D08020486501207047052081F83500D5
:101050000868006820F001000A6810600020F3E7CB
:1010600010B54FF0FF300E49086000200860401EA8
:10107000091D086000200860401E094910390860F9
:1010800000200860401E091D086000200860401E06
:10109000091D08600020086000F0D4FA002010BD8F
:1010A0002038024070B5044600F076FA0646254620
:1010B000681C10B104480078054400BF00F06CFAC9
:1010C000801BA842FAD370BD2C0000202DE9F0410E
:1010D00004460E460127002500BF2648007E012851
:1010E00002D10220BDE8F08101202249087600BF2C
:1010F0004CF25030FFF786FE0746002F32D1401EDB
:1011000030602068012810D1207C6168FFF7B0FCB6
:101110004CF25030FFF776FE07461748006848F259
:1011200004018843144908601AE0A56812E0217C94
:101130002846FFF79FFB4CF25030FFF763FE07464F
:101140000D48006820F0FA000B4908600FB13560C7
:1011500005E06D1CD4E902100844A842E7D800BF9E
:10116000FFF7B8FB00BF00200249087600BF3846F1
:10117000B8E70000240B0020103C024010B50446E4
:101180000F202060FFF760FDA060FFF743FD2061A6
:10119000FFF752FD2076FFF735FD606110BD0000BE
:1011A00070B50446012500BF2148007E012801D109
:1011B000022070BD01201E49087600BF207800F093
:1011C000010068B16068012805D1D4E90201FFF788
:1011D000D3FC054604E0D4E90201FFF783FC054691
:1011E000207800F00200022803D1207CFFF732FDB6
:1011F0000546207800F00400042809D1237E03F07E
:10120000800203F0400103F02000FFF733FD0546A4
:10121000207800F00800082803D1207DFFF752FC59
:10122000054600BF00200249087600BF2846C0E7F7
:10123000240B00200348006840F00040014908608A
:1012400000207047103C024010B50548007840F07F
:101250000200034908704CF25030FFF7D3FD10BD77
:10126000143C02400748006800F0010030B1064815
:1012700004490C3908600548086001E00120704706
:101280000020FCE7143C02403B2A19087F6E5D4CAD
:101290002DE9F04106460F4614461D464FF0010861
:1012A00000BF1F48007E012802D10220BDE8F08166
:1012B00001201B49087600BF4CF25030FFF7A2FD19
:1012C0008046B8F1000F23D126B9E1B23846FFF7C6
:1012D000EFFC12E0012E04D1A1B23846FFF710FD59
:1012E0000BE0022E04D121463846FFF71DFD04E035
:1012F00022462B463846FFF7EDFC4CF25030FFF704
:1013000081FD80460748006820F00100054908601B
:1013100000BF00200249087600BF4046C6E7000033
:10132000240B0020103C024000200949096801F00C
:10133000004159B10749064A0C3A1160064911604B
:101340000349096801F0004101B101207047000024
:10135000103C024023016745AB89EFCDF8B502464A
:101360000B460025002400200021E6E0012606FAB5
:1013700001F51E6806EA0504AC4273D15E68022ED0
:1013800002D05E68122E13D1CF0802F1200656F863
:1013900027004E07F70E0F26BE40B0434F07FF0E43
:1013A0001E69BE403043CF0802F1200646F82700F0
:1013B00010684F000326BE40B0431E7906F00306B6
:1013C0004F00BE40304310605E68012E08D05E685A
:1013D000022E05D05E68112E02D05E68122E13D147
:1013E00090684F000326BE40B0434F00DE68BE4009
:1013F00030439060506801268E40B0431E79C6F39A
:1014000000168E4030435060D0684F000326BE4027
:10141000B0434F009E68BE403043D0605E6806F027
:101420008056B6F1805FA8D100BF00260096454ED9
:10143000366846F48046434F3E603E46366806F4C2
:101440008046009600BF00BF3F4E8F0856F8270029
:101450008E07370F0F26BE40B0433C4EB24202D13A
:1014600000262EE068E03A4EB24201D1012628E083
:10147000384EB24201D1022623E0374EB24201D1AA
:1014800003261EE0354EB24201D1042619E0344E47
:10149000B24201D1052614E0324EB24201D10626F5
:1014A0000FE0314EB24201D107260AE02F4EB24280
:1014B00001D1082605E02E4EB24201D1092600E0F6
:1014C0000A268F073F0FBE4030431F4E8F0846F855
:1014D0002700284E3068A0435E6806F48036B6F5D3
:1014E000803F00D12043234E3060361D3068A0433A
:1014F0005E6806F40036B6F5003F00D120431D4E6D
:10150000361D3060361D3068A0435E6806F48016D4
:10151000B6F5801F00D12043164E08363060361DC8
:101520003068A0435E6806F40016B6F5001F00D1CF
:101530002043104E0C363060491C1029FFF416AFC2
:10154000F8BD000044380240083801400000024065
:101550000004024000080240000C0240001002405B
:101560000014024000180240001C0240002002400B
:1015700000240240003C014042690A408A4202D1F4
:101580000A04826100E0816170470AB1816101E073
:101590000B04836170470000014800687047000039
:1015A00024000020034800680349097808440149E1
:1015B00008607047240000202C00002010B50D4862
:1015C000006840F400700B4908600846006840F469
:1015D000806008600846006840F48070086003205E
:1015E00000F0A4F8002000F007F800F02DF800202B
:1015F00010BD0000003C024070B504460E48007863
:101600004FF47A71B1FBF0F00C490968B1FBF0F5C9
:10161000284600F007FC08B1012070BD102C07D24D
:1016200000222146501E00F043F80548046001E006
:101630000120F2E70020F0E72C000020300000201D
:10164000280000207047000008B500BF002000906F
:101650000E48006840F480400C4908600846006865
:1016600000F48040009000BF00BF00BF0020009049
:10167000081F006840F08050091F08600846006895
:1016800000F08050009000BF00BF08BD4438024009
:1016900001460846002809DB00F01F0301229A409A
:1016A00043099B0003F1E023C3F8002100BF70470A
:1016B0002DE9F05F80460D461646002702F0F8FA45
:1016C000074639462A46334601F00700C0F1070AAB
:1016D000BAF1040F02D94FF0040A01E0C0F1070A81
:1016E000D14600F1040ABAF1070F02D24FF0000A06
:1016F00001E0A0F1030AD4464FF0010A0AFA09FA00
:10170000AAF1010A0AEA020A0AFA0CFA4FF0010BDE
:101710000BFA0CFBABF1010B0BEA030B4AEA0B04CF
:101720002146404602F0CCFABDE8F09F00BF00F031
:101730000702064B19684FF6FF031940044B0B4391
:1017400043EA0221014B196000BF70470CED00E035
:101750000000FA05012001490862704700000E42AE
:1017600070B504460D460CB9012070BD584800689C
:1017700000F00F00A84209D255490D7008460068D4
:1017800000F00F00A84201D00120EEE7207800F021
:10179000020002281DD1207800F00400042805D1A1
:1017A0004C48006840F4E0504A490860207800F056
:1017B0000800082805D14748006840F460404549C2
:1017C00008604448006820F0F000A16808434149DF
:1017D0000860207800F00100A8B36068012807D1F4
:1017E0003C4808380068C0F34040B8B90120BCE765
:1017F0006068022802D06068032807D1354808389D
:101800000068C0F3406048B90120AEE731480838AD
:101810000068C0F3400008B90120A6E72D48006821
:1018200020F00300616808432A490860FFF7B4FE0E
:10183000064609E0FFF7B0FE801B41F2883188427E
:1018400002D9032091E707E02248006800F00C006D
:101850006168B0EB810FEDD11D48006800F00F000A
:10186000A84209D91A490D700846006800F00F0017
:10187000A84201D0012078E7207800F00400042875
:1018800007D11448006820F4E050E168084311498A
:101890000860207800F00800082808D10D4800688A
:1018A00020F46040216940EAC1000A49086000F064
:1018B0003DF808490968C1F30311074A515CC84063
:1018C000064908600020FFF797FE00204DE7000062
:1018D000003C0240083802403E3D00083000002035
:1018E00001480068704700003000002000B5FFF795
:1018F000F7FF04490968C1F38221034A515CC840DB
:1019000000BD0000083802404E3D000800B5FFF75A
:10191000E7FF04490968C1F34231034A515CC840FA
:1019200000BD0000083802404E3D00082DE9F04798
:10193000002400250026A1462548006800F00C0080
:1019400020B1042805D008283AD105E0DFF88490BA
:1019500039E0DFF8849036E01D48001F006800F091
:101960003F041B48001F006800F4800078B11A484B
:101970001749091F0968C1F38811A0FB01700146CE
:10198000224600233846FEF795FC05460EE0114836
:101990000F49091F0968C1F38811A0FB01700146B6
:1019A000224600233846FEF785FC05460848001FFE
:1019B0000068C0F30140401C4600B5FBF6F902E0A8
:1019C000DFF8109000BF00BF4846BDE8F087000078
:1019D000083802400024F40000127A00F8B50446EA
:1019E0000CB90120F8BD207800F00100002874D067
:1019F000F948006800F00C0004280DD0F648006893
:101A000000F00C00082813D1F348001F006800F410
:101A10008000B0F5800F0BD1EF4808380068C0F3A4
:101A20004040002859D06068002856D10120D9E7ED
:101A300000BF6068B0F5803F08D1E748083800680B
:101A400040F48030E449083908601EE06068B0F571
:101A5000A02F0DD1E0480838006840F48020DE490E
:101A6000083908600846006840F4803008600CE0DF
:101A7000D9480838006820F48030D7490839086010
:101A80000846006820F48020086000BF606890B1BC
:101A9000FFF782FD054606E0FFF77EFD401B642848
:101AA00001D903209EE7CC4808380068C0F34040C5
:101AB0000028F1D011E0FFF76FFD054606E0FFF7C3
:101AC0006BFD401B642801D903208BE7C24808380E
:101AD0000068C0F340400028F1D1207800F00200F7
:101AE00002285FD1BC48006800F00C0058B1BA4829
:101AF000006800F00C0008281CD1B748001F0068DF
:101B000000F48000B0B9B44808380068C0F3400061
:101B100020B1E068012801D0012063E7AE48083811
:101B2000006820F0F800216940EAC100AA4908399C
:101B3000086037E0E06800B30120A8490860FFF7BB
:101B40002BFD054606E0FFF727FD401B022801D9C3
:101B5000032047E7A04808380068C0F34000002889
:101B6000F1D09D480838006820F0F800216940EA6B
:101B7000C10099490839086014E0002097490860BD
:101B8000FFF70AFD054606E0FFF706FD401B0228A9
:101B900001D9032026E7904808380068C0F34000C8
:101BA0000028F1D1207800F0080008282CD16069C5
:101BB000A8B101208A490860FFF7EEFC054606E05F
:101BC000FFF7EAFC401B022801D903200AE78248FC
:101BD0006C300068C0F340000028F1D014E0002011
:101BE0007F490860FFF7D8FC054606E0FFF7D4FC04
:101BF000401B022801D90320F4E677486C300068C6
:101C0000C0F340000028F1D1207800F0040004283F
:101C100070D1002670483830006800F0805090B9CC
:101C200000BF002000906C483830006840F08050C1
:101C30006949383108600846006800F0805000901B
:101C400000BF00BF01266748006800F48070B0B98B
:101C50006448006840F4807062490860FFF79CFCAB
:101C6000054606E0FFF798FC401B022801D9032037
:101C7000B8E65C48006800F480700028F2D000BF2D
:101C8000A068012808D154486830006840F001007D
:101C90005149683108601DE0A06805280DD14E4803
:101CA0006830006840F004004B496831086008461D
:101CB000006840F0010008600CE0474868300068A8
:101CC00020F001004449683108600846006820F0AF
:101CD0000400086000BFA068A8B1FFF75DFC0546DE
:101CE00009E0FFF759FC401B41F28831884202D9D4
:101CF000032077E626E0384868300068C0F34000EB
:101D00000028EED013E0FFF747FC054608E0FFF798
:101D100043FC401B41F28831884201D9032061E62F
:101D20002D4868300068C0F340000028EFD1012E34
:101D300007D129483830006820F0805026493831D2
:101D4000086000BFA069B8B32348006800F00C0029
:101D500008285ED0A069022846D100201F490866E5
:101D6000FFF71AFC054606E0FFF716FC401B0228A9
:101D700001D9032036E6184808380068C0F34060EF
:101D80000028F1D1D4E907010843616A40EA8111D2
:101D90000122A06AC2EB500041EA00412C20005D04
:101DA00041EA00600C49091F086001200B490866E0
:101DB000FFF7F2FB054607E02DE0FFF7EDFB401BC8
:101DC000022801D903200DE6034808380068C0F353
:101DD00040600028F1D01EE0083802400000474271
:101DE000800E47420070004000200C490866FFF753
:101DF000D3FB054606E0FFF7CFFB401B022801D9C5
:101E00000320EFE506480068C0F340600028F2D1E7
:101E100001E00120E6E50020E4E500000000474283
:101E20000038024070B504462546681EB0F1807F38
:101E300001D301200FE0681E4FF0E02148610F211F
:101E40004FF0FF3001F03CFF00204FF0E0218861AF
:101E500007200861002070BD70477047704710B5BB
:101E6000044620680069C0F34000D8B12068C0680B
:101E7000C0F34000B0B16FF002002168086101209A
:101E800020772068806900F0030018B12046FFF732
:101E9000E5FF05E0204600F0ADF8204600F0ABF885
:101EA0000020207720680069C0F38000D8B1206846
:101EB000C068C0F38000B0B16FF004002168086111
:101EC000022020772068806900F4407018B1204615
:101ED000FFF7C4FF05E0204600F08CF8204600F034
:101EE0008AF80020207720680069C0F3C000D8B1CC
:101EF0002068C068C0F3C000B0B16FF0080021686E
:101F00000861042020772068C06900F0030018B140
:101F10002046FFF7A3FF05E0204600F06BF82046BF
:101F200000F069F80020207720680069C0F30010F5
:101F3000D8B12068C068C0F30010B0B16FF01000D5
:101F400021680861082020772068C06900F440708B
:101F500018B12046FFF782FF05E0204600F04AF85E
:101F6000204600F048F8002020772068006900F043
:101F7000010058B12068C06800F0010030B16FF076
:101F8000010021680861204600F036F820680069E9
:101F9000C0F3C01058B12068C068C0F3C01030B1A1
:101FA0006FF08000216808612046FFF755FF206828
:101FB0000069C0F3801058B12068C068C0F3801079
:101FC00030B16FF0400021680861204600F015F83C
:101FD00020680069C0F3401058B12068C068C0F3A1
:101FE000401030B16FF02000216808612046FFF7F3
:101FF00034FF10BD7047704770477047704700004E
:102000002DE9F0470446206805682068C668206806
:1020100047694FF00008C14605F00F08B8F1000FFE
:102020000AD105F0200038B106F0200020B120468A
:1020300001F014F9BDE8F087B8F1000F6ED007F099
:10204000010018B906F49070002867D005F001006F
:1020500030B106F4807018B1E06B40F00100E0632D
:1020600005F0040030B107F0010018B1E06B40F05A
:102070000200E06305F0020030B107F0010018B182
:10208000E06B40F00400E06305F0080030B107F0B9
:10209000010018B1E06B40F00800E063E06B70B342
:1020A00005F0200028B106F0200010B1204601F014
:1020B000D5F820684069C0F38019E06B00F0080093
:1020C00010B9B9F1000F23D0204601F0A7F820681D
:1020D000406900F04000402816D12068406920F097
:1020E000400021684861606B50B11748616B08651A
:1020F000606BFEF7A1FF10B1606B016D88470CE0CB
:102100002046FFF77BFF08E02046FFF777FF04E05B
:102110002046FFF773FF0020E0638BE705F08000A7
:1021200030B106F0800018B1204601F09FFA81E737
:1021300005F0400030B106F0400018B1204601F033
:102140007DF877E700BF75E70932000810B504464F
:102150000CB9012010BDA06900B100E000BF94F8E7
:10216000390028B9002084F83800204600F028F80B
:10217000242084F839002068C06820F400502168C9
:10218000C860204601F0BEF82068006920F4904045
:10219000216808612068406920F02A0021684861B0
:1021A0002068C06840F400502168C8600020E063E7
:1021B000202084F8390084F83A000020CAE70000A3
:1021C00010B586B00446142101A8FEF761F99D49B7
:1021D0002068884239D100BF002000909A480068EA
:1021E00040F01000984908600846006800F01000B0
:1021F000009000BF00BF00BF00200090924814383C
:10220000006840F0010090491439086008460068F1
:1022100000F00100009000BF00BF4FF4C0600190CB
:1022200002200290012003900320049007200590D3
:1022300001A98648FFF792F8002201212520FFF727
:1022400037FA2520FFF724FAF9E08149206888420F
:102250003AD100BF002000907B48001F006840F486
:1022600000307949091F08600846006800F4003012
:10227000009000BF00BF00BF0020009072481438DB
:10228000006840F001007049143908600846006891
:1022900000F00100009000BF00BF0C200190022060
:1022A000029001200390032004900720059001A9CB
:1022B0006648FFF753F8002201212620FFF7F8F9BE
:1022C0002620FFF7E5F9BAE06249206888423BD151
:1022D00000BF002000905C48001F006840F4802090
:1022E0005949091F08600846006800F480200090E2
:1022F00000BF00BF00BF00200090534814380068A2
:1023000040F002005049143908600846006800F0A7
:102310000200009000BF00BF4FF440600190022017
:10232000029001200390032004900720059001A94A
:102330004948FFF713F8002201212720FFF7B8F9D9
:102340002720FFF7A5F97AE04449206888423AD16E
:1023500000BF002000903C48001F006840F40020AF
:102360003949091F08600846006800F40020009001
:1023700000BF00BF00BF0020009033481438006841
:1023800040F001003049143908600846006800F048
:102390000100009000BF00BF0320019002200290C6
:1023A00001200390032004900820059001A92748EC
:1023B000FEF7D4FF002201213420FFF779F9342001
:1023C000FFF766F93BE026492068884237D100BF15
:1023D000002000901C48006840F020001A49086066
:1023E0000846006800F02000009000BF00BF00BF5A
:1023F0000020009014481438006840F0040012498E
:10240000143908600846006800F00400009000BF1E
:1024100000BFC02001900220029001200390032001
:1024200004900820059001A90E48FEF797FF0022AE
:1024300001214720FFF73CF94720FFF729F906B0B3
:1024400010BD00000010014044380240000002406E
:10245000004400400048004000040240004C00409E
:1024600000140140000802402DE9F84304460D46DF
:1024700016461F464FF0000994F83A00202860D114
:1024800005B116B90120BDE8F88300BF94F8380003
:10249000012801D10220F6E7012084F8380000BFAE
:1024A0000020E063222084F83A00FFF775F88146A7
:1024B000A685E68539E0E08D401EE085A068B0F590
:1024C000805F1BD14B46002220212046009701F05F
:1024D00001F908B10320D6E7A846206938B9206879
:1024E0004068C0F30800A8F80000AD1C1DE020689B
:1024F0004068C0B2A8F800006D1C16E04B460022F0
:1025000020212046009701F0E5F808B10320BAE742
:10251000206920B92068406805F8010B05E02068B3
:10252000406800F07F0005F8010BE08D0028C2D163
:10253000202084F83A0000BF002084F8380000BF53
:10254000A1E702209FE770472DE9F84304460D46B6
:1025500016461F464FF0000994F8390020285CD138
:1025600005B116B90120BDE8F88300BF94F8380022
:10257000012801D10220F6E7012084F8380000BFCD
:102580000020E063212084F83900FFF705F8814638
:10259000A684E6842BE0E08C401EE084A068B0F5C1
:1025A000805F16D14B46002280212046009701F023
:1025B00091F808B10320D6E7A846B8F80000C0F3A8
:1025C000080021684860206908B9AD1C0FE06D1C47
:1025D0000DE04B46002280212046009701F07AF85A
:1025E00008B10320BFE715F8010B21684860E08CB3
:1025F0000028D0D14B46002240212046009701F010
:1026000069F808B10320AEE7202084F8390000BF44
:10261000002084F8380000BFA5E70220A3E7704738
:1026200000BFFEE7F0B5144A00250024002320E097
:10263000B1FBF2F6303606F0FF0C2E466D1C00F8AA
:1026400006C0B1FBF2F602FB16110A26B2FBF6F247
:102650006E1E865D302E01D1012600E000260CB9E9
:10266000012700E000273E400EB1002500E0641C79
:102670005B1C0A2BDCD3F0BD00CA9A3B08B50020D6
:102680000090444800F076FC434800F073FC434857
:1026900000F070FC424800F06DFC404800F06AFC1D
:1026A000404800F067FC3B4800F064FC3EA000F0AE
:1026B00061FCFEF771F93E49086069E03DA000F059
:1026C00059FC4CA000F056FC5AA000F053FC69A045
:1026D00000F050FC3648006818B176A000F04AFCC3
:1026E00002E084A000F046FC92A000F043FCA14868
:1026F000006C40684FF0FF33012269469D4840302E
:10270000FFF7B2FE9DF80000312806D0322807D02E
:10271000332808D0342836D10FE000F0EBFA36E049
:1027200000F0A8FB33E094A000F024FC00F0BEFA17
:1027300010B99AA000F01EFC29E01D48006800288E
:1027400010D00120FEF76CF940B9A1A000F012FCF6
:10275000A7A000F00FFCFEF777FD13E0ACA000F09F
:1027600009FC0FE00020FEF75BF940B9B4A000F0CF
:1027700001FC9FA000F0FEFBFEF766FD02E0B8A0A2
:1027800000F0F8FB03E0C1A000F0F4FB00BF00BFC5
:1027900094E70000E43E0008F83D0008AC3D000866
:1027A000983E0008443E00080D0A0D0A0000000093
:1027B000080000200D0A3D3D3D3D3D3D3D3D3D3D78
:1027C0003D3D3D3D3D3D3D3D3D204D61696E204DD2
:1027D000656E75203D3D3D3D3D3D3D3D3D3D3D3DB5
:1027E0003D3D3D3D3D3D3D3D3D3D3D3D3D3D3D3D19
:1027F0000D0A0A002020446F776E6C6F61642069B7
:102800006D61676520746F2074686520696E7465FA
:10281000726E616C20466C617368202D2D2D2D2DFC
:102820002D2D2D2D2D2D2D2D2D2D2D2D20310D0A24
:102830000A000000202055706C6F616420696D6192
:1028400067652066726F6D2074686520696E7465B7
:10285000726E616C20466C617368202D2D2D2D2DBC
:102860002D2D2D2D2D2D2D2D2D2D2D2D20320D0AE3
:102870000A0000002020457865637574652074683F
:1028800065206C6F61646564206170706C69636160
:1028900074696F6E202D2D2D2D2D2D2D2D2D2D2D6F
:1028A0002D2D2D2D2D2D2D2D2D2D2D2D20330D0AA2
:1028B0000A000000202044697361626C652074681E
:1028C000652077726974652070726F7465637469CE
:1028D0006F6E202D2D2D2D2D2D2D2D2D2D2D2D2DB2
:1028E0002D2D2D2D2D2D2D2D2D2D2D2D20340D0A61
:1028F0000A0000002020456E61626C6520746865E6
:102900002077726974652070726F74656374696F83
:102910006E202D2D2D2D2D2D2D2D2D2D2D2D2D2DB3
:102920002D2D2D2D2D2D2D2D2D2D2D2D20340D0A20
:102930000A0000003D3D3D3D3D3D3D3D3D3D3D3DB1
:102940003D3D3D3D3D3D3D3D3D3D3D3D3D3D3D3DB7
:102950003D3D3D3D3D3D3D3D3D3D3D3D3D3D3D3DA7
:102960003D3D3D3D3D3D3D3D3D3D3D3D3D3D0D0AFA
:102970000A000000BC090020537461727420707258
:102980006F6772616D20657865637574696F6E2E0F
:102990002E2E2E2E2E0D0A0A000000004E6F2070E3
:1029A000726F6772616D2C706C6561736520646F06
:1029B000776E6C6F6164206170702070726F6772E7
:1029C000616D2E2E2E2E2E2E2E0D0A0A00000000D6
:1029D00057726974652050726F74656374696F6EA5
:1029E0002064697361626C65642E2E2E0D0A0000EE
:1029F00053797374656D2077696C6C206E6F7720E6
:102A0000726573746172742E2E2E0D0A0000000020
:102A10004572726F723A20466C61736820777269F2
:102A2000746520756E2D70726F74656374696F6E56
:102A3000206661696C65642E2E2E0D0A0000000070
:102A400057726974652050726F74656374696F6E34
:102A500020656E61626C65642E2E2E0D0A000000EA
:102A60004572726F723A20466C61736820777269A2
:102A700074652070726F74656374696F6E2066612F
:102A8000696C65642E2E2E0D0A000000496E766179
:102A90006C6964204E756D6265722021203D3D3E5B
:102AA00020546865206E756D6265722073686F755D
:102AB0006C642062652065697468657220312C2021
:102AC000322C2033206F7220340D000000BFFEE74F
:102AD000704770472DE9FE4305460F469046002695
:102AE000012068700020A870FF20E870002403E037
:102AF000395D201D2954641C385D08B1402CF7D382
:102B00000021201D295441466846FFF78BFD641DB6
:102B100006E03046761C1DF800202046641C2A542E
:102B20001DF806000028F4D1264602E00020A85532
:102B3000761C842EFAD3BDE8FE83F0B50746144612
:102B4000B3F5806F02D34FF4806C01E04FF0800C3E
:102B50006246934201D29C4600E094466646B2F536
:102B6000806F04D14FF0020C81F801C003E04FF0F8
:102B7000010C81F801C08C706FEA040C81F803C06D
:102B80003D46042004E015F801CB01F800C0401CCC
:102B900006F1040C6045F6D396420AD8301D04E0D5
:102BA0004FF01A0C01F800C0401C02F1040C604503
:102BB000F6D3F0BD2DE9F84304460E4690460025B5
:102BC000002030604346012269462F48FFF74CFC45
:102BD0000746002F53D19DF80000182812D006DCBC
:102BE000012809D0022809D004281DD109E0412874
:102BF00017D0612818D115E0802517E04FF48065C3
:102C000014E013E04346012269461F48FFF72CFCFD
:102C100028B99DF80000182801D1022500E00127FD
:102C200004E000BF022701E0012700BF00BF9DF8BC
:102C300000002070802D22D3281D82B24346A11CA3
:102C40001148FFF711FC0746C7B9A078E17881F079
:102C5000FF01884202D00025012710E0281D205CDA
:102C60004FEA0029681D205C81442946201DFDF79C
:102C7000E5FD484503D00025012700E0002535602B
:102C80003846BDE8F8830000FC0900207047704713
:102C900010B5FEF793FC00F0FFF910BD10B5FFF77B
:102CA000F7FF00F025F8FFF7F2FF10BD70B50D48F3
:102CB00004680D482040B0F1005F04D00B4820406C
:102CC000B0F1805F0CD1FEF7CBF9FEF7B3FA0548FF
:102CD000456800BF84F3088800BFA847012070BD85
:102CE0000020FCE700C000080000FC2F0000FE1FD1
:102CF000704700001FB500200190029003900090E3
:102D00001AA000F037F9684600F056FD0446B4B941
:102D1000254800F02FF9254800F02CF901A800996A
:102D2000FFF780FC22A000F025F901A800F022F9AD
:102D300022A000F01FF924A000F01CF914E0052CDB
:102D400003D127A000F016F90EE0042C03D134A023
:102D500000F010F908E0022C03D138A000F00AF9C5
:102D600002E03CA000F006F91FBD00005761697445
:102D7000696E6720666F72207468652066696C658D
:102D800020746F2062652073656E74202E2E2E20B5
:102D90002870726573732027612720746F20616229
:102DA0006F7274290A0D0000583D0008340000209D
:102DB0000A0D2053697A653A200000002042797498
:102DC00065730D0A000000002D2D2D2D2D2D2D2DAC
:102DD0002D2D2D2D2D2D2D2D2D2D2D0A00000000FA
:102DE0000A0A0D54686520696D6167652073697A08
:102DF0006520697320686967686572207468616E10
:102E00002074686520616C6C6F77656420737061F5
:102E10006365206D656D6F7279210A0D00000000F9
:102E20000A0A0D566572696669636174696F6E207E
:102E30006661696C6564210A0D0000000D0A0A4193
:102E4000626F7274656420627920757365722E0AF0
:102E50000D0000000A0D4661696C656420746F20E6
:102E600072656365697665207468652066696C655E
:102E7000210A0D0008B50020009011A000F07AF89A
:102E80001648006C40684FF0FF3301226946134832
:102E90004030FFF7E9FA9DF8000043280FD1104AAF
:102EA00010A1164800F0C4FD00909DF8000018B174
:102EB00013A000F05FF802E01CA000F05BF808BD72
:102EC0000A0A0D53656C6563742052656365697603
:102ED000652046696C650A0D00000000BC090020F1
:102EE000381E010055706C6F61646564466C6173D7
:102EF00068496D6167652E62696E000000C0000858
:102F00000A0D4572726F72204F6363757272656449
:102F1000207768696C65205472616E736D69747492
:102F2000696E672046696C650A0D00000A0D4669E6
:102F30006C652075706C6F61646564207375636384
:102F400065737366756C6C79200A0D0001B50848CD
:102F500090F87900A02803D12021054880F8791045
:102F600064230122694602484030FFF7EDFA08BDAC
:102F7000BC09002070B50446002501E0681C85B23C
:102F8000605D0028FAD164232A4621460148FFF7F4
:102F9000DBFA70BDFC09002070B502460C4600212A
:102FA000002000231578302D3ED15578782D02D0A1
:102FB0005578582D38D102212BE0555C412D02DB8C
:102FC000555C462D0BDD555C612D02DB555C662D95
:102FD00005DD555C302D19DB555C392D16DC555C53
:102FE000302D05DB555C392D02DC555C303D0AE0A7
:102FF000555C412D05DB555C462D02DC555C373DAB
:1030000001E0555C573D05EB031301E0002005E0AE
:10301000491C0B2902D2555C002DCED100BF555C56
:103020009DBB2360012030E02AE0555C15B9236088
:10303000012024E0555C6B2D02D0555C4B2D04D152
:1030400019B19B022360012019E0555C6D2D02D05F
:10305000555C4D2D04D119B11B05236001200EE0F4
:10306000555C302D09DB555C392D06DC555C303D57
:1030700003EB830605EB460301E0002004E0491C56
:103080000B2901D20128D0D100BF70BD10B5FEF7C9
:1030900089FAFDF760FA10BD10B592B0302106A88C
:1030A000FDF7F6F9142101A8FDF7F2F900BF0020A1
:1030B00000902448006840F080502249086008468B
:1030C000006800F08050009000BF00BF00BF0020EB
:1030D00000901D48006840F440401B4908600846C5
:1030E000006800F44040009000BF00BF012006903F
:1030F0000004079002200C9041050D9104210E91CF
:10310000A8210F91022110910721119106A8FEF725
:1031100065FC04460CB1FDF7ACFB0F2001900220CA
:103120000290002003904FF4A05004904FF4805080
:103130000590052101A8FEF713FB08B1FDF799FBE7
:1031400012B010BD403802400070004014480068C2
:1031500040F47000124908601248006840F0010015
:103160001049086000200F49083108600D480068C8
:103170000D4908400B4908600C48091D0860081FEC
:10318000006820F48020091F0860002005490C31E8
:1031900008604FF000600249803908607047000005
:1031A00088ED00E000380240FFFFF6FE10300024FA
:1031B00010B50248FEF753FE10BD00007C08002049
:1031C00010B50248FEF74BFE10BD00007C08002041
:1031D00010B50248FEF743FE10BD0000BC080020F9
:1031E00010B5FDF7EFFA10BD10B50248FEF737FE37
:1031F00010BD00007C09002010B50248FEF700FF5A
:1032000010BD00007C0A002070B50546AC6B0020A4
:10321000E085E0842046FEF7F1FE70BD0168C968D4
:1032200021F490710268D1600168496921F00101BF
:1032300002685161202180F83A10704710B50446A9
:103240002068C06820F040002168C860202084F811
:1032500039002046FFF7E3F9002010BD70B50446A1
:1032600094F83A0022284AD1A068B0F5805F13D1C3
:10327000A56A206940B920684068C0F3080028802A
:10328000A06A801CA06219E020684068C0B2288053
:10329000A06A401CA06211E0206938B9206840682B
:1032A000C1B2A26A501CA062117007E02068406899
:1032B00000F07F01A26A501CA0621170E08D401ED8
:1032C00080B2E085C8B92068C06820F0200021687D
:1032D000C8602068C06820F480702168C8602068D9
:1032E000406920F0010021684861202084F83A00FC
:1032F0002046FFF728F9002070BD0020FCE70220DF
:10330000FAE700002DE9F04104462068006920F446
:103310004050E1680843216808612169A0680843BA
:1033200061690843E16940EA01052068C06849F223
:103330000C61884328432168C8602068406920F4F4
:103340004070A169084321684861E069B0F5004F09
:103350007ED1C4492068884203D0C349206888428E
:103360005DD1FEF7D3FA00EBC00101EB00106168FC
:103370004900B0FBF1F06421B0FBF1F00601FEF76B
:10338000C5FA00EBC00101EB001061684900B0FB19
:10339000F1F7FEF7BBFA00EBC00101EB001061682A
:1033A0004900B0FBF1F06421B0FBF1F000EBC0018B
:1033B00001EB0010A7EB8000322101EBC00064217B
:1033C000B0FBF1F000F0F80006EB4006FEF79EFAC5
:1033D00000EBC00101EB001061684900B0FBF1F7A0
:1033E000FEF794FA00EBC00101EB001061684900A0
:1033F000B0FBF1F06421B0FBF1F000EBC00101EB98
:103400000010A7EB8000322101EBC0006421B0FB6B
:10341000F1F000F0070030442168886020E1FEF7F9
:1034200065FA00EBC00101EB001061684900B0FBD8
:10343000F1F06421B0FBF1F00601FEF757FA00EB62
:10344000C00101EB001061684900B0FBF1F700E03A
:1034500045E0FEF74BFA00EBC00101EB001061689C
:103460004900B0FBF1F06421B0FBF1F000EBC001CA
:1034700001EB0010A7EB8000322101EBC0006421BA
:10348000B0FBF1F000F0F80006EB4006FEF72EFA74
:1034900000EBC00101EB001061684900B0FBF1F7DF
:1034A000FEF724FA00EBC00101EB0010616849004F
:1034B000B0FBF1F06421B0FBF1F000EBC00101EBD7
:1034C0000010A7EB8000322101EBC0006421B0FBAB
:1034D000F1F000F00700304421688860C0E06149E5
:1034E0002068884203D06049206888425CD1FEF79A
:1034F0000DFA00EBC00101EB001061688900B0FB20
:10350000F1F6FEF703FA00EBC00101EB0010616871
:103510008900B0FBF1F06421B0FBF1F000EBC001D9
:1035200001EB0010A6EB8000322101EB00106421BA
:10353000B0FBF1F000F0F006FEF7E8F900EBC00197
:1035400001EB001061688900B0FBF1F06421B0FB71
:10355000F1F006EB0016FEF7D9F900EBC00101EB24
:10356000001061688900B0FBF1F7FEF7CFF900EBBE
:10357000C00101EB001061688900B0FBF1F064212B
:10358000B0FBF1F000EBC00101EB0010A7EB8000F5
:10359000322101EB00106421B0FBF1F000F00F00CC
:1035A0003044216888605BE0FEF7A0F900EBC001C1
:1035B00001EB001061688900B0FBF1F6FEF796F9A7
:1035C00000EBC00101EB001061688900B0FBF1F075
:1035D0006421B0FBF1F000EBC00101EB0010A6EBA1
:1035E0008000322101EB00106421B0FBF1F000F00B
:1035F000F006FEF77BF900EBC00101EB00106168FB
:103600008900B0FBF1F06421B0FBF1F006EB00168D
:10361000FEF76CF900EBC00101EB00106168890056
:10362000B0FBF1F7FEF762F900EBC00101EB00100F
:1036300061688900B0FBF1F06421B0FBF1F000EBB0
:10364000C00101EB0010A7EB8000322101EB00105C
:103650006421B0FBF1F000F00F0030442168886075
:10366000BDE8F0810010014000140140014691F8CE
:10367000390021282CD18868B0F5805F0FD10A6A03
:103680001088C0F308000B685860086918B9086A08
:10369000801C086209E0086A401C086205E00B6AA9
:1036A000581C086218780B685860C88C401E80B29D
:1036B000C88458B90868C06820F080000B68D860DA
:1036C0000868C06840F040000B68D8600020704770
:1036D0000220FCE72DE9F04104460D4617469846C6
:1036E000069E21E0701CF8B12EB1FDF755FFA0EB4E
:1036F0000800B04218D92068C06820F4D070216852
:10370000C8602068406920F00100216848612020DD
:1037100084F8390084F83A0000BF002084F83800AB
:1037200000BF0320BDE8F081206800682840A8425F
:1037300001D1012000E00020B842D3D00020F1E701
:1037400010B50248FEF75CFC10BD0000BC0900206B
:1037500010B50248FEF754FC10BD0000FC09002023
:1037600010B50248FEF74CFC10BD00003C0A0020DA
:1037700010B50248FEF744FC10BD0000BC0A002052
:1037800010B503460C46194644F4807200BF490048
:10379000520002F4807000B1491C01F4803010B175
:1037A00041F22100414002F480300028EFD088B27D
:1037B00010BD00BFFEE700002DE9F04F8DB082463E
:1037C00000200B90834609900027069081460090C8
:1037D000914C16E14FF0000800200A900BE1009890
:1037E00020B9012000904320FFF7B0FB42F2107295
:1037F0000CA98A48FFF7DEF910B1022874D1DEE087
:103800004FF0000B0C9838B102280BD10620FFF7BF
:103810009DFB4FF00209D0E00620FFF797FB012047
:103820000A90CAE07D48807808F0FF01884203D002
:103830001520FFF78BFBBFE0B8F1000F66D177488A
:103840000079002851D00026744D2D1D05E015F893
:10385000012B3046761C72490A54287808B1402E54
:10386000F5D300223046761C6D490A5400266D1CA3
:1038700005E015F8012B3046761C02A90A54287879
:10388000202801D0102EF4D300223046761C02A945
:103890000A5407A902A8FFF77FFB624907988842EC
:1038A00011D9182001900B05012201A95E48FEF7ED
:1038B0004BFE4FF48013012201A95B48FEF744FE42
:1038C0004FF0050974E0544A07981044411E104611
:1038D000FDF73CF80798CAF800000620FFF736FB12
:1038E0004320FFF733FB63E072E047B1069882089C
:1038F0004E493846FDF76CF808B14FF00409062030
:10390000FFF724FB01200A900B9056E04348001D6E
:103910000890414907980844401EA04208D2182048
:10392000FFF714FB1820FFF711FB4FF004093FE0ED
:103930000C982044384A07991144884212D91146FC
:1039400007980844001B0C900C9800F0030008B97D
:10395000002004E00C9800F00300C0F104000C9972
:1039600008440C902C4884420DD127460C980690B0
:103970002E480C9A0899FCF714FD0C980444062074
:10398000FFF7E4FA14E00C98820820460899FDF746
:103990001FF828B90C9804440620FFF7D7FA07E06F
:1039A0001820FFF7D3FA1820FFF7D0FA4FF00409D8
:1039B00008F101080120099000BF00BF1AE018209B
:1039C000FFF7C4FA1820FFF7C1FA4FF0020911E01F
:1039D000099808B10BF1010BBBF1050F06D91820AE
:1039E000FFF7B4FA1820FFF7B1FA02E04320FFF71F
:1039F000ADFA00BF00BF0A9818B9B9F1000F3FF443
:103A0000EEAE0B9818B9B9F1000F3FF4E3AE48469B
:103A10000DB0BDE8F08F000000C000087400002069
:103A20003400002001401F00FC0900207A0400201F
:103A30002DE9F74F82B00025AB46A84600270120AC
:103A400001909948DDE90312FFF744F846E04FF48E
:103A5000801383229449491C9448FEF775FD802108
:103A60009148001DFCF7EAFE0446200AFFF76EFAB3
:103A7000E0B2FFF76BFA4FF48013012269468B48DE
:103A8000FEF7F2FC30BB9DF80000062809D14FF488
:103A90007A73012269468548FEF7E6FC4FF0010B78
:103AA00019E09DF80000182815D14FF48013012269
:103AB00069467E48FEF7D8FC68B99DF800001828D2
:103AC00009D10220FDF7EEFA78484038006C4068D2
:103AD000022700E06D1C052D00D30127BBF1000F6C
:103AE00001D1002FB3D0DDF80890DDF8108053E04D
:103AF0000198C2B243466C494846FFF71EF84FF0A2
:103B0000000B00208DF80000002540E0B8F5806F24
:103B100002D34FF4806600E08026F01C82B24FF49E
:103B200080136149491C6148FEF70EFD31465E482D
:103B3000001DFCF783FE0446200AFFF707FAE0B2F7
:103B4000FFF704FA4FF48013012269465748FEF745
:103B50008BFCC0B99DF80000062814D14FF0010B72
:103B6000B0450CD9B144A8EB06080198B0F5FA6F3E
:103B700001D1052708E00198401C019004E0B14400
:103B80004FF0000800E06D1C052D00D30127BBF1AC
:103B9000000F01D1002FB9D0B8F1000F01D0002FD4
:103BA000A6D04FF0000B00208DF8000000252EE07D
:103BB0000420FFF7CBF94FF48013012269463B48FC
:103BC000FEF752FCF8B99DF80000062802D14FF02C
:103BD000010B19E09DF80000182815D14FF480134F
:103BE000012269463148FEF73FFC68B99DF80000A4
:103BF000182809D10220FDF755FA2C484038006CEE
:103C00004068022700E06D1C052D00D30127BBF1A1
:103C1000000F01D1002FCBD0F7BB4FF4FA60FCF7B7
:103C2000AFFC01202049487000208870FF20C87038
:103C30004FF0040A07E000201B4901F80A000AF1CE
:103C4000010000F0FF0ABAF1840FF4D34FF480139F
:103C500083221549491C1548FEF776FC802112483D
:103C6000001DFCF7EBFD0446200AFFF76FF9E0B2F8
:103C7000FFF76CF94FF48013012269460B48FEF7F9
:103C8000F3FB48B99DF80000182809D10220FDF780
:103C900009FA0648403800E002E0006C406802275C
:103CA000384605B0BDE8F08F74000020FC09002004
:103CB00002480068C0F30220704700000CED00E0ED
:103CC00010B5002804DB0A07130E054A135406E05A
:103CD0000A07140E034A00F00F031B1FD45410BD33
:103CE00000E400E018ED00E00024FEF7D7FFFDF748
:103CF00031FD0F480068012803D100200C490860FD
:103D0000012414E014B1012C10D104E0FEF7CEFF21
:103D100000B901240AE04FF4165200210120FCF7FB
:103D2000E5FCFCF74BFEFEF7A9FC00BF00BFE9E78E
:103D3000542800404FF04070E1EE100A7047000038
:103D4000000000000000010203040607080900004B
:103D500000000102030400000A0A0D2050726F6780
:103D600072616D6D696E6720436F6D706C6574650F
:103D700064205375636365737366756C6C79210A8F
:103D80000D2D2D2D2D2D2D2D2D2D2D2D2D2D2D2D83
:103D90002D2D2D2D2D2D2D2D2D2D2D2D2D2D2D2D53
:103DA0002D0D0A204E616D653A2000000D0A3D2060
:103DB0002020202020202020202020202020202003
:103DC00020202020202020202020202020202020F3
:103DD00020202020202020202020202020202020E3
:103DE00020202020202020202020202020202020D3
:103DF0002020203D000000000D0A3D202020202032
:103E000020202020202020202028432920434F50FC
:103E10005952494748542032303230204D4F4820C3
:103E20002020202020202020202020202020202092
:103E30002020202020202020202020202020203D65
:103E4000000000000D0A3D202020202020202020FE
:103E50002020202020202020202020202020202062
:103E60002020202020202020202042792077616EF1
:103E7000676A69616E6A6965202020202020202001
:103E80002020202020202020202020202020202032
:103E90002020203D000000000D0A3D202053544DFD
:103EA00033324634323920496E2D4170706C69636B
:103EB0006174696F6E2050726F6772616D6D696EAB
:103EC00067204170706C69636174696F6E2020288F
:103ED00056657273696F6E20312E302E3029203D69
:103EE000000000000D0A3D3D3D3D3D3D3D3D3D3D59
:103EF0003D3D3D3D3D3D3D3D3D3D3D3D3D3D3D3DF2
:103F00003D3D3D3D3D3D3D3D3D3D3D3D3D3D3D3DE1
:103F10003D3D3D3D3D3D3D3D3D3D3D3D3D3D3D3DD1
:103F20003D3D3D3D3D3D3D3D3D3D3D3D00000000B5
:103F3000503F00080000002034000000E8010008A5
:103F4000843F000834000020741D000004020008B3
:103F50000000000000000000000000000000500011
:103F600000005000000050000000000000000000B1
:103F70000000000000000000100000000100000030
:043F80000024F40025
:04000005080001AD41
:00000001FF
