:020000040800F2
:10000000F0460220B1020008DDD80008A1B60008C1
:1000100035D60008D9260008C558010800000000A0
:10002000000000000000000000000000693101082D
:10003000312B000800000000E5190008AD3F010861
:10004000EB020008EB020008EB020008F5100108C3
:10005000EB020008EB020008EB020008EB020008CC
:10006000EB020008EB020008EB020008EB020008BC
:10007000EB020008EB020008EB020008EB020008AC
:10008000EB020008EB020008EB020008EB0200089C
:10009000DD260008EB020008EB0200089D30000896
:1000A000EB020008EB020008EB020008EB0200087C
:1000B0004142010851420108EB020008EB0200082E
:1000C000EB020008EB020008EB020008EB0200085C
:1000D000EB02000859520108A9520108E552010833
:1000E000EB020008390F0108EB020008EB020008E0
:1000F000ED420108D5420108EB020008EB020008BE
:10010000EB020008D51C0108EB020008EB02000816
:10011000EB020008EB02000861420108C542010839
:100120007D2800088D2800089D280008AD280008BB
:10013000BD280008EB020008EB020008EB020008F3
:10014000EB020008EB020008EB020008EB020008DB
:10015000EB020008CD280008DD2800083D53010807
:10016000EB020008EB020008EB020008EB020008BB
:10017000EB020008EB020008EB02000800000000A0
:10018000EB020008EB020008EB020008EB0200089B
:10019000EB020008EB020008EB020008EB0200088B
:1001A000EB020008EB020008EB02000800F002F886
:1001B00000F06FF80AA090E8000C82448344AAF192
:1001C0000107DA4501D100F064F8AFF2090EBAE890
:1001D0000F0013F0010F18BFFB1A43F0010318477B
:1001E000109A0100309A01000A444FF0000C10F8F8
:1001F000013B13F0070408BF10F8014B1D1108BFA5
:1002000010F8015B641E05D010F8016B641E01F844
:10021000016BF9D113F0080F1EBF10F8014BAD1C94
:100220000C1B09D16D1E58BF01F801CBFAD505E0B2
:1002300014F8016B01F8016B6D1EF9D59142D6D30C
:10024000704700000023002400250026103A28BF34
:1002500078C1FBD8520728BF30C148BF0B60704738
:10026000662918F02986642900F04C81732900F072
:100270000286002070471FB518F019FE00F060FBE1
:1002800004000020002118F085FDE0601FBD10B5BE
:1002900010BD00F01BFF1146FFF7EDFF18F082F8CC
:1002A00000F039FF03B4FFF7F2FF03BC00F004FED7
:1002B00011488047DFF84400016841F47001016093
:1002C000BFF34F8FDFF83800016821F04041016033
:1002D000BFF36F8F0B480047FEE7FEE7FEE7FEE740
:1002E000FEE7FEE7FEE7FEE7FEE7FEE70648074912
:1002F000074A084B70470000FD40010888ED00E008
:1003000034EF00E0AD010008F0320220F046022098
:10031000F03A0220F03A022072B6704762B6704797
:10032000EFF3108072B6704780F31088704730BFCB
:10033000704720BF7047B0FA80F0704790FAA0F085
:10034000B0FA80F0704790FAA0F0704753EA020CC0
:1003500000F069802DE9F04B4FF00006002B1FBF25
:10036000B3FA83F503FA05F424FA05F65E4012BFEA
:100370001643B2FA82F502FA05F4C5F120051EBF54
:1003800022FA05FC44EA0C04203556EA044C4FEAF4
:10039000144418BF641C4FF000084FF0000990424D
:1003A00071EB030C39D3002919BFB1FA81F701FAB7
:1003B00007F6B0FA80F700FA07F6C7F120071EBF6C
:1003C00020FA07FC46EA0C062037B6FBF4FCA7EB44
:1003D0000507103F07F01F0BCBF120060CFA0BFBB3
:1003E0002CFA06F644BFB3460026202FA4BF5E4673
:1003F0004FF0000B5BEA060C08BF4FF0010B19EB46
:100400000B09ABFB027C48EB0608C01B06FB02CCC9
:100410000BFB03CC71EB0C01C1E70B4602464146D6
:100420004846BDE8F08B13B54FF000004FF00001D7
:10043000AFF30080BDE81C40704700000FB41CB54E
:10044000074B06AA7B4469460090059800F0E9FC3A
:100450000020694600F0F8FC1CBC5DF814FB0000AD
:10046000010A000070B5044685690068C10601D51F
:10047000302600E02026C00707D070BDD4E9012156
:1004800030469047206A401C20626D1EF6D570BD34
:1004900070B5044685690078C00707D170BDD4E9FE
:1004A000012120209047206A401C20626D1EF6D555
:1004B00070BD70B50C460546012A05D02878800627
:1004C00000D5EA69002302E0012305E05B1C9342AA
:1004D00002D2E05C0028F9D1A869E618C01AA86128
:1004E000286A184428622846FFF7BCFF04E0D5E9D3
:1004F000012114F8010B9047B442F8D32846FFF7C6
:10050000C7FF70BD2DE9F04106460024106875292B
:10051000314616A510D0AFF30080002802DA404221
:1005200013A507E031688A0701D512A502E0490743
:1005300004D511A5012401E0AFF3008000210A22B7
:1005400006F1240709E0B0FBF2FCB0FBF2F302FB7A
:100550001C00303078541846491C0028F3D123463B
:100560002A463046BDE8F04100F0EEB90000000038
:100570002D0000002B000000200000002DE9F05F9E
:10058000894604464FF0000ADFF824B1FB44C0F866
:1005900020A02046E168884700287DD0252806D085
:1005A000D4E901219047206A401C2062F1E7002530
:1005B0005F462046E16888472028064607DB312E43
:1005C00005D2B81910F8200C08B10543F1E7A807C7
:1005D00001D525F00405C4F81CA00027C4F818A014
:1005E0002A2E09D0304615F0B8FD38B304EB870841
:1005F000303EC8F8186019E059F8041B204604EB97
:1006000087029161E1688847012F064618D1E069A9
:10061000002820DA25F020051DE0D8F8180000EBAE
:10062000800006EB40003038C8F818002046E1682A
:100630008847064615F091FD0028EED1012F0AD01B
:100640002E2E08D12046E16888477F1C0646022FDF
:1006500045F02005C4DBA069002803DA404245F0DC
:100660000105A061E80701D025F01005A6B1A6F1AB
:100670004100192802D8203645F400654A46314623
:10068000204625604D46FFF7EBFD60B1012807D0FD
:10069000ED1D25F0070000E007E000F1080978E70C
:1006A00005F1040975E730467AE7206ABDE8F09F56
:1006B000949301000EB5054614460E4613A000F0B3
:1006C000E9FB284600F0E6FB16A000F0E3FB30460D
:1006D00000F0E0FB15A000F0DDFB00218DF80B1011
:1006E0000A210DF10A008DF80A1008E094FBF1F2DE
:1006F00001FB124294FBF1F4303200F8012D002C82
:10070000F4DC00F0C7FB00F0BAFB00002A2A2A2024
:10071000617373657274696F6E206661696C65647C
:100720003A2000002C2066696C6520002C206C6942
:100730006E65200040EA0103024630B59B0710D1E8
:100740004FF0013400E008C208C91D1B9D4315EAA3
:10075000C41FF8D013F0FF0102F8011B0DD01B0AD3
:10076000F8E711F8013B002B02F8013B05D011F826
:10077000013B002B02F8013BF3D130BD032A40F2CC
:10078000308010F0030C00F0158011F8013BBCF133
:10079000020F624498BF11F801CB00F8013B38BF4B
:1007A00011F8013BA2F1040298BF00F801CB38BF59
:1007B00000F8013B11F0030300F02580083AC0F077
:1007C000088051F8043B083A51F804CBA0E808101F
:1007D000F5E7121D5CBF51F8043B40F8043BAFF352
:1007E0000080D20724BF11F8013B11F801CB48BFAC
:1007F00011F8012B24BF00F8013B00F801CB48BFE2
:1008000000F8012B704710B5203AC0F00B80B1E81A
:100810001850203AA0E81850B1E81850A0E8185035
:10082000BFF4F5AF5FEA027C24BFB1E81850A0E83E
:10083000185044BF18C918C0BDE810405FEA827C58
:1008400024BF51F8043B40F8043B08BF7047D2076F
:1008500028BF31F8023B48BF11F8012B28BF20F810
:10086000023B48BF00F8012B70474FF0000200B573
:10087000134694469646203922BFA0E80C50A0E8C3
:100880000C50B1F12001BFF4F7AF090728BFA0E871
:100890000C5048BF0CC05DF804EB890028BF40F83D
:1008A000042B08BF704748BF20F8022B11F0804F7F
:1008B00018BF00F8012B70474FF0013C50F8042B93
:1008C00051F8043B9A4221D1A2EB0C03934313EA63
:1008D000CC1317D150F8042B51F8043B9A4215D190
:1008E000A2EB0C03934313EACC130BD150F8042B67
:1008F00051F8043B9A4209D1A2EB0C03934313EA4B
:10090000CC13DBD04FF00000704700BFD01A01BA03
:10091000B1FA81F101F0180122FA01F0CB40C1F1E6
:100920002001DBB2C0B2C01A2CFA01F3D11A9143F4
:1009300011EAC311E6D17047704770477047000055
:1009400000487047B03202202DE9F0470D46994625
:100950009246044600F124080168880604D5E0693F
:1009600021F01001216000E00120A84201DD471BB9
:1009700000E00027A1697A1902EB0900081AA061BA
:100980002078C00602D42046FFF76CFD002608E060
:10099000D4E901211AF806009047206A401C761C11
:1009A00020624E45F4DB2078C0060AD52046FFF7CA
:1009B00059FD06E0D4E9012130209047206A401C0F
:1009C0002062381EA7F10107F4DC07E0D4E9012119
:1009D00018F805009047206A401C2062281EA5F1E7
:1009E0000105F3DC2046FFF753FD2078000602D511
:1009F0000220BDE8F0870120FBE770472DE9FF4F9B
:100A00000C461E464FF0FF378BB0D2E90001DDF8EF
:100A100060800A908A46C1F30A5505B93D46002117
:100A200008464FF00000BAF1000F00F4400005DA6C
:100A300000EB80004FF4400101EA50004FEA90596A
:100A4000B9F1010F00DDB9460A9850EA4A000ED00C
:100A500044F61050A5F2FF3545432F14B8F1000FAE
:100A60001ED07542291E1EDDC9F100021CE0B8F13E
:100A7000010F4FF0000001D0302103E0F24305E008
:100A80002154401CB042FBDB30460022002121549F
:100A90000B99C1F80880C1E900200FB0BDE8F08FC4
:100AA000BD1B6D1CDEE74A4600DA694206A800F06D
:100AB00093FA06AB93E8070003AB83E807005046C0
:100AC0000A9900F068FB8DE80700A0F500501F3878
:100AD00000900398002D0ADD42F21F014A460844A7
:100AE000002303A90390684600F0D1FD09E0A0F5BA
:100AF00000504A461F38002303A90390684600F0BF
:100B0000DBFD8DE807000004000C03D04FF0FF3040
:100B1000410800E01046B8F1000F03D00022009217
:100B200015461EE0751E05D400F0D0F9303262552E
:100B30006D1EF9D5B3460122084302D000227F1C66
:100B400004E02078302801D100227F1E002A099776
:100B500084D01DE0112D07DA00F0B8F9303262556B
:100B60006D1C50EA0102F5D1084302D00098C8B1CB
:100B70000EE00021681E05E0235C625C6354225491
:100B8000401E491C8142F7DBAB46A81B401E099062
:100B9000002004F80B000B98099AC0F80880C0E9FF
:100BA000002B7AE711264FF0000857E72DE9F04FA8
:100BB00088460446D21D22F0070191B0D1E9000118
:100BC000CDE90A0115F0B1FA02460B98C00F01D029
:100BD0002D2007E02068810701D52B2002E020218D
:100BE00001EAC000032A099001D0072A05DB034669
:100BF0004146204600F0B0F90BE12078800601D58F
:100C0000E06900E00620B8F1650F814606D0B8F132
:100C1000660F18D0B8F1670F70D131E00020B9F13C
:100C2000110F009001DB112301E009F101030AAA71
:100C300001A90CA8FFF7E2FEDDE90C70002609F11E
:100C40000105834647E001204B4600904FF00047E6
:100C50000AAA01A90CA8FFF7D1FEDDE90DB00C9995
:100C60005D46002610B909F101000D18B9EB050029
:100C700003D4C0F1FF3609F10105A5EB09002BE013
:100C8000B9F1010F01DA4FF001090020B9F1110F9C
:100C90000090484601DD112300E003460AAA01A99D
:100CA0000CA8FFF7ABFEDDE90C704D46002683462D
:100CB000207800070AD4AB4500DA5D4601A8012D73
:100CC00004DD411911F8011C302907D04F4502DA23
:100CD00017F1040F04DA012082460FE06D1EEEE7E3
:100CE000002F02DCED1B3E4403E0781CA84200DD2F
:100CF0007D1CB81B00F1010A4FF000472078000767
:100D000003D4AA4501DB4FF0FF3A0021B7F1004FB1
:100D10000DF143088DF8431024D002202B23002F1F
:100D200001DA7F422D230A21021EA0F1010000DC1E
:100D30005FB197FBF1FC97FBF1F201FB1C7C1746BE
:100D40000CF1300C08F801CDEEE7A8F101000370BA
:100D50002188090501D5452100E06521A0F10108A0
:100D600000F8011C09980FA9A1EB0807FF1D00B1AD
:100D70000120411901EBEA70A1693844081A401EAC
:100D8000A0612078C00602D42046FFF76BFB0998CB
:100D900028B1D4E901219047206A401C20622078C4
:100DA000C00622D52046FFF75DFB1EE0002E04DBC7
:100DB000B34502DD01A8805D00E03020D4E90121C7
:100DC0009047206A401C2062761CAAF101005FEA6D
:100DD000000A0AD1FFF7B4FDC0680168405CD4E99D
:100DE00001219047206A401C2062281EA5F10105C0
:100DF000DCDC07E0D4E9012118F8010B9047206AF8
:100E0000401C2062381EA7F10107F3DC2046FFF7E3
:100E10003FFB032011B041E601694A1C02610878DA
:100E2000704700B58FB0CDE901310021059105492A
:100E30007944CDE9031011466846FFF79FFB0FB0D8
:100E400000BD0000E5FFFFFF0A6802F8010B0A6021
:100E5000704710B5436913B1AFF3008001E0FFF7AD
:100E600028FB012010BD127800F124010A70002235
:100E70004A700122EDE711684FF0FF32E9E710B543
:100E8000002000F01BF9FFF702FABDE81040012036
:100E900000F012B810B5044602E0641C00F004F83B
:100EA00020780028F9D110BD08B569468DF80000FA
:100EB0000320ABBE08BD000001491820ABBEFEE711
:100EC00026000200004870479032022030B5B0F191
:100ED0000A024FEA900E71F100034EEA817EB0EBF8
:100EE0000E0061EB91014FEA101E4EEA017E10EBFD
:100EF0000E0041EB11114FEA102E4EEA016E10EB7D
:100F00000E0041EB11214FEA104E4EEA014E10EB5C
:100F10000E0041EB1141401841F100014FEAD000B1
:100F200040EA41704FEAD10110EB80054FEA81049D
:100F300044EA907444EB01046D1944EB0404521B21
:100F4000A3414FF0000348BF0A3200D530BD401C1A
:100F500041F1000130BD00002DE9F0411F4604467B
:100F600003260168072A01F4006004DB08B116A516
:100F700005E016A503E008B115A500E015A521F0D0
:100F800010002060A069C01EA0610FB1401EA061CA
:100F90002046FFF767FA4FB1D4E901213846904760
:100FA000206A401C2062C01C206206E0206AFAE72A
:100FB000D4E9012115F8010B9047761EF8D220469E
:100FC000FFF766FABDE8F0814E414E006E616E009B
:100FD000494E4600696E66002DE9F0478146164687
:100FE0008AB0354878440DC88DE80D003248784401
:100FF000801C03AC0DC884E80D0041F69B3008440A
:10100000372190FBF1F290FBF1F5A5F1800501FB92
:1010100012041B3C02D56442012000E00020DFF8EE
:1010200098A080460027FA44AAF1BE0A0EE0E00725
:101030000AD03246684607EB470101230AEB8101DB
:1010400000F03AFB8DE8070064107F1C002CEED105
:10105000194F7F44AE3F19E0E80715D007EB0410A5
:101060000DF1180A90E80E008AE80E00C068F04200
:1010700001D1981908903246012306A903A800F06F
:101080001BFB03AB83E807006D10641C002DE3D14C
:101090004FF0010332466946B8F1000F03A802D0B1
:1010A00000F0F5FA01E000F007FBC9E90001C9F81A
:1010B00008200AB0BDE8F087CC89010010B500F027
:1010C00039F8BDE8104000F02FB870477546FFF7BB
:1010D000F9FEAE4605006946534620F007008546F6
:1010E00018B020B5FFF702F9BDE820404FF0000628
:1010F0004FF000074FF000084FF0000B21F0070100
:10110000AC46ACE8C009ACE8C009ACE8C009ACE842
:10111000C0098D46704710B50446AFF300802046E5
:10112000BDE81040FFF7BEB8002801D0FFF7C4BEED
:101130007047000010B5002102A000F013F8012054
:1011400010BD0000534947414252543A2041626E5B
:101150006F726D616C207465726D696E6174696F18
:101160006E00000070B505460C460A2000E06D1CBC
:10117000FFF79AFE35B128780028F8D102E0641C08
:10118000FFF792FE14B120780028F8D1BDE8704036
:101190000A20FFF789BE5FEA400C08BF91F0000FFC
:1011A0004FEA8C234FEAC12243EA51514FEA1C50C7
:1011B00018BF00F5F0404FEA300018BF41F0004181
:1011C0005FEA6C5C00F02980BCF1FF3F08BF40F093
:1011D00080407047130C06BF12044FF0100C4FF004
:1011E000000C130E04BF12020CF1080C130F04BF05
:1011F00012010CF1040C930F04BF92000CF1020CCD
:10120000D30F04BF52000CF1010C11464FF0000245
:10121000A0F11F00A0EB0C00704711F0004F08BFB9
:10122000704731F000413FF4D5AF0B0C06BF090405
:101230004FF0100C4FF0000C0B0E04BF09020CF124
:10124000080C0B0F04BF09010CF1040C8B0F04BF39
:1012500089000CF1020CCB0F04BF49000CF1010C0A
:10126000CCF12003A0EB0C0022FA03F302FA0CF2FB
:1012700041EA030100F10100704720F07F4C80EA51
:10128000030023F07F47ACEB070303F57C5300F02A
:10129000004003F1FF032DE980494FEA154B09B4E3
:1012A0004FEA144325EA0B4E24EA03480FF20426C2
:1012B00006EB132749083E785FEA320203FB066714
:1012C000C7F5000707FB06F64FEA54374FEAD64644
:1012D00006F1020607FB066CCCF1005C4FEA1C47E6
:1012E0002CEA074C07FB06F40CFB06F504EB15464D
:1012F0004FEA961634BF00204FF000404FEAD13736
:1013000006FB07FC4FEA1C4C0CFB0BF7D21B03FB44
:101310000CF761EB07010CFB0EF7B0EB074072EB2B
:1013200017420CFB08F734BFA2EB0742B2EB0742AF
:1013300061EB17414FEA0C444FEA910706FB07FCAB
:101340004FEA1C4C0CFB0BF7B0EBC74072EB57326B
:1013500003FB0CF734BFA2EBC742B2EBC74261EB11
:1013600057310CFB0EF7B0EBC70072EB57720CFB5A
:1013700008F734BFA2EBC702B2EBC70261EB5771AB
:10138000039F4FEA816141EA921104EBCC044FEADA
:10139000D1374FEA826206FB07FC42EA90124FEA1D
:1013A00080604FEA1C4C0CFB0BF7D21B03FB0CF7C5
:1013B00061EB07010CFB0EF7B0EB074072EB174235
:1013C0000CFB08F734BFA2EB0742B2EB074261EB1C
:1013D00017414FEA8C554FEA910704EB9C2406FB1A
:1013E00007FC4FEA1C4C0CFB0BF7B0EBC74072EB51
:1013F000573203FB0CF734BFA2EBC742B2EBC74234
:1014000061EB57310CFB0EF7B0EBC70072EB577274
:101410000CFB08F734BFA2EBC702B2EBC70261EBCB
:10142000577115EB4C254FEA816141EA92114FEA61
:1014300082624FEAD13742EA901206FB07FC44F180
:1014400000044FEA80604FEA1C4C0CFB0BF7D21BE8
:1014500003FB0CF761EB07010CFB0EF7B0EB074049
:1014600072EB17420CFB08F734BFA2EB0742B2EB5A
:10147000074261EB174115EB1C154FEA813141EA38
:1014800092414FEA823242EA90424FEA80304FEA7C
:101490000C7644F1000448EA03434EEA0B484FF04F
:1014A000000EB2EB080C71EB030724BF624639460D
:1014B0004EEB0E0E4FF0000B0018524149414BEB22
:1014C0000B0BB2EB080C71EB03077BF1000B24BF95
:1014D000624639464EEB0E0E4FF0000B001852419B
:1014E00049414BEB0B0BB2EB080C71EB03077BF1A3
:1014F000000B24BF624639464EEB0E0E51EA02073E
:1015000018BF46F0010616EB0E7655F1000254F1B5
:10151000000103D5BDE88901BDE80088BDE8890167
:10152000BDE80048B619524141EB0101A3F10103A6
:10153000704780807F7E7D7C7B7A79787776767540
:101540007473727171706F6E6E6D6C6C6B6A6A69B8
:101550006868676666656464636362616160605F52
:101560005F5E5E5D5D5C5C5B5B5A5A5959585857CB
:101570005756565555555454535352525251515033
:1015800050504F4F4F4E4E4D4D4D4C4C4C4B4B4B86
:101590004A4A4A49494948484847474747464646CC
:1015A0004545454444444443434343424242424107
:1015B0004141002B9C4630D477002BD01CB54FEA1C
:1015C000370703B44FF010004FF01001BAF1000FCD
:1015D00006D0BCF1000FDCBF40F0080040F008016D
:1015E0004FF000000FBCBDE810400BF1010BBBF148
:1015F000010F08BF5FEA170722BF12F1010211F1C4
:1016000001014FF0004143F1000300F0004043EAC4
:1016100000007047F9D35708D0E746EA064613F1B1
:10162000400F4FEA16461FDD13F1200FDFBF1643B0
:101630000A46002120335B42BED0C3F1200746EAB0
:10164000064602FA07F74FEA164646EA0706C3F1CE
:10165000200722FA03F201FA07F721FA03F14FF00B
:10166000000342EA0702A7E746EA020646EA064600
:101670004FEA164646EA0106BCBF46EA0646360C65
:101680004FF000034FF000024FF0000194E72DE906
:10169000804C9A46934670B491E8380007C831EA06
:1016A000400C48BF34EA430C03D5FFF7E6FDFFF7D3
:1016B00080FFF0BCBDE8008C2DE9804C9A46934633
:1016C00070B491E8380007C810F0804F08BF13F0DD
:1016D000804F03D100F005F8FFF76BFFF0BCBDE8C9
:1016E000008C20F07F4780EA030023F07F4C07EB5B
:1016F0000C03A3F57C5300F00040A3F1FE0392F02D
:10170000000F00F0B38095F0000F00F077802DE916
:1017100001494FEA11404FEA144621EA004800FB14
:1017200006FC24EA064708FB06F607FB08F800FB60
:1017300007F718EB06484CEB164C4FEA124B18EB28
:1017400007484FEA15464CEB174022EA0B4E0BFBBD
:1017500006FC25EA06470EFB06F607FB0EFE0BFB12
:1017600007F71EEB064E4CEB164C4FF000061EEB37
:10177000074E4CEB174B18EB0B0840F1000018EB31
:101780000E0B58EB000840F100008F1A4FF00001DB
:101790003CBFC943661B14BFB5EB040C00213CBF22
:1017A000C943F61B4FEA17444EEA8E0E27EA04455A
:1017B0004FEA1C4704FB07622CEA074C05FB07F7BE
:1017C0000CFB05F604FB0CFC16EB074642EB17423C
:1017D00016EB0C4642EB1C421BEB060658EB0202D2
:1017E000414146EA9E0601D5BDE80189B61952413C
:1017F00041EB0101A3F10103BDE801894FEA144562
:101800004FEA114724EA054621EA074C05FB07F495
:1018100006FB07F70CFB06F105FB0CFC11EB07417F
:1018200044EB17444FEA124711EB0C4144EB1C44C4
:1018300022EA074C05FB07F206FB07F70CFB06F64E
:1018400005FB0CFC16EB074642EB174216EB0C4669
:1018500042EB1C456A1854F1000148BF7047B619A5
:10186000524141EB0101A3F10103704795F0000FD4
:1018700037D04FEA11424FEA144721EA024624EAE0
:10188000074C02FB07F106FB07F70CFB06F402FB13
:101890000CFC14EB074441EB17414FEA154714EBDE
:1018A0000C4441EB1C4125EA074C02FB07F506FB03
:1018B00007F70CFB06F602FB0CFC16EB074645EBA4
:1018C000174516EB0C4645EB1C42121951F100016D
:1018D00048BF7047B619524141EB0101A3F1010322
:1018E00070474FEA14454FEA114724EA054621EABA
:1018F000074C05FB07F106FB07F70CFB06F24FF060
:10190000000605FB0CFC12EB074241EB174112EB02
:101910000C4251EB1C4148BF7047921841EB01014A
:10192000A3F1010370470000EFF3098141B1F1EE2B
:10193000101A40F8041D20ED200A3E490A68106084
:101940007047B0EC200A02C8E1EE101A3A490A6862
:101950001060704772B64EF62250CEF2000040F290
:10196000FF01C0F2000101704FF0000080F3098810
:101970000DF096FA40F24440C2F20000016881F393
:10198000088840F2CA30C2F2000040F2CB31C2F205
:1019900000010A78027040F23C45C2F2000540F2B4
:1019A0004041C2F200010A682A60106880F3098889
:1019B000EFF3148040F0020080F31488BFF36F8FC0
:1019C000BDE8F00F0FBCBDE8005006BC62B608478A
:1019D0001A484FF080510160704718484FF080510D
:1019E0000160704772B6EFF3098020E9F00F40F212
:1019F0003C45C2F200052E68306074460DF050FA86
:101A000040F2CA30C2F2000040F2CB31C2F2000113
:101A10000A78027040F24041C2F200010A682A606E
:101A200044F0F40E1068B0E8F00F80F3098862B655
:101A3000704700003C0400204004002004ED00E05A
:101A400070B504465B4D686820F440306860686893
:101A50006168084368602068406820F480702168ED
:101A6000486020684168206941EA00202168486098
:101A70002068406820F04070216848602068406815
:101A8000A1680843216848602068806820F40060ED
:101A90002168886020688068E16808432168886060
:101AA0004549A06A884218D02068806820F070609C
:101AB0002168886020688068A16A0843216888607E
:101AC0002068806820F04050216888602068806825
:101AD000E16A0843216888600BE02068806820F094
:101AE0007060216888602068806820F0405021681C
:101AF00088602068806820F0020021688860206883
:101B00008168207E41EA4000216888602020005DD5
:101B1000F8B1606A18B1606A082800D804E040F2A1
:101B2000777126A014F020FB2068406840F4006024
:101B3000216848602068406820F46040216848605F
:101B400020684168606A401E41EA40302168486070
:101B500005E02068406820F4006021684860206843
:101B6000C06A20F470002168C8622068C16AA08B36
:101B7000401E41EA00502168C8622068806820F455
:101B80000070216888602068816894F8300041EA1C
:101B90004020216888602068806820F48060216887
:101BA000886020688168606941EA802021688860D7
:101BB00070BD0000002301400100000F2E2E5C4C80
:101BC0006962726172795C53544D3332463478786D
:101BD0005F48414C5F4472697665725C5372635C26
:101BE00073746D3332663478785F68616C5F6164FA
:101BF000632E63000EB500BF00BF00F077FD02A8A2
:101C00000CF07EFC00200346024673A1009011F008
:101C100079F800200346024671A1009011F01EF8E9
:101C200000F04CF912F09CFA11F06AFD11F032FF4D
:101C30000BF080FE12F074F801F052FA00F022FF6F
:101C40000BF05EFDC6E002A800210B460122CDE9A3
:101C5000001008460DF0C0F901F048FC0446234688
:101C600061A20021084611F055F9502C51D00DDC2D
:101C70004B2C30D005DCC4B1202C1BD0462C70D1AD
:101C80001FE04C2C31D04D2CF9D138E0692C6AD0B2
:101C900006DC512C47D05A2C4FD0642C7ED156E014
:101CA0006E2C6AD0782C79D171E0022011F02EFCD4
:101CB000554D79E00FF06EFC032011F027FC534DD9
:101CC00072E00FF0ADFC052011F01AFC042011F0B9
:101CD0001DFC4F4D68E00FF0F1FC0F2011F010FCDF
:101CE000052011F013FC4B4D5EE00FF02FFD0F208F
:101CF00011F006FC062011F009FC474D54E00FF0EE
:101D000071FD002011F0FCFB072011F0FFFB434D9B
:101D10004AE00FF0B3FD002011F0F2FB082011F0B3
:101D2000F5FB3F4D40E00FF0F9FD642011F0E8FBBA
:101D3000092011F0EBFB3B4D36E00FF053FE002085
:101D400011F0DEFB0A2011F0E1FB374D2CE00FF023
:101D500045FB002011F0D4FB0B2011F0D7FB334DD5
:101D600022E01BE0FFE70FF087FB012011F0C8FB2A
:101D70000C2011F0CBFB2E4D16E00FF0C5FB01201F
:101D800011F0BEFB012011F0C1FB2A4D0CE00FF059
:101D900081FE012011F0BAFB264D05E026A20021AC
:101DA000084611F0B7F800BF00BF2AA2002108467C
:101DB00011F0B0F802A800231A46194600902846F0
:101DC0000CF00EFABDF8080020B92AA2002108463E
:101DD00011F0A0F837E700005254545550000000AD
:101DE000525454444F574E002D2D3E20437572726D
:101DF000656E742072756E2073746570206973202F
:101E000025642E2E2E0D0A00B00F0020D80F0020C2
:101E10000010002028100020501000207810002012
:101E2000A0100020C8100020F01000201811002081
:101E300040110020880F002064656661756C742075
:101E40006361736520636F6E646974696F6E2E2EB3
:101E50002E0D0A0057616974696E6720666F7220E3
:101E600074686520737465702073656D2E2E2E0D59
:101E70000A00000057656E7420746F207468652036
:101E80006E65787420737465702C2E2E2E0D0A00EA
:101E900010B50021082011F05FFA9FED020A11F041
:101EA00065F910BD0000000010B50121082011F0F7
:101EB00053FA00F09BFC10BD7047000010B50024E1
:101EC00000BF00BFFEF72CFA044600BF00BF0E485B
:101ED0000E4908600E480F4908600F480F49086016
:101EE0000F4810490860104810490860104811490F
:101EF000086011481149086000BF00BF2046FEF786
:101F000013FA00BF00BF10BD431F0008900300205C
:101F1000451F000894030020471F00089803002075
:101F2000B91E00089C030020411F0008A0030020E8
:101F3000491F0008A40300204D1F0008A80300202B
:101F400070477047704770477047000008B50948F0
:101F50000088401C0749088008460088B0F57A7F51
:101F600006D3002008806A46002103480CF0ECF9F3
:101F700008BD000048040020C018002010B5002152
:101F80000C2011F0E9F99FED020A11F07BFA10BD67
:101F90000000000010B501210C2011F0DDF900F067
:101FA00041FC10BD10B50BF017FB10BD10B504F0CF
:101FB0001BFD0446204610BD10B50BF0C3F800F021
:101FC000E7FBF02013F09CFD00220421044803F0FD
:101FD0000BFC00220821024803F006FC10BD0000A3
:101FE000001C024010B50BF0BBFA0BF0F7FB0BF036
:101FF000FFFB10BD10B50BF019F90AF053FD10BD31
:102000007047000010B504462146024805F0BBFFAA
:1020100010BD00007807022010B5044805F0C6FF87
:10202000042801D0012010BD0020FCE77807022021
:1020300010B5002400F00CF8012801D0032010BDD9
:102040000BF0D2F804460CB12046F8E72046F6E73C
:1020500010B501240821034803F092FB00B10024CD
:10206000204610BD000C02402DE9F84304460D4601
:1020700016461F464FF0000833462A4621460548BB
:10208000009706F03FFA08B14FF001084046BDE85E
:10209000F883000078070220704700002DE9F8431C
:1020A00004460D4616461F464FF0000833462A46A2
:1020B00021460548009706F055FB08B14FF001088E
:1020C0004046BDE8F883000078070220704710B54D
:1020D0000BF01AF843F2175011F036F848F25D0091
:1020E00011F032F80A2014F067FA10BD10B501F0B3
:1020F000BBF90446FFF7ACFF012815D1134914487A
:1021000001F0E2F800221149124815F0A5FB08B9C8
:10211000012405E010A20021084610F0FBFE022475
:102120000120154908700EE01348007801280AD1F3
:1021300000220649104615F08FFB044801F0F8F81C
:1021400000200D490870204610BD000077030020D4
:1021500000950108E80802202D2D3E2046415446F6
:102160005320665F6D6F756E74206572726F722E8C
:102170002E2E0D0A00000000D901002010B52DED13
:10218000028BB0EE408AB5EEC08AF1EE10FA02DDA5
:1021900000F0B4F801E000F0A5F89FED080A28EE81
:1021A000000ABCEEC00A10EE100A84B221460820D4
:1021B00011F04CF8BDEC028B10BD000014AE2341B1
:1021C00010B52DED028BB0EE408AB5EEC08AF1EE6F
:1021D00010FA02DD00F0ACF801E000F09BF89FED92
:1021E000080A28EE000ABCEEC00A10EE100A84B2FB
:1021F00021460A2011F02AF8BDEC028B10BD000028
:1022000014AE234110B52DED028BB0EE408AB5EE31
:10221000C08AF1EE10FA02DD00F0F4F801E000F0FF
:10222000E5F89FED080A28EE000ABCEEC00A10EEA1
:10223000100A84B22146092011F008F8BDEC028B87
:1022400010BD000014AE234110B52DED028BB0EE91
:10225000408AB5EEC08AF1EE10FA02DD00F0ECF82B
:1022600001E000F0DBF89FED080A28EE000ABCEE62
:10227000C00A10EE100A84B221460B2010F0E6FFCF
:10228000BDEC028B10BD000014AE234110B52DED46
:10229000028BB0EE408AB5EEC08AF1EE10FA02DD94
:1022A00000F0FEF801E000F0EDF8B2EE040A28EECE
:1022B000000ABCEEC00A10EE100A84B2204611F0EB
:1022C000A9F9BDEC028B10BD10B50446207820B9E9
:1022D0000120207012F0A4F803E00020207012F01A
:1022E0007DF810BD10B500221021034803F07CFAE0
:1022F00001200EF007FF10BD0010024010B50122B2
:102300001021034803F070FA012011F039F810BDD4
:102310000010024010B500224FF48071034803F012
:1023200063FA03200EF0EEFE10BD00000020024014
:1023300010B501221102034803F056FA032011F0F0
:102340001FF810BD0020024010B5002204210248F1
:1023500003F04AFA10BD00000010024010B501223F
:102360000421024803F040FA10BD000000100240B2
:1023700010B500224FF40061034803F035FA07203E
:102380000EF0C0FE10BD00000020024010B501227A
:10239000D102034803F028FA072010F0F1FF10BD26
:1023A0000020024010B50AF063FD0AF00BFC0AF0B1
:1023B000ADFC0AF0EBFC0AF0E3FE0AF05FFF0AF066
:1023C000ADFF0AF0FBFF0BF053F80BF0EDF90BF04B
:1023D000E9F80AF009FFFFF7E5FDFFF70BFEFFF74D
:1023E000EBFDFFF774FEFFF7FDFD10BD10B50022F9
:1023F0004021034803F0F8F902200EF083FE10BDDF
:102400000010024010B501224021034803F0ECF90E
:10241000022010F0B5FF10BD0010024010B50022E0
:102420004FF40051034803F0DFF904200EF06AFE78
:1024300010BD00000008024010B5012251030348FE
:1024400003F0D2F9042010F09BFF10BD00080240F9
:1024500010B500224FF48061034803F0C5F906204F
:102460000EF050FE10BD00000020024010B5012209
:102470009102034803F0B8F9062010F081FF10BD67
:102480000020024010B500224FF40071034803F011
:10249000ABF905200EF036FE10BD00000020024012
:1024A00010B501225102034803F09EF9052010F0F7
:1024B00067FF10BD0020024010B50022082103482C
:1024C00003F092F900200EF01DFE10BD0010024036
:1024D00010B501220821034803F086F9002010F00E
:1024E0004FFF10BD0010024010B50022012103482B
:1024F00003F07AF908200EF005FE10BD001402402A
:1025000010B501221146034803F06EF9082010F0BF
:1025100037FF10BD0014024010B50022022103480D
:1025200003F062F909200EF0EDFD10BD0014024029
:1025300010B501220221034803F056F9092010F0DA
:102540001FFF10BD0014024010B5002204210348F3
:1025500003F04AF90A200EF0D5FD10BD0014024028
:1025600010B501220421034803F03EF90A2010F0BF
:1025700007FF10BD0014024010B5002208210348D7
:1025800003F032F90B200EF0BDFD10BD0014024027
:1025900010B501220821034803F026F90B2010F0A2
:1025A000EFFE10BD0014024010B500224021034888
:1025B00003F01AF90E200EF0A5FD10BD0014024024
:1025C00010B501224021034803F00EF90E2010F04F
:1025D000D7FE10BD0014024010B500222021034890
:1025E00003F002F90D200EF08DFD10BD0014024025
:1025F00010B501222021034803F0F6F80D2010F059
:10260000BFFE10BD0014024010B500221021034887
:1026100003F0EAF80C200EF075FD10BD0014024026
:1026200010B501221021034803F0DEF80C2010F051
:10263000A7FE10BD00140240F0B52DED028B85B051
:10264000B0EE408AF0EE608A04460025002600279E
:102650001CA30FCBCDE90323CDE901019FED1D0A9A
:1026600028EE000ABCEEC00A10EE100A86B29FEDFA
:10267000190A28EE800ABCEEC00A10EE100A87B2D2
:102680008DF80740300A8DF80B00F0B28DF80C0081
:10269000380A8DF80D00F8B28DF80E00072102A857
:1026A00000F02AFF0546280A8DF80F00E8B28DF8E1
:1026B00010000D2101A812F019FA05B0BDEC028B33
:1026C000F0BD0000A0A0A0FF080010000000000066
:1026D000000000000000C84200BFFEE710B502483D
:1026E00001F0DCFC10BD0000FCFD012010B500F085
:1026F0001FF800F019F810BD10B5002400BF00BF8E
:10270000FDF70EFE044600BF00BF102105480AF089
:1027100093FF00BF00BF2046FDF706FE00BF00BFCD
:1027200010BD0000B011022010B5FFF7E5FF10BD8D
:1027300010B500200249086000F00AF810BD000042
:1027400084030020014908607047000084030020D2
:1027500010B5FFF72BFC04460848006840F0807075
:10276000064908600020064948600846006840F0B5
:10277000010008602046FFF7E5FF10BDFCED00E01A
:10278000001000E00149486870470000001000E0B8
:1027900010B50C20124908600120486000208860B4
:1027A000C860104802F0A0FD012204210D4803F08A
:1027B0001BF8002208210B4803F016F84FF4804064
:1027C000074908600120486000208860C86006480A
:1027D00002F08AFD01229103034803F005F810BDC1
:1027E00058FE0120001C02400014024008200A4943
:1027F00008700221084881749FED080A80ED010AE3
:102800009FED070A80ED020A042101824FF4FA715C
:1028100081822821C1827047AC51002052B85E3FAE
:102820009A99993F0C200A4908700121084881743F
:10283000B3EE010A80ED010AB2EE0E0A80ED030A42
:10284000062101824FF47A7181826421C18270472E
:10285000D05100200146034801804FF0C840B0F835
:1028600000017047FE000064034A10804FF0C84228
:10287000A2F8001170470000FE00006410B5024885
:1028800002F0D8F810BD000084FD012010B5024808
:1028900002F0D0F810BD0000D804022010B50248A4
:1028A00002F0C8F810BD00005802022010B502481E
:1028B00002F0C0F810BD0000FC07022010B502486D
:1028C00002F0B8F810BD000024FD012010B5024848
:1028D00002F0B0F810BD00005C08022010B50248FC
:1028E00002F0A8F810BD0000B802022070B50E4832
:1028F0000588FE20FFF7AEFF04462146FE20FFF7C5
:10290000B3FF04F0040020B108A20021084610F033
:1029100001FB04F0080020B108A20021084610F0D5
:10292000F9FA0148058070BDFE0000642D2D3E6F50
:10293000766572666C6F77200D0A00002D2D3E6F54
:10294000766572666C6F7720636F756E7465722042
:102950006F766572666C6F77200D0A000146087805
:1029600010381823B0FBF3F20848805CC865032ACE
:1029700005D908686FF30900001D886503E0086841
:102980006FF309008865886D70470000F8940108AE
:10299000014600208A6A8B69CBB932B1012A0DD079
:1029A000022A03D0032A10D10EE000BFCB6A03F045
:1029B0008073B3F1807F00D1012007E0CB6AB3F1CF
:1029C000C07F00D1012001E000E000BF34E08B694E
:1029D000B3F5005F1AD132B1012A07D0022A03D021
:1029E000032A11D10AE000BF01200EE0CB6A03F0F8
:1029F0008073B3F1807F00D1012006E0CB6AB3F190
:102A0000C07F00D1012000E000BF15E032B1012AF3
:102A100005D0022A04D0032A0CD103E000BF00BF76
:102A2000012008E0CB6A03F08073B3F1807F00D10E
:102A3000012000E000BF00BF704730B50468246883
:102A400024F4802405682C60046863608468402C4A
:102A500004D10468A2600468E16003E00468A16036
:102A60000468E26030BD0EB50AE002A800210B4602
:102A70000522CDE9001008460CF0AEFA0EF0AAFBD4
:102A8000F3E7000000B58BB00AA8032100220592ED
:102A9000CDE90621089005204FF4806166220B4B9A
:102AA000CDE90132CDE9031013200023084A09A122
:102AB000009010480BF0A6FDBDF828300EA20021B2
:102AC000084610F027FA0BB000BD0000C82D00200A
:102AD000672A0008446174612053617665206D6146
:102AE0006E61676572205461736B205374617274F8
:102AF00000000000082D00204372656174656420A9
:102B00006E6574776F726B206D616E6167657220A0
:102B10005461736B2C20616E642065727220636F48
:102B200064652069732025642E2E2E0D0A00000096
:102B30007047000070B52DED028B9FED8B0AF0EE13
:102B4000408A002000F04AFC022801D100F06CF914
:102B5000012000F043FC022801D100F0E3F902203B
:102B600000F03CFC022801D100F066FA0C2000F0D5
:102B700035FC012827D17D48C18B008A814205DAC6
:102B80007A48C08B401C7949C8831CE0022000F0C1
:102B90002BFC85B2EAB23521744808F035FF734842
:102BA000808B00EE100AB8EE400AF2EE040A80EEC6
:102BB000201AB0EE418AB0EE480A10F063FC002003
:102BC0006A49C88300BF082000F008FC012837D1FB
:102BD0006748C18B008A814205DA6548C08B401C7A
:102BE0006349C8832CE0032000F0D0FBBCEEC00A90
:102BF00010EE100A85B2042000F0C8FBF0EE000AC7
:102C000020EE200ABCEEC00A10EE100A86B2EAB22C
:102C1000F1B2574808F0F8FE5548808B00EE100AD4
:102C2000B8EE400AF2EE040A80EE201AB0EE418AB5
:102C3000B0EE480A10F09AFA00204D49C88300BF50
:102C40004C480078012819D1052000F09FFBDFEDEA
:102C50004A0AB4EEE00AF1EE10FA0FDDFFF796FB38
:102C600000204449087045A20021084610F052F99E
:102C7000F6EE000A9FED4A0A10F020FB0F2000F04C
:102C8000ADFB022841D100F031FC0446512C3BD170
:102C900044480078002831D043480078012817D0F4
:102CA000424800780A2805DA40480078401C3F492D
:102CB00008700DE001203C4908703DA20021084643
:102CC00010F028F9F6EE000A9FED350A10F0F6FA3A
:102CD00035480078C8B13C480078032805DC3A48FC
:102CE0000078401C384908700FE038A200210846DF
:102CF00010F010F900203449087006E03BA20021D2
:102D0000084610F007F900E000BF41480078A0B184
:102D100040480078022805DC3E480078401C3D49C8
:102D200008700AE000203B4908703B48D0ED000ADB
:102D30003A4890ED000A10F0C1FA062000F04EFB70
:102D400002280ED1364890ED000ADFED360AB4EEC7
:102D5000E00AF1EE10FA02D2FFF74AFC01E0FFF7B9
:102D60003BFCBDEC028B70BD00000000D051002088
:102D7000AC51002044000020000082422D2D3E2056
:102D80004B4D2D3031206A75646765206F70656E1C
:102D90002066696E69736865642E2E2E0D0A000028
:102DA00000005642BE0100202F0000202E0000200F
:102DB0002D2D3E2044432053746172742075702081
:102DC0006F6B2E2E2E0D0A002D0000202D2D3E2083
:102DD000506F776572206C6F616420757020657626
:102DE0006572792033532E2E2E0D0A002D2D3E2094
:102DF0004443205374617274206C6F616420757059
:102E00002066696E69736865642E2E2E0D0A0000B7
:102E10008C01002030000020840100208801002067
:102E2000700000200000FA4310B500F05FFB462858
:102E300016DA072000F0AAFAF7EE000AB4EEE00A6C
:102E4000F1EE10FA09D3082000F0A0FAF7EE000A1C
:102E5000B4EEE00AF1EE10FA02D21E2000F00EF8F5
:102E600010BD000070B504460D46FFF725FB00209D
:102E70000149087070BD00001E00002010B586B02A
:102E800004461848007801282AD0234616A20021BB
:102E9000084610F03FF805A91A480CF089F9002CF3
:102EA0001CDDFFF715FB01201749087005A800215C
:102EB000164A0123CDE90032CDE90210642004FB5B
:102EC00000F20B4612A10F480CF036F9BDF81400C1
:102ED00030B905A90B480CF0B5F901E0FFF7ECFAA1
:102EE00006B010BD1F00002053562D313020776FE3
:102EF000726B20666F72202564207365632E2E2E00
:102F00000D0A0000B01600201E000020652E0008EB
:102F100053562D313020436F6E74726F6C2054699C
:102F20006D65720010B500F0E1FA462816DA072048
:102F300000F02CFAF7EE000AB4EEE00AF1EE10FA17
:102F400009D3082000F022FAF7EE000AB4EEE00AF6
:102F5000F1EE10FA02D21E2000F01CF810BD0000A5
:102F600070B504460D46FFF7BFFA0020034908700C
:102F700003A2002108460FF0CDFF70BD1F00002006
:102F800053562D313120776F726B20656E642E2E73
:102F90002E0D0A0010B586B00446184800780128A6
:102FA0002AD0234616A2002108460FF0B3FF05A938
:102FB0001A480CF0FDF8002C1CDD01200F490870A8
:102FC000FFF79EFA05A80021154A0123CDE900323A
:102FD000CDE90210642004FB00F20B4611A10F485A
:102FE0000CF0AAF8BDF8140030B905A90B480CF094
:102FF00029F901E0FFF778FA06B010BD1F000020A4
:1030000053562D313120776F726B20666F722025F9
:1030100064207365632E2E2E0D0A0000E01600203A
:10302000612F000853562D313120436F6E74726F3B
:103030006C2054696D65720010B500F057FA5A287B
:1030400024D113480088401C114908800846008894
:10305000B0F5617F1ADB0F480078012804D0FFF734
:1030600067FA01200B4908700B480088401C0A4988
:10307000088008460088542808DBFFF74DFA002036
:1030800004490870044908800149088010BD000007
:10309000280000202C0000202A00002010B501E0AC
:1030A000FFF724FC034800680028F9D040200249BB
:1030B000086010BD18024342143C01400EB502A93D
:1030C00000200BF0DBFE0AE002A800210B460122E3
:1030D000CDE9001008460BF07FFF00F05DF8F3E744
:1030E00000B58BB00AA8032100220592CDE9062184
:1030F000089005204FF4807119220B4BCDE9013265
:10310000CDE9031012200023084A09A100901148BC
:103110000BF078FABDF828300FA2002108460FF016
:10312000F9FE0BB000BD0000E01E0020BD3000081D
:10313000416C61726D20616E64206572726F7220E5
:103140006D616E61676572207461736B2073746169
:1031500072740000201E0020437265617465642053
:10316000416C61726D20616E64206572726F7220B5
:103170006D616E61676572205461736B2C20616EA6
:10318000642065727220636F646520697320256412
:103190002E2E2E0D0A00000010B500F0A7F90446EF
:1031A00000205FE0314901EB00118979A14252DC36
:1031B0002E4901EB0011C979A1424CDB2B4901EBEF
:1031C00000118989491C8AB2284901EB00118A81C2
:1031D000264901EB00118989244A02EB00129288EA
:1031E00091423DDD214901EB00110978012916D1F9
:1031F0001E4901EB001149891C4A02EB0012B2F989
:103200000220914205DD0121184A02EB00121172E1
:103210001BE00021154A02EB0012117215E0134960
:1032200001EB00114989114A02EB0012B2F90220A8
:10323000914205DA01210D4A02EB0012117204E0FD
:1032400000210A4A02EB001211720022074901EB29
:1032500000118A8104E00022044901EB00118A81F7
:10326000411CC8B207289DDB10BD00005023002080
:1032700008B54FF4A47004A307A2002100900846EB
:103280000FF048FE08BD00002E2E5C555345525CE1
:103290006D61696E2E63000057726F6E67207061FA
:1032A00072616D65746572732076616C75653A2024
:1032B00066696C65202573206F6E206C696E6520D1
:1032C00025640D0A0000000030B504460D460022BA
:1032D0002946204600F002F830BD0000F0B5034654
:1032E000012500241148407A01281CDA00200F4EE5
:1032F000767A0E4FB8553846467A001D40F826308B
:10330000001F467A083082553E46707A461C7E720F
:10331000044604F1300008703A2048702F2088706D
:103320000020C87000252846F0BD0000DC080220FF
:1033300010B504460021204600F002F810BD000040
:1033400030B502460B46002101200D4C647A012C59
:1033500014DB1478303CE1B2094C241D54F82140B0
:1033600064B10025064C241D44F82150241D6554E9
:10337000083C647A641E024D6C72002030BD00006F
:10338000DC0802200048704760FC0120024901EB84
:10339000800191ED000A7047884B0020004870477B
:1033A000884B0020014890ED000A7047280100205A
:1033B000014890ED000A70472C0100200148007878
:1033C000704700004800002010B50446142202494E
:1033D0002046FDF718FA10BD80FC01200146014887
:1033E000405C7047381700200146024830F9110050
:1033F0007047000098510020004870479851002005
:1034000008B502480068009008BD00005200002086
:103410000148008870470000D0010020014890ED6D
:10342000000A704730010020014890ED000A704703
:1034300034010020014890ED000A70473801002057
:10344000F0B50446104609E0051214F8016B6E4011
:10345000F6B233F8166086EA0026B0B20E1EA1F16D
:103460000107B9B2F0DCF0BD0148007870470000F8
:10347000D8010020014890ED000A70477401002037
:10348000014890ED000A70477001002010B52DED45
:10349000028B0420FFF77AFFB0EE408A0520FFF789
:1034A00075FF28EE000A044880ED000A90ED000A3E
:1034B000BDEC028B10BD00007000002001480088A8
:1034C000704700000A000020014800887047000093
:1034D000040000200148008870470000060000201A
:1034E0000148007870470000AB00002001480078D8
:1034F000704700006800002030B504460D46034BBD
:10350000002229462046FFF79BFF30BDD4900108DA
:10351000F8B505460C46002000902068122803D913
:103520007A492068884200D104E040F25A6178A0CC
:1035300012F01AFE606818B16068102800D804E024
:1035400040F25B6172A012F00FFEA068A0B1A0680B
:10355000012811D0A06802280ED0A06803280BD043
:10356000A068042808D0A068052805D0A06806280F
:1035700002D0A068072800D104E040F25C6164A09A
:1035800012F0F2FD00BF95F83C00012801D10220A5
:10359000F8BD012085F83C0000BF2068092816D935
:1035A0002868C06821780A3901EB4102072191405F
:1035B00088432968C86021780A3901EB4101A06875
:1035C00088402968C96808432968C86013E02868EA
:1035D0000069217801EB4102072191408843296865
:1035E0000861217801EB4101A068884029680969D8
:1035F0000843296808616068072817D22868406B6B
:103600002179491E01EB81021F21914088432968DD
:103610004863208880B22179491E01EB81018840EE
:103620002968496B08432968486331E060680D28C0
:1036300017D22868006B2179C91F01EB81021F2175
:103640009140884329680863208880B22179C91F86
:1036500001EB810188402968096B084329680863E8
:1036600016E02868C06A21790D3901EB81021F211B
:10367000914088432968C862208880B221790D3939
:1036800001EB810188402968C96A08432968C8623A
:103690002D4E2E49286888420AD12068122807D169
:1036A000706820F400007060706840F48000706002
:1036B00026492868884222D114492068884202D0CD
:1036C000206811281BD1706820F480007060706839
:1036D00040F4000070600D49206888420FD11C48FA
:1036E00000681C49B0FBF1F000EB80004000009046
:1036F00002E00098401E009000980028F9D100BF19
:10370000002085F83C0000BF00BF41E71200001018
:103710002E2E5C4C6962726172795C53544D333267
:10372000463478785F48414C5F4472697665725CD4
:103730005372635C73746D3332663478785F68619A
:103740006C5F6164632E6300002301400020014030
:103750000000002040420F0070B5044600250CB95F
:10376000012070BD8B492068884207D08A492068B3
:10377000884203D089492068884200D104E040F2A1
:10378000431187A012F0F0FC606858B16068B0F592
:10379000803F07D06068B0F5003F03D06068B0F5A7
:1037A000403F00D104E04FF4A2717DA012F0DCFC98
:1037B000A06858B1A068B0F1807F07D0A068B0F1D0
:1037C000007F03D0A068B0F1407F00D104E040F258
:1037D000451173A012F0C8FC206910B120690128BE
:1037E00000D104E04FF4A3716DA012F0BDFC207E67
:1037F00010B1207E012800D104E040F2471168A0FA
:1038000012F0B2FCA06AE8B3A06AB0F1807F3DD0AC
:10381000A06AB0F1007F39D0A06AB0F1407F35D006
:10382000A06AB0F1806F31D0A06AB0F1A06F2DD046
:10383000A06AB0F1C06F29D0A06AB0F1E06F25D0C6
:10384000A06AB0F1006F21D0A06AB0F1106F1DD056
:10385000A06AB0F1206F19D0A06AB0F1306F15D016
:10386000A06AB0F1406F11D0A06AB0F1506F0DD0D6
:10387000A06AB0F1606F09D0A06AB0F1706F05D096
:10388000554900E002E0A06A884200D104E04FF40C
:10389000A47143A012F068FCE06818B1E068B0F5CC
:1038A000006F00D104E040F249113DA012F05CFC31
:1038B000E06918B1E069102800D804E04FF4A57160
:1038C00037A012F051FC94F8300018B194F8300091
:1038D000012800D104E040F24B1131A012F044FC69
:1038E0006069012804D0606910B16069022800D1C4
:1038F00004E04FF4A6712AA012F036FC2020005DEF
:1039000018B12020005D012800D104E040F24D11E3
:1039100023A012F029FC3049A06A884213D0E06A43
:1039200058B1E06AB0F1805F07D0E06AB0F1005FA3
:1039300003D0E06AB0F1405F00D104E040F25111E1
:1039400017A012F011FC206C30B9204600F046F8A8
:103950000020606484F83C00206C00F0100088B9FE
:10396000206C20F4885040F0020020642046FEF7CE
:1039700067F800206064206C20F0020040F0010035
:10398000206400E0012500BF002084F83C0000BF57
:103990002846E6E6002001400021014000220140C7
:1039A0002E2E5C4C6962726172795C53544D3332D5
:1039B000463478785F48414C5F4472697665725C42
:1039C0005372635C73746D3332663478785F686108
:1039D0006C5F6164632E63000100000F10B586B058
:1039E0000446142101A8FCF740FF81492068884261
:1039F0007ED100BF002000907E48006840F48070B7
:103A00007C4908600846006800F48070009000BFA0
:103A100000BF00BF0020009076481438006840F4D2
:103A200080007449143908600846006800F480007A
:103A3000009000BF00BF00BF002000900846006853
:103A400040F0040008600846006800F004000090A0
:103A500000BF00BF00BF002000900846006840F093
:103A6000010008600846006800F00100009000BFF7
:103A700000BF00BF002000900846006840F0020030
:103A800008600846006800F00200009000BF00BF18
:103A90003F200190032002900020039001A9564886
:103AA00001F022FCF02001900320029000200390FE
:103AB00001A9524801F018FC032001900290002057
:103AC000039001A94E4801F00FFC4E484E49086092
:103AD0000020486000214C488160C1604FF4806143
:103AE000016149004161890081610021C16100E0FB
:103AF00014E04FF4803101620021416201F0BAF814
:103B000000BF4148A063846300BF002205213C2020
:103B100002F078FA3C2002F041FA66E03B49206866
:103B2000884262D100BF002000903248006840F413
:103B30008060304908600846006800F480600090AA
:103B400000BF00BF00BF002000902A481438006862
:103B500040F480002749143908600846006800F4E2
:103B60008000009000BF00BF00BF0020009008460A
:103B7000006840F0200008600846006800F020005F
:103B8000009000BF00BF4FF4C0600190032002907E
:103B90000020039001A91E4801F0A6FB19486038D7
:103BA0001C4908608005486000211A488160C16096
:103BB0004FF4806101614900416189008161002108
:103BC000C1614FF4803101620021416201F052F87D
:103BD00000BF1048A063846300BF00220521382085
:103BE00002F010FA382002F0D9F906B010BD00003A
:103BF000002001404438024000080240000002401A
:103C0000000402407064024024FD012000220140B3
:103C10000014024084FD012070B504460D4694F85E
:103C200020600D48854200D804E04FF4D0610BA01D
:103C300012F09AFA012E01D0022E06D120684069B6
:103C4000284321684861002070BD606A40F48020EC
:103C500060620120F8E700007F8F03002E2E5C4C8D
:103C60006962726172795C53544D333246347878AC
:103C70005F48414C5F4472697665725C5372635C65
:103C800073746D3332663478785F68616C5F63613A
:103C90006E2E63002DE9F04107460C463D6897F80B
:103CA0002080B8F1010F02D0B8F1020F7ED1206858
:103CB000B0F5803F00D204E04FF4547172A012F0CE
:103CC00053FA6068B0F5803F00D204E040F2513111
:103CD0006DA012F049FAA068B0F5803F00D204E070
:103CE00040F2523168A012F03FFAE068B0F5803F30
:103CF00000D204E040F2533163A012F035FAA0691B
:103D000010B1A069012800D104E04FF455715EA004
:103D100012F02AFAE06910B1E069012800D104E04C
:103D200040F2553158A012F01FFA206910B12069F5
:103D3000012800D104E040F2563153A012F014FAE9
:103D4000206A10B1206A012800D104E040F2573106
:103D50004DA012F009FA5A4D60691B2800D804E002
:103D600040F2723148A012F0FFF9606A1B2800D8B7
:103D700004E040F2733144A012F0F6F905F5007545
:103D8000286840F001002860286820F47C502860F2
:103D90002868616A40EA01202860207D00F01F0148
:103DA000012000FA01F6E869B04300E066E0E8614E
:103DB000A5F50075E069C8B9D5F80C02B043C5F89F
:103DC0000C02A08880B2A18940EA014105F510707B
:103DD000626940F83210208880B2218940EA0141AE
:103DE00005F51070626900EBC2004160E0690128CE
:103DF00019D1D5F80C023043C5F80C02A08880B266
:103E0000218840EA014105F51070626940F83210DE
:103E1000A08980B2218940EA014105F510706269EC
:103E200000EBC2004160A06928B9D5F80402B04394
:103E3000C5F8040204E0D5F804023043C5F80402D2
:103E4000206928B9D5F81402B043C5F8140204E07B
:103E5000D5F814023043C5F81402206A012804D1B1
:103E6000D5F81C023043C5F81C02D5F8000220F03A
:103E70000100C5F800020020BDE8F081786A40F436
:103E8000802078620120F7E72E2E5C4C6962726117
:103E900072795C53544D3332463478785F48414CE4
:103EA0005F4472697665725C5372635C73746D33E0
:103EB00032663478785F68616C5F63616E2E630090
:103EC00000640040704700002DE9F04104460D46B3
:103ED00016461F4694F820800DB1012D00D104E054
:103EE0004FF4BE615FA012F03FF9B8F1010F02D0AC
:103EF000B8F1020F7DD15DB92068C06800F0030001
:103F000088B9606A40F4001060620120BDE8F08169
:103F10002068006900F0030028B9606A40F40010CE
:103F200060620120F2E7206800F5D87000EB051010
:103F3000006800F00400B060B06840B9206800F587
:103F4000D87000EB05100068400D306007E0206875
:103F500000F5D87000EB05100068C008706020689C
:103F600000F5D87000EB0510006800F00200400872
:103F7000F060206800F5D87000EB0510406800F094
:103F80000F003061206800F5D87000EB0510406824
:103F900000F47F40000AB061206800F5D87000EBA3
:103FA00005104068000C7061206800F5D87000EBC7
:103FB000051080683870206800F5D87000EB051097
:103FC000806800F47F40000A7870206800F5D8709F
:103FD00000EB0510806800F47F00000CB8702068CA
:103FE00000F5D87000EB05108068000EF8702068AE
:103FF00000E031E000F5D87000EB0510C0683871C2
:10400000206800F5D87000EB0510C06800F47F4010
:10401000000A7871206800F5D87000EB0510C068C0
:1040200000F47F00000CB871206800F5D87000EB38
:104030000510C068000EF87135B92068C06840F0FE
:1040400020002168C86005E02068006940F0200079
:1040500021680861002059E7606A40F480206062AE
:10406000012053E72E2E5C4C6962726172795C53B9
:10407000544D3332463478785F48414C5F4472691E
:104080007665725C5372635C73746D333266347838
:10409000785F68616C5F63616E2E63002DE9F05F8D
:1040A00004460025206846692068D0F804902068FE
:1040B00087682068D0F80CA02068D0F810B020687D
:1040C000D0F8188006F00100002855D007F0010054
:1040D000C0B101202168886007F0020018B12046B5
:1040E00000F08DFB0EE007F0040010B145F4006510
:1040F00008E007F0080010B145F4805502E02046C2
:1041000000F07CFB07F48070C8B14FF48070216828
:10411000886007F4007018B1204600F072FB0EE0D2
:1041200007F4806010B145F4005508E007F4006022
:1041300010B145F4804502E0204600F061FB07F431
:104140008030C8B14FF480302168886007F40030B7
:1041500018B1204600F057FB0EE007F4802010B1A4
:1041600045F4004508E007F4002010B145F480351F
:1041700002E0204600F046FB06F0080038B10AF0E5
:10418000100020B145F4007510202168C86006F0C9
:10419000040040B10AF0080028B108202168C86076
:1041A000204600F0BFFA06F0020038B12068C0686F
:1041B00000F0030010B1204600F0B6FA06F040000F
:1041C00038B10BF0100020B145F480651020216853
:1041D000086106F0200040B10BF0080028B108206B
:1041E00021680861204600F0D7FA06F0100038B1C7
:1041F0002068006900F0030010B1204600F0CDFAFD
:1042000006F4003040B109F0100028B110202168F8
:104210004860204600F0C2FA06F4803040B109F050
:10422000080028B1082021684860204600F0ECFA18
:1042300006F4004088B309F0040078B306F48070F7
:1042400020B108F0010008B145F0010506F4007046
:1042500020B108F0020008B145F0020506F48060C4
:1042600020B108F0040008B145F0040506F4006030
:10427000A0B108F0700088B108F07000402817D095
:1042800006DC10280BD020280CD0302819D10CE0E7
:10429000502810D0602814D110E01DE019E045F03E
:1042A00008050FE045F010050CE045F0200509E099
:1042B00045F0400506E045F0800503E045F48075D3
:1042C00000E000BF00BF2068806920F07000216816
:1042D00088610420216848602DB1606A28436062CB
:1042E0002046FFF7EFFDBDE8F09F000070B50446E3
:1042F0000CB9012070BDD0492068884203D0CF4955
:104300002068884200D104E040F21D11CCA011F0D9
:104310002BFF207E10B1207E012800D104E04FF455
:104320008F71C7A011F020FF607E10B1607E012860
:1043300000D104E040F21F11C1A011F015FFA07ED2
:1043400010B1A07E012800D104E04FF49071BCA010
:1043500011F00AFFE07E10B1E07E012800D104E0F8
:1043600040F22111B6A011F0FFFE207F10B1207F96
:10437000012800D104E04FF49171B1A011F0F4FED6
:10438000607F10B1607F012800D104E040F223116A
:10439000ABA011F0E9FEA06858B1A068B0F1804F61
:1043A00007D0A068B0F1004F03D0A068B0F1404F33
:1043B00000D104E04FF49271A1A011F0D5FEE068A5
:1043C00058B1E068B0F1807F07D0E068B0F1007FBD
:1043D00003D0E068B0F1407F00D104E040F2251145
:1043E00097A011F0C1FE2069D8B32069B0F5803FD5
:1043F00037D02069B0F5003F33D02069B0F5403F99
:104400002FD02069B0F5802F2BD02069B0F5A02FD8
:1044100027D02069B0F5C02F23D02069B0F5E02F58
:104420001FD02069B0F5002F1BD02069B0F5102FE8
:1044300017D02069B0F5202F13D02069B0F5302FA8
:104440000FD02069B0F5402F0BD02069B0F5502F68
:1044500007D02069B0F5602F03D02069B0F5702F28
:1044600000D104E04FF4937175A011F07DFE6069F6
:10447000D8B16069B0F5801F17D06069B0F5001F32
:1044800013D06069B0F5401F0FD06069B0F5800FA0
:104490000BD06069B0F5A00F07D06069B0F5C00F10
:1044A00003D06069B0F5E00F00D104E040F22711BD
:1044B00063A011F059FE606820B16068B0F5806FAC
:1044C00000D804E04FF494715DA011F04DFE94F813
:1044D000200010B9204600F0CFF82068006820F0D6
:1044E00002002168086001F0BBF905460DE001F00B
:1044F000B7F9401B0A2808D9606A40F400306062AE
:10450000052084F820000120F4E62068406800F0CF
:1045100002000028EBD12068006840F0010021680B
:10452000086001F09DF905460DE001F099F9401B86
:104530000A2808D9606A40F400306062052084F8D7
:1045400020000120D6E62068406800F00100002825
:10455000EBD0207E012806D12068006840F0800062
:104560002168086005E02068006820F0800021686C
:104570000860607E012806D12068006840F0400095
:104580002168086005E02068006820F0400021688C
:104590000860A07E012806D12068006840F0200055
:1045A0002168086005E02068006820F0200021688C
:1045B0000860E07E012806D12068006820F0100025
:1045C0002168086005E02068006840F0100021685C
:1045D0000860207F012806D12068006840F00800AC
:1045E0002168086005E02068006820F00800216864
:1045F0000860607F012806D12068006840F0040050
:104600002168086005E02068006820F00400216847
:104610000860D4E90201084321690843616908433D
:104620006168491E08432168C8610020606201205A
:1046300084F8200000205DE600640040006800402F
:104640002E2E5C4C6962726172795C53544D333228
:10465000463478785F48414C5F4472697665725C95
:104660005372635C73746D3332663478785F68615B
:104670006C5F63616E2E630010B586B00446142132
:1046800001A8FCF7F2F823492068884240D100BF16
:10469000002000902048006840F000701E4908602B
:1046A0000846006800F00070009000BF00BF00BF27
:1046B0000020009018481038006840F002001649A9
:1046C000103908600846006800F00200009000BF42
:1046D00000BF4FF440700190022002900020039030
:1046E000032004900920059001A90C4800F0FCFD6E
:1046F0000B480068406940F00200094909684861B8
:1047000000220121142001F07DFC142001F046FC60
:1047100006B010BD00640040403802400004024072
:10472000FCFD01207047000030B589B0054600202F
:104730000790089007AB6A4600212846FFF7C4FBA4
:104740000CA2002108460EF0E5FB002408E007A8B3
:10475000035D0DA2002108460EF0DCFB601CC4B214
:10476000082CF4DB0BA2002108460EF0D3FB09B0A5
:1047700030BD00002D2D3E2043616E2072782064F4
:104780006174613A0000000025303258202D2D2040
:1047900000000000210D0A0070477047704770B597
:1047A000044694F82000012822D1022084F8200039
:1047B0002068006820F001002168086001F050F8CE
:1047C00005460DE001F04CF8401B0A2808D9606A44
:1047D00040F400306062052084F82000012070BDA4
:1047E0002068406800F001000028EBD16062F6E725
:1047F000606A40F4002060620120F0E77047704773
:104800007047704770477047704770B50446A56D94
:1048100001F026F8064694F83500022808D08020DA
:10482000606500BF002084F8340000BF012070BD27
:104830002068006820F01600216808602068406940
:1048400020F0800021684861206C08B9A06C28B174
:104850002068006820F0080021680860206800686F
:1048600020F00100216808600FE000F0F9FF801BD4
:1048700005280AD92020606500BF002084F8340094
:1048800000BF032084F83500D1E72068006800F0FD
:1048900001000028E9D194F85C103F208840A8600E
:1048A00000BF002084F8340000BF012084F83500E8
:1048B0000020BCE7014691F83500022803D0802093
:1048C000486501207047052081F8350008680068B8
:1048D00020F001000A6810600020F3E770B504467C
:1048E0000CB9012070BD94F83500022800D1F9E719
:1048F00040492068884249D03E49183120688842A2
:1049000044D03C493031206888423FD03949483151
:10491000206888423AD0374960312068884235D0D3
:10492000344978312068884230D03249903120684B
:1049300088422BD02F49A8312068884226D02E49A2
:104940002068884222D02C491831206888421DD026
:10495000294930312068884218D0274948312068D9
:10496000884213D024496031206888420ED0224901
:1049700078312068884209D01F49903120688842E8
:1049800004D01D49A8312068884200D104E04FF4CA
:10499000A4711AA011F0E8FB2068006820F0010063
:1049A000216808600020216808602168486021684B
:1049B00088602168C86021680861212021684861F9
:1049C0002046FDF7CBFF05460020E06320646064CD
:1049D000A064E064206594F85C103F208840A860E3
:1049E0000020606584F8350000BF84F8340000BF03
:1049F00000BF77E710600240106402402E2E5C4C2E
:104A00006962726172795C53544D333246347878FE
:104A10005F48414C5F4472697665725C5372635CB7
:104A200073746D3332663478785F68616C5F646D7F
:104A3000612E6300F8B50446002000908C480068A1
:104A40004FF41651B0FBF1F7A56D2E6894F85C1089
:104A500008208840304098B12068006800F00400C9
:104A600070B12068006820F004002168086094F8A4
:104A70005C1008208840A860606D40F0010060650F
:104A800094F85C1001208840304068B1206840698B
:104A900000F0800040B194F85C1001208840A860CC
:104AA000606D40F00200606594F85C10042088405E
:104AB000304068B12068006800F0020040B194F80E
:104AC0005C1004208840A860606D40F004006065C0
:104AD00094F85C1010208840304078B3206800685B
:104AE00000F0080050B394F85C1010208840A860D3
:104AF0002068006800F4802080B12068006800F41D
:104B0000002028B9206CC8B12046216C884715E0E8
:104B1000A06C98B12046A16C88470FE0206800681F
:104B200000F4807028B92068006820F0080021682F
:104B30000860206C10B12046216C884794F85C1006
:104B4000202088403040002865D02068006800F0B0
:104B5000100000285FD094F85C1020208840A860E6
:104B600094F83500052828D12068006820F0160048
:104B7000216808602068406920F080002168486151
:104B8000206C08B9A06C28B12068006820F00800EB
:104B90002168086094F85C103F208840A86000BF3E
:104BA000002084F8340000BF012084F83500206D17
:104BB00010B12046216D8847F8BD2068006800F4D8
:104BC000802080B12068006800F4002028B9606C63
:104BD00010B12046616C88471DE0E06BD8B12046DB
:104BE000E16B884717E02068006800F4807068B9BE
:104BF0002068006820F010002168086000BF0020D5
:104C000084F8340000BF012084F83500E06B10B157
:104C10002046E16B8847606D38B3606D00F001009D
:104C2000F0B1052084F835002068006820F001000C
:104C30002168086000BF0098401C0090B84200D96D
:104C400005E02068006800F001000028F3D100BFF3
:104C500000BF002084F8340000BF012084F8350034
:104C6000E06C10B12046E16C884700BFA4E700006B
:104C7000000000202DE9F0410446002500F0F0FD81
:104C8000074614B90120BDE8F081C0492068884278
:104C900049D0BE4918312068884244D0BB493031E0
:104CA000206888423FD0B9494831206888423AD0CC
:104CB000B64960312068884235D0B44978312068DF
:104CC000884230D0B1499031206888422BD0AF491A
:104CD000A8312068884226D0AD492068884222D079
:104CE000AB491831206888421DD0A949303120686D
:104CF000884218D0A64948312068884213D0A44978
:104D00006031206888420ED0A149783120688842FD
:104D100009D09F4990312068884204D09C49A8312D
:104D20002068884200D103E0B8219AA011F01CFA53
:104D30006068D8B16068B0F1007F17D06068B0F1EA
:104D4000806F13D06068B0F1C06F0FD06068B0F1B1
:104D5000006F0BD06068B0F1206F07D06068B0F1D1
:104D6000406F03D06068B0F1606F00D103E0B921FB
:104D700088A011F0F9F9A06828B1A068402802D0F5
:104D8000A068802800D103E0BA2182A011F0ECF9DC
:104D9000E068B0F5007F01D0E06800B903E0BB2116
:104DA0007CA011F0E1F92069B0F5806F01D0206995
:104DB00000B903E0BC2177A011F0D6F9606938B1E1
:104DC0006069B0F5006F03D06069B0F5805F00D115
:104DD00003E0BD216FA011F0C7F9A06938B1A06947
:104DE000B0F5005F03D0A069B0F5804F00D103E0BB
:104DF000BE2168A011F0B8F9E06930B1E069B0F502
:104E0000807F02D0E069202800D103E0BF2161A0AB
:104E100011F0AAF9206A58B1206AB0F5803F07D096
:104E2000206AB0F5003F03D0206AB0F5403F00D1C2
:104E300003E0C02157A011F097F9606A10B1606AD1
:104E4000042800D103E0C12152A011F08DF9606A5D
:104E5000002835D0A06A40B1A06A012805D0A06A18
:104E6000022802D0A06A032800D103E0C62149A08D
:104E700011F07AF9E06A58B1E06AB0F5000F07D096
:104E8000E06AB0F1807F03D0E06AB0F1C07F00D16A
:104E900003E0C7213FA011F067F9206B58B1206BE8
:104EA000B0F5001F07D0206BB0F5800F03D0206B4A
:104EB000B0F5C00F00D103E0C82136A011F054F9BD
:104EC00000BF002084F8340000BF022084F83500C1
:104ED0002068006820F00100216808600AE000F006
:104EE000BFFCC01B052805D920206065032084F87D
:104EF0003500C8E62068006800F001000028EED107
:104F00002068056831480540D4E901010843E1689B
:104F100008432169084361690843A1690843E169BD
:104F20000843216A08430543606A042803D1D4E991
:104F30000B0108430543206805602068456925F09A
:104F40000705606A0543606A04280DD1A06A05431D
:104F5000E06A48B12046FDF71BFD28B1402060659E
:104F6000012084F835008EE6206845612046FDF773
:104F7000F5FC064694F85C103F208840B0600020A5
:104F80006065012084F8350000207CE61060024056
:104F9000106402402E2E5C4C6962726172795C531F
:104FA000544D3332463478785F48414C5F447269DF
:104FB0007665725C5372635C73746D3332663478F9
:104FC000785F68616C5F646D612E63003F8010F0F4
:104FD0002DE9F04704460E4617461D464FF00008DF
:104FE000D4F858901DB1B5F5803F00D204E04FF4DD
:104FF000E67124A011F0B8F800BF94F8340001283D
:1050000002D10220BDE8F087012084F8340000BFFF
:1050100094F8350001282BD1022084F835000020B7
:1050200060652B463A4631462046FDF706FD94F86A
:105030005C103F208840C9F808002068006840F0F4
:105040001600216808602068406940F080002168EF
:105050004861206C28B12068006840F00800216891
:1050600008602068006840F001002168086006E0E0
:1050700000BF002084F8340000BF4FF00208404613
:10508000C0E700002E2E5C4C6962726172795C533D
:10509000544D3332463478785F48414C5F447269EE
:1050A0007665725C5372635C73746D333266347808
:1050B000785F68616C5F646D612E630070B5044653
:1050C00000F0CEFB06462546681C10B10448007867
:1050D000054400BF00F0C4FB801BA842FAD370BD9A
:1050E0006C0300202DE9F047044688464FF0000984
:1050F00000260027604884421DD0604884421AD0B0
:105100005F48844217D05F48844214D05E4884428E
:1051100011D05E4884420ED05D4884420BD05D4879
:10512000844208D05C48844205D05C48844202D066
:105130005B48844200D104E04FF4987159A011F00B
:1051400013F8002592E0012000FA05F908EA0906A3
:105150004E457DD16248A90850F82170A807010F7B
:105160000F20884007404448844201D100202DE0B0
:105170004248844201D1012028E04148844201D1C3
:10518000022023E03F48844201D103201EE03E4834
:10519000844201D1042019E03C48844201D1052019
:1051A00014E03B48844201D106200FE03948844294
:1051B00001D107200AE03848844201D1082005E0E7
:1051C0003648844201D1092000E00A20A907090FCE
:1051D0008840B84221D1A807010F0F2000FA01F73B
:1051E0003F48A90850F82100B8433D49AA0841F8B2
:1051F00022003C480068B0433A490860081D006836
:10520000B043091D0860081D0068B043091D08600F
:10521000081D0068B043091D086020686A0003216A
:10522000914088432060E90804F1200050F82100F3
:105230006907CA0E0F2191408843EA0804F1200152
:1052400041F82200A0686A0003219140884300E0F1
:105250000BE0A06061680120A84081436160E068C4
:105260006A00032191408843E0606D1C102DFFF41B
:105270006AAFBDE8F0870000000002400004024071
:1052800000080240000C02400010024000140240DE
:1052900000180240001C024000200240002402408E
:1052A000002802402E2E5C4C6962726172795C5358
:1052B000544D3332463478785F48414C5F447269CC
:1052C0007665725C5372635C73746D3332663478E6
:1052D000785F68616C5F6770696F2E630000000023
:1052E00008380140003C01402DE9F84305460C46D2
:1052F0004FF00009C8460026FE4885421DD0FE48F2
:1053000085421AD0FD48854217D0FD48854214D009
:10531000FC48854211D0FC4885420ED0FB488542AE
:105320000BD0FB48854208D0FA48854205D0FA48A0
:10533000854202D0F948854200D103E0B321F8A0AC
:1053400010F012FF208880B220B120686FF30F00A8
:1053500000B903E0B421F2A010F006FF606830B39A
:105360006068012823D06068112820D06068022876
:105370001DD0606812281AD0F8496068884216D09B
:10538000F7496068884212D0F649606888420ED0BA
:10539000F549606888420AD0F4496068884206D0BE
:1053A000F3496068884202D06068032800D103E0B6
:1053B000B521DBA010F0D8FEA06828B1A0680128B4
:1053C00002D0A068022800D103E0B621D4A010F0DA
:1053D000CBFE002789E1012000FA07F9206800EAE6
:1053E0000908C8457ED16068022802D0606812288A
:1053F00079D12069002877D0206909287ED02069DA
:1054000000287BD02069002878D02069002875D03A
:105410002069002872D0206901286FD020690128F6
:105420006CD02069022869D02069022866D02069E2
:10543000022863D02069032860D0206904285DD049
:10544000206904285AD02069042857D020690528EB
:1054500054D02069052851D0206909284ED02069F0
:1054600006284BD02069092848D02069072845D054
:105470002069072842D0206907283FD020690828E2
:105480003CD02069082839D02069082836D0206906
:10549000092833D02069092830D020690A282DD066
:1054A00020690A282AD020690B2827D020690C28D7
:1054B00024D020690C2821D020690D281ED0206915
:1054C0000F281BD02069052818D02069052815D081
:1054D0002069052812D0206908280FD020690828E3
:1054E0000CD002E0EEE022E008E020690C2805D0B4
:1054F0002069062802D020690E2800D103E0C721C8
:1055000087A010F031FEF90805F1200050F8216065
:105510007807C10E0F20884086437907C90E20699D
:1055200088400643F90805F1200040F821602E6804
:105530007900032088408643207900F00300790039
:10554000884006432E606068012808D06068022801
:1055500005D06068112802D06068122823D1E06865
:1055600040B1E068012805D0E068022802D0E06878
:10557000032800D103E0DA2169A010F0F5FDAE6840
:1055800079000320884086437900E068884006431C
:10559000AE606E680120B84086432079C0F30010E9
:1055A000B84006436E60EE68790003208840864369
:1055B0007900A06888400643EE60606800F0805083
:1055C000B0F1805F7ED100BF002000906948006884
:1055D00040F48040674908600846006800F4804055
:1055E000009000BF00BF6448B90850F82160B807B8
:1055F000010F0F20884086433E48854201D100209C
:105600002DE03D48854201D1012028E03B488542FC
:1056100001D1022023E03A48854201D103201EE057
:105620003848854201D1042019E03748854201D12C
:10563000052014E03548854201D106200FE03448AA
:10564000854201D107200AE03248854201D1082075
:1056500005E03148854201D1092000E00A20B90760
:10566000090F884006434448B90840F82160434880
:10567000066826EA0806606800F48030B0F5803FCE
:1056800001D146EA08063D480660001D066826EA84
:105690000806606800F40030B0F5003F01D146EA2A
:1056A00008063648001D0660001D066826EA080642
:1056B000606800F48010B0F5801F01D146EA08064A
:1056C0002E4800E010E008300660001D066826EA5B
:1056D0000806606800F40010B0F5001F01D146EA2A
:1056E000080626480C3006607F1C102FFFF473AEAE
:1056F000BDE8F883000002400004024000080240B8
:10570000000C024000100240001402400018024049
:10571000001C0240002002400024024000280240F9
:105720002E2E5C4C6962726172795C53544D333237
:10573000463478785F48414C5F4472697665725CA4
:105740005372635C73746D3332663478785F68616A
:105750006C5F6770696F2E6300000000000011101D
:105760000000211000003110000012100000221073
:10577000000032104438024008380140003C01402B
:1057800070B506460C46A0B218B1200C000400B952
:1057900004E04FF4BF7105A010F0E6FC3069204032
:1057A00008B1012500E00025284670BD2E2E5C4C76
:1057B0006962726172795C53544D33324634787841
:1057C0005F48414C5F4472697665725C5372635CFA
:1057D00073746D3332663478785F68616C5F6770BC
:1057E000696F2E630000000070B506460C46154632
:1057F000A0B218B1200C000400B904E040F29F11DF
:1058000008A010F0B1FC0DB1012D00D104E04FF45F
:10581000D07104A010F0A8FC0DB1B46101E0200427
:10582000B06170BD2E2E5C4C6962726172795C53FE
:10583000544D3332463478785F48414C5F44726946
:105840007665725C5372635C73746D333266347860
:10585000785F68616C5F6770696F2E63000000009D
:105860000148006870470000640300200146086C8E
:105870007047000070B504460CB9012070BD9D4909
:105880002068884207D09C492068884203D09B4901
:105890002068884200D104E040F2BB1198A010F0CB
:1058A00063FC606820B1A4496068884200D804E0C5
:1058B0004FF4DE7192A010F057FCA06818B1A068F8
:1058C000B0F5804F00D104E040F2BD118CA010F083
:1058D0004BFCE0686FF3090000B904E04FF4DF719E
:1058E00087A010F041FC2069B0F5804F03D02069FB
:1058F000B0F5404F00D104E040F2BF1180A010F09D
:1059000033FC606910B16069012800D104E04FF4F4
:10591000E0717BA010F028FCA06920F0FE0000B927
:1059200004E040F2C11176A010F01EFCE06910B155
:10593000E069402800D104E04FF4E17170A010F05C
:1059400013FC206A10B1206A802800D104E040F2E4
:10595000C3116BA010F008FC94F83D0028B900209A
:1059600084F83C00204600F0A9F9242084F83D008A
:105970002068006820F001002168086001F03AF812
:1059800005466E496068884206D86D48854201D256
:10599000012007E0002005E06A48854201D201208D
:1059A00000E00020012800D168E76748B5FBF0F669
:1059B0002068406820F03F003043216848605F491C
:1059C0006068884201D8701C07E04FF496707043FD
:1059D0004FF47A71B0FBF1F0401C2168096A21F0A4
:1059E0003F0108432168086254496068884214D81E
:1059F000681E61684900B0FBF1F0401CC0F30B0069
:105A0000042801D204203DE0681E61684900B0FB13
:105A1000F1F0401CC0F30B0034E0A06838B9681EF8
:105A2000616801EB4101B0FBF1F0401C0AE0681E27
:105A3000616801EBC10202EB0111B0FBF1F0401C07
:105A400040F48040C0F30B0008B901201AE0A068C0
:105A500048B9681E616801EB4101B0FBF1F0401CE0
:105A6000C0F30B000CE0681E616801EBC10202EBA1
:105A70000111B0FBF1F0401CC0F30B0040F480407A
:105A800040F400402168C9694CF6FF729143084315
:105A90002168C861D4E9070108432168096821F039
:105AA000C001084321680860D4E903100843216855
:105AB000896848F2FF329143084321688860D4E93D
:105AC000050108432168C96821F0FF0108432168E6
:105AD000C8602068006840F001002168086000206C
