:020000040800F2
:10000000A81D00204D020008E9210008C5210008B4
:10001000E5210008CD060008CF2B000800000000F5
:10002000000000000000000000000000C5220008E1
:10003000050700080000000083020008A92400084A
:10004000870200088702000887020008870200086C
:10005000870200088702000887020008870200085C
:10006000870200088702000887020008870200084C
:10007000870200088702000887020008870200083C
:10008000870200088702000887020008870200082C
:10009000870200088702000887020008870200081C
:1000A00087020008DD25000887020008CD2500082A
:1000B000ED250008FD2500088702000887020008DA
:1000C00087020008870200088702000887020008EC
:1000D000870200085D2B00086D2B00087D2B0008AF
:1000E00087020008870200088702000887020008CC
:1000F00087020008870200088702000887020008BC
:100100008702000887020008052600088702000809
:1001100015260008870200088702000887020008E9
:10012000870200088702000887020008870200088B
:10013000870200088702000887020008870200087B
:10014000870200088702000887020008870200086B
:100150008702000887020008870200088D2B00082C
:10016000870200088702000887020008870200084B
:1001700087020008EB210008870200080000000049
:10018000870200088702000887020008870200082B
:10019000870200088702000887020008870200081B
:1001A00087020008870200088702000800F002F8B2
:1001B00000F03CF80AA090E8000C82448344AAF1C5
:1001C0000107DA4501D100F031F8AFF2090EBAE8C3
:1001D0000F0013F0010F18BFFB1A43F0010318477B
:1001E000142D0000342D0000103A24BF78C878C1C7
:1001F000FAD8520724BF30C830C144BF04680C602D
:10020000704700000023002400250026103A28BF74
:1002100078C1FBD8520728BF30C148BF0B60704778
:100220001FB502F055FE1FBD10B510BD00F05AF904
:100230001146FFF7F5FF02F025FE00F078F903B450
:10024000FFF7F2FF03BC00F07FF900001148804780
:10025000DFF84400016841F470010160BFF34F8F83
:10026000DFF83800016821F040410160BFF36F8F73
:100270000B480047FEE7FEE7FEE7FEE7FEE7FEE786
:10028000FEE7FEE7FEE7FEE706480749074A084B98
:10029000704700006925000888ED00E034EF00E0B9
:1002A000AD010008A80B0020A81D0020A80D00200B
:1002B000A80D002053EA020C00F069802DE9F04BF4
:1002C0004FF00006002B1FBFB3FA83F503FA05F4C5
:1002D00024FA05F65E4012BF1643B2FA82F502FA1E
:1002E00005F4C5F120051EBF22FA05FC44EA0C0402
:1002F000203556EA044C4FEA144418BF641C4FF0F2
:1003000000084FF00009904271EB030C39D300292B
:1003100019BFB1FA81F701FA07F6B0FA80F700FACF
:1003200007F6C7F120071EBF20FA07FC46EA0C06B5
:100330002037B6FBF4FCA7EB0507103F07F01F0BB7
:10034000CBF120060CFA0BFB2CFA06F644BFB346A1
:100350000026202FA4BF5E464FF0000B5BEA060C80
:1003600008BF4FF0010B19EB0B09ABFB027C48EB0C
:100370000608C01B06FB02CC0BFB03CC71EB0C0187
:10038000C1E70B46024641464846BDE8F08B13B52F
:100390004FF000004FF00001AFF30080BDE81C40BB
:1003A0007047032A40F2308010F0030C00F01580F3
:1003B00011F8013BBCF1020F624498BF11F801CB68
:1003C00000F8013B38BF11F8013BA2F1040298BFCD
:1003D00000F801CB38BF00F8013B11F0030300F037
:1003E0002580083AC0F0088051F8043B083A51F8DB
:1003F00004CBA0E80810F5E7121D5CBF51F8043BE0
:1004000040F8043BAFF30080D20724BF11F8013B52
:1004100011F801CB48BF11F8012B24BF00F8013BB4
:1004200000F801CB48BF00F8012B704710B5203A07
:10043000C0F00B80B1E81850203AA0E81850B1E89D
:100440001850A0E81850BFF4F5AF5FEA027C24BF53
:10045000B1E81850A0E8185044BF18C918C0BDE84A
:1004600010405FEA827C24BF51F8043B40F8043B13
:1004700008BF7047D20728BF31F8023B48BF11F8C8
:10048000012B28BF20F8023B48BF00F8012B704722
:100490004FF0000200B5134694469646203922BF1D
:1004A000A0E80C50A0E80C50B1F12001BFF4F7AF68
:1004B000090728BFA0E80C5048BF0CC05DF804EB4A
:1004C000890028BF40F8042B08BF704748BF20F8B8
:1004D000022B11F0804F18BF00F8012B70477047B6
:1004E00070477047754600F02BF8AE460500694628
:1004F000534620F00700854618B020B5FFF7C4FE2C
:10050000BDE820404FF000064FF000074FF0000814
:100510004FF0000B21F00701AC46ACE8C009ACE895
:10052000C009ACE8C009ACE8C0098D46704710B5F9
:100530000446AFF300802046BDE81040FFF77FBEC1
:1005400000487047440B002001491820ABBEFEE76D
:10055000260002007047704710B507480078012850
:1005600004D10421054800F0D9FD04E00022042153
:10057000024800F0DCFD10BD1C000020001002400D
:100580002DE9F04105460F4690462C4800EB8514B6
:100590002B4800EBC506052D10D2DFE805F0030659
:1005A000090C1000274820600CE02748206009E073
:1005B0002648206006E02648206003E000BF25486A
:1005C000206000BF00BF3770C6F804800C21616155
:1005D0000021A1614FF40041E161706860603078F2
:1005E00030B1012809D0022810D0032817D117E014
:1005F0000021A160E16021611AE04FF48051A16007
:100600000021E1604FF4C061216111E04FF480519D
:10061000A1600021E1604FF48061216108E000BF2A
:100620000021A1604FF40051E1600021216100BF71
:1006300000BF204601F05CFBBDE8F081BC09002052
:10064000FC0A002000100140004400400048004027
:10065000004C00400014014010B51B4800680069C0
:1006600000F0010060B118480068C06800F00100A7
:1006700030B16FF00100144909680861FFF76CFFA1
:100680006FF002001049096808616FF004000E491C
:10069000096808616FF008000B49096808616FF08C
:1006A00010000949096808616FF0200006490968CF
:1006B00008616FF040000449096808616FF080002C
:1006C00001490968086110BDFC08002000BFFEE771
:1006D000F0B505460E460024AF1905E015F8011BDC
:1006E000A0B202F05BFA0446BD42F7D3A0B20021EB
:1006F00002F054FA04462046002102F04FFA044664
:100700002046F0BD7047704710B5002201B909E0DE
:10071000012901D10A0205E0022901D10A0201E002
:100720004FF440720B2800D9001D0E4B1B6823F4B8
:1007300040730C4C236023461B68134323602346FD
:100740001B6823F0F803236023461B68022444EA55
:10075000C0042343034C236023461B6843F48033C7
:10076000236010BD103C02401C48006800F400707B
:10077000B0B11A48006820F400701849086000BF42
:100780000846006840F4006008600846006820F4ED
:100790000060086000BF0846006840F40070086010
:1007A0000E48006800F48060B0B10C48006820F486
:1007B00080600A49086000BF0846006840F4805025
:1007C00008600846006820F48050086000BF0846B2
:1007D000006840F48060086070470000003C024000
:1007E0002DE9F04186B006460C46032503274FF05D
:1007F0000008304600F08CF90546204600F088F9E4
:100800000746781B00F10108002001900395CDF800
:10081000108002200590694601A800F097FA18B1EF
:10082000012006B0BDE8F0810020FAE710B588B0DD
:10083000002401A800F0E2FA40F6F870039920EADB
:10084000010414B1022008B010BD0020FBE7000035
:1008500010B500F03BFBF3200149086010BD00001B
:100860000C3C02402DE9F04104460E461746002597
:1008700000BF15E056F825C062460023214602203D
:1008800000F0D8FA48B956F825102068884202D0FE
:100890000220BDE8F081241D01E00320F9E76D1C72
:1008A000BD4202D202488442E4D90020F1E70000B0
:1008B000FBFF1F08134A126822F44072114B1A60A2
:1008C000032906D11A461268DB131A430D4B1A602E
:1008D0000EE0012906D10B4A126842F00402094BCE
:1008E0001A6005E0074A126842F40042054B1A609C
:1008F000044A12684FF4803343EA00231A43014B41
:100900001A607047103C02400248007800F00C006A
:1009100070470000143C0240AA2007490978CC29FE
:1009200001D1CC2006E004490978AA2901D1AA20E6
:1009300000E0552070470000153C02400248006866
:1009400000F0E00070470000143C024001480088BD
:1009500070470000163C0240074A126822F44072B9
:10096000054B1A601A4612681A601A46126842F05D
:1009700001021A6001707047103C024010B509492D
:10098000096821F44071074C21602146096841F44F
:10099000407121602146096841F001012160026037
:1009A000436010BD103C0240084A126822F44072B5
:1009B000064B1A601A46126842F480721A601A4690
:1009C000126842F001021A6001807047103C024038
:1009D000084A126822F44072064B1A601A461268DE
:1009E00042F400721A601A46126842F001021A605C
:1009F00001607047103C02402A48006800F0100077
:100A000040B12948C06940F010002749C861102052
:100A1000244908602348006800F0200040B12248C3
:100A2000C06940F008002049C86120201D490860C5
:100A30001C48006800F0400040B11B48C06940F00D
:100A400004001949C861402016490860154800682B
:100A500000F0800040B11448C06940F00200124923
:100A6000C86180200F4908600E48006800F480705B
:100A700048B10D48C06940F001000B49C8614FF40E
:100A80008070084908600748006800F0020040B123
:100A90000548C06940F020000349C86102200149AF
:100AA000086070470C3C0240240B002070B50446DF
:100AB000002500201449C86100F040FB054609E00C
:100AC000601C38B124B100F039FB401BA04201D9B1
:100AD000032070BD0D48006800F480300028EFD17D
:100AE0000A48006800F0010010B1012007490860C1
:100AF0000648006800F4F97018B1FFF77DFF012087
:100B0000E7E70020E5E70000240B00200C3C024052
:100B1000014600205C4A914203D2B1F1006F00D33C
:100B2000B0E05A4A914204D2574A914201D301207F
:100B3000A8E0574A914204D2544A914201D302207C
:100B4000A0E0544A914204D2514A914201D3032079
:100B500098E0514A914204D24E4A914201D3042076
:100B600090E04E4A914204D24B4A914201D3052073
:100B700088E04B4A914204D2484A914201D3062070
:100B800080E0484A914204D2454A914201D307206D
:100B900078E0454A914204D2424A914201D308206A
:100BA00070E0424A914204D23F4A914201D3092067
:100BB00068E03F4A914204D23C4A914201D30A2064
:100BC00060E0B1F1016F04D2394A914201D30B20A8
:100BD00058E0384A914204D2B1F1016F01D30C20A0
:100BE00050E0354A914204D2324A914201D30D205D
:100BF00048E0324A914204D22F4A914201D30E205A
:100C000040E02F4A914204D22C4A914201D30F2056
:100C100038E02C4A914204D2294A914201D3102053
:100C200030E0294A914204D2264A914201D3112050
:100C300028E0264A914204D2234A914201D312204D
:100C400020E0234A914204D2204A914201D313204A
:100C500018E0204A914204D21D4A914201D3142047
:100C600010E01D4A914204D21A4A914201D3152044
:100C700008E01A4A914204D2174A914201D3162041
:100C800000E01720704700000040000800800008C6
:100C900000C000080000010800000208000004086D
:100CA000000006080000080800000A0800000C0800
:100CB00000000E08004010080080100800C0100856
:100CC00000001108000012080000140800001608B7
:100CD0000000180800001A0800001C0800001E0888
:100CE000014691F83500022803D080204865012094
:100CF0007047052081F835000868006820F0010081
:100D00000A6810600020F3E710B54FF0FF300E497D
:100D1000086000200860401E091D0860002008606F
:100D2000401E09491039086000200860401E091D56
:100D3000086000200860401E091D0860002008604F
:100D400000F052FA002010BD203802402DE9F04199
:100D500004460E460127002500BF2648007E0128D4
:100D600002D10220BDE8F08101202249087600BFAF
:100D70004CF25030FFF79AFE0746002F32D1401E4A
:100D800030602068012810D1207C6168FFF792FD57
:100D90004CF25030FFF78AFE07461748006848F2C9
:100DA00004018843144908601AE0A56812E0217C18
:100DB0002846FFF7A9FC4CF25030FFF777FE0746B4
:100DC0000D48006820F0FA000B4908600FB135604B
:100DD00005E06D1CD4E902100844A842E7D800BF22
:100DE000FFF7C2FC00BF00200249087600BF38466A
:100DF000B8E70000240B0020103C024010B5044668
:100E00000F202060FFF7A2FDA060FFF785FD2061A5
:100E1000FFF794FD2076FFF777FD606110BD0000BD
:100E20000348006840F00040014908600020704716
:100E3000103C02402DE9F04106460F4614461D467F
:100E40004FF0010800BF1F48007E012802D1022098
:100E5000BDE8F08101201B49087600BF4CF25030FC
:100E6000FFF724FE8046B8F1000F23D126B9E1B286
:100E70003846FFF771FD12E0012E04D1A1B23846C9
:100E8000FFF792FD0BE0022E04D121463846FFF712
:100E90009FFD04E022462B463846FFF76FFD4CF2DB
:100EA0005030FFF703FE80460748006820F001003D
:100EB0000549086000BF00200249087600BF40468F
:100EC000C6E70000240B0020103C02400020094926
:100ED000096801F0004159B10749064A0C3A11600E
:100EE000064911600349096801F0004101B1012080
:100EF00070470000103C024023016745AB89EFCDED
:100F0000F8B502460B460025002400200021E6E04B
:100F1000012606FA01F51E6806EA0504AC4273D103
:100F20005E68022E02D05E68122E13D1CF0802F145
:100F3000200656F827004E07F70E0F26BE40B04396
:100F40004F07FF0E1E69BE403043CF0802F1200656
:100F500046F8270010684F000326BE40B0431E79B4
:100F600006F003064F00BE40304310605E68012E5D
:100F700008D05E68022E05D05E68112E02D05E6831
:100F8000122E13D190684F000326BE40B0434F008D
:100F9000DE68BE4030439060506801268E40B0430A
:100FA0001E79C6F300168E4030435060D0684F0063
:100FB0000326BE40B0434F009E68BE403043D06021
:100FC0005E6806F08056B6F1805FA8D100BF0026AB
:100FD0000096454E366846F48046434F3E603E4696
:100FE000366806F48046009600BF00BF3F4E8F086B
:100FF00056F827008E07370F0F26BE40B0433C4EF1
:10100000B24202D100262EE068E03A4EB24201D14F
:10101000012628E0384EB24201D1022623E0374EA5
:10102000B24201D103261EE0354EB24201D1042660
:1010300019E0344EB24201D1052614E0324EB242DC
:1010400001D106260FE0314EB24201D107260AE057
:101050002F4EB24201D1082605E02E4EB24201D1F8
:10106000092600E00A268F073F0FBE4030431F4E7F
:101070008F0846F82700284E3068A0435E6806F4C3
:101080008036B6F5803F00D12043234E3060361DB8
:101090003068A0435E6806F40036B6F5003F00D124
:1010A00020431D4E361D3060361D3068A0435E68FB
:1010B00006F48016B6F5801F00D12043164E083680
:1010C0003060361D3068A0435E6806F40016B6F541
:1010D000001F00D12043104E0C363060491C1029EF
:1010E000FFF416AFF8BD0000443802400838014054
:1010F000000002400004024000080240000C0240D0
:10110000001002400014024000180240001C02407F
:101110000020024000240240003C014042690A4095
:101120008A4202D10A04826100E0816170470AB1FB
:10113000816101E00B048361704700000148006891
:101140007047000024000020034800680349097824
:101150000844014908607047240000202C0000204A
:1011600010B50D48006840F400700B49086008464F
:10117000006840F4806008600846006840F48070B1
:101180000860032000F0A4F8002000F007F800F049
:101190002DF8002010BD0000003C024070B5044650
:1011A0000E4800784FF47A71B1FBF0F00C490968F1
:1011B000B1FBF0F5284600F007FC08B1012070BD36
:1011C000102C07D200222146501E00F043F805489B
:1011D000046001E00120F2E70020F0E72C0000208D
:1011E00030000020280000207047000008B500BF34
:1011F000002000900E48006840F480400C490860D0
:101200000846006800F48040009000BF00BF00BFA7
:1012100000200090081F006840F08050091F0860FF
:101220000846006800F08050009000BF00BF08BD75
:101230004438024001460846002809DB00F01F033D
:1012400001229A4043099B0003F1E023C3F80021E7
:1012500000BF70472DE9F05F80460D461646002717
:1012600001F0F4FD074639462A46334601F00700EF
:10127000C0F1070ABAF1040F02D94FF0040A01E0E5
:10128000C0F1070AD14600F1040ABAF1070F02D2F1
:101290004FF0000A01E0A0F1030AD4464FF0010A22
:1012A0000AFA09FAAAF1010A0AEA020A0AFA0CFA87
:1012B0004FF0010B0BFA0CFBABF1010B0BEA030B2C
:1012C0004AEA0B042146404601F0C8FDBDE8F09F04
:1012D00000BF00F00702064B19684FF6FF031940E4
:1012E000044B0B4343EA0221014B196000BF7047D6
:1012F0000CED00E00000FA0501200149086270478A
:1013000000000E4270B504460D460CB9012070BDB8
:101310005848006800F00F00A84209D255490D70E6
:101320000846006800F00F00A84201D00120EEE757
:10133000207800F0020002281DD1207800F004007F
:10134000042805D14C48006840F4E0504A49086040
:10135000207800F00800082805D14748006840F4CC
:101360006040454908604448006820F0F000A168EA
:10137000084341490860207800F00100A8B3606884
:10138000012807D13C4808380068C0F34040B8B98C
:101390000120BCE76068022802D06068032807D1FA
:1013A000354808380068C0F3406048B90120AEE70E
:1013B000314808380068C0F3400008B90120A6E7AA
:1013C0002D48006820F00300616808432A4908603E
:1013D000FFF7B4FE064609E0FFF7B0FE801B41F2BE
:1013E0008831884202D9032091E707E0224800684B
:1013F00000F00C006168B0EB810FEDD11D48006872
:1014000000F00F00A84209D91A490D70084600687B
:1014100000F00F00A84201D0012078E7207800F00A
:101420000400042807D11448006820F4E050E16863
:10143000084311490860207800F00800082808D106
:101440000D48006820F46040216940EAC1000A4963
:10145000086000F03DF808490968C1F30311074A24
:10146000515CC840064908600020FFF797FE002045
:101470004DE70000003C024008380240DA2E000828
:101480003000002001480068704700003000002054
:1014900000B5FFF7F7FF04490968C1F38221034A49
:1014A000515CC84000BD000008380240EA2E000828
:1014B00000B5FFF7E7FF04490968C1F34231034A69
:1014C000515CC84000BD000008380240EA2E000808
:1014D0002DE9F047002400250026A1462548006894
:1014E00000F00C0020B1042805D008283AD105E00E
:1014F000DFF8849039E0DFF8849036E01D48001F63
:10150000006800F03F041B48001F006800F48000E2
:1015100078B11A481749091F0968C1F38811A0FB5F
:1015200001700146224600233846FEF7C3FE0546F9
:101530000EE011480F49091F0968C1F38811A0FB8B
:1015400001700146224600233846FEF7B3FE0546E9
:101550000848001F0068C0F30140401C4600B5FB6E
:10156000F6F902E0DFF8109000BF00BF4846BDE882
:10157000F0870000083802400024F40000127A00CE
:10158000F8B504460CB90120F8BD207800F0010040
:10159000002874D0F948006800F00C0004280DD031
:1015A000F648006800F00C00082813D1F348001F2B
:1015B000006800F48000B0F5800F0BD1EF480838C8
:1015C0000068C0F34040002859D06068002856D118
:1015D0000120D9E700BF6068B0F5803F08D1E74837
:1015E0000838006840F48030E449083908601EE09B
:1015F0006068B0F5A02F0DD1E0480838006840F4CD
:101600008020DE49083908600846006840F48030D0
:1016100008600CE0D9480838006820F48030D749C9
:10162000083908600846006820F48020086000BF80
:10163000606890B1FFF782FD054606E0FFF77EFD8A
:10164000401B642801D903209EE7CC480838006875
:10165000C0F340400028F1D011E0FFF76FFD0546D0
:1016600006E0FFF76BFD401B642801D903208BE7E0
:10167000C24808380068C0F340400028F1D1207803
:1016800000F0020002285FD1BC48006800F00C00A6
:1016900058B1BA48006800F00C0008281CD1B748BF
:1016A000001F006800F48000B0B9B4480838006832
:1016B000C0F3400020B1E068012801D0012063E7B9
:1016C000AE480838006820F0F800216940EAC100FF
:1016D000AA490839086037E0E06800B30120A8494A
:1016E0000860FFF72BFD054606E0FFF727FD401BCE
:1016F000022801D9032047E7A04808380068C0F352
:1017000040000028F1D09D480838006820F0F8001B
:10171000216940EAC10099490839086014E00020B5
:1017200097490860FFF70AFD054606E0FFF706FD4A
:10173000401B022801D9032026E79048083800689A
:10174000C0F340000028F1D1207800F008000828FC
:101750002CD16069A8B101208A490860FFF7EEFC2E
:10176000054606E0FFF7EAFC401B022801D90320EA
:101770000AE782486C300068C0F340000028F1D0CE
:1017800014E000207F490860FFF7D8FC054606E01A
:10179000FFF7D4FC401B022801D90320F4E6774868
:1017A0006C300068C0F340000028F1D1207800F0D0
:1017B0000400042870D1002670483830006800F01A
:1017C000805090B900BF002000906C48383000680D
:1017D00040F080506949383108600846006800F0E0
:1017E0008050009000BF00BF01266748006800F4E9
:1017F0008070B0B96448006840F480706249086045
:10180000FFF79CFC054606E0FFF798FC401B02280A
:1018100001D90320B8E65C48006800F48070002815
:10182000F2D000BFA068012808D154486830006891
:1018300040F001005149683108601DE0A0680528AA
:101840000DD14E486830006840F004004B496831C3
:1018500008600846006840F0010008600CE0474856
:101860006830006820F0010044496831086008468B
:10187000006820F00400086000BFA068A8B1FFF76E
:101880005DFC054609E0FFF759FC401B41F2883139
:10189000884202D9032077E626E03848683000689D
:1018A000C0F340000028EED013E0FFF747FC0546E8
:1018B00008E0FFF743FC401B41F28831884201D920
:1018C000032061E62D4868300068C0F3400000281E
:1018D000EFD1012E07D129483830006820F0805020
:1018E00026493831086000BFA069B8B323480068B2
:1018F00000F00C0008285ED0A069022846D1002024
:101900001F490866FFF71AFC054606E0FFF716FCBC
:10191000401B022801D9032036E618480838006821
:10192000C0F340600028F1D1D4E907010843616A9F
:1019300040EA81110122A06AC2EB500041EA004155
:101940002C20005D41EA00600C49091F086001205D
:101950000B490866FFF7F2FB054607E02DE0FFF7AD
:10196000EDFB401B022801D903200DE6034808388F
:101970000068C0F340600028F1D01EE00838024043
:1019800000004742800E47420070004000200C4992
:101990000866FFF7D3FB054606E0FFF7CFFB401BC9
:1019A000022801D90320EFE506480068C0F3406033
:1019B0000028F2D101E00120E6E50020E4E5000086
:1019C000000047420038024070B504462546681EB4
:1019D000B0F1807F01D301200FE0681E4FF0E021BD
:1019E00048610F214FF0FF3001F038FA00204FF02E
:1019F000E021886107200861002070BD70477047B2
:101A0000704710B5044620680069C0F34000D8B1A3
:101A10002068C068C0F34000B0B16FF002002168D8
:101A20000861012020772068806900F0030018B168
:101A30002046FFF7E5FF05E0204600F0ADF8204620
:101A400000F0ABF80020207720680069C0F3800028
:101A5000D8B12068C068C0F38000B0B16FF0040056
:101A600021680861022020772068806900F44070B6
:101A700018B12046FFF7C4FF05E0204600F08CF8BF
:101A8000204600F08AF80020207720680069C0F323
:101A9000C000D8B12068C068C0F3C000B0B16FF01A
:101AA000080021680861042020772068C06900F0E0
:101AB000030018B12046FFF7A3FF05E0204600F021
:101AC0006BF8204600F069F8002020772068006954
:101AD000C0F30010D8B12068C068C0F30010B0B1E6
:101AE0006FF0100021680861082020772068C06925
:101AF00000F4407018B12046FFF782FF05E0204651
:101B000000F04AF8204600F048F8002020772068CE
:101B1000006900F0010058B12068C06800F00100C1
:101B200030B16FF0010021680861204600F036F8FE
:101B300020680069C0F3C01058B12068C068C0F3C5
:101B4000C01030B16FF08000216808612046FFF7B7
:101B500055FF20680069C0F3801058B12068C06844
:101B6000C0F3801030B16FF040002168086120465A
:101B700000F015F820680069C0F3401058B12068E3
:101B8000C068C0F3401030B16FF0200021680861D8
:101B90002046FFF734FF10BD70477047704770470D
:101BA000704700002DE9F04704462068056820686A
:101BB000C668206847694FF00008C14605F00F0865
:101BC000B8F1000F0AD105F0200038B106F020006E
:101BD00020B1204600F050FDBDE8F087B8F1000FBD
:101BE0006ED007F0010018B906F49070002867D095
:101BF00005F0010030B106F4807018B1E06B40F0E0
:101C00000100E06305F0040030B107F0010018B1F5
:101C1000E06B40F00200E06305F0020030B107F035
:101C2000010018B1E06B40F00400E06305F008002B
:101C300030B107F0010018B1E06B40F00800E0633C
:101C4000E06B70B305F0200028B106F0200010B161
:101C5000204600F011FD20684069C0F38019E06B58
:101C600000F0080010B9B9F1000F23D0204600F0B1
:101C7000E3FC2068406900F04000402816D120684D
:101C8000406920F0400021684861606B50B11748FE
:101C9000616B0865606BFFF723F810B1606B016D35
:101CA00088470CE02046FFF77BFF08E02046FFF75F
:101CB00077FF04E02046FFF773FF0020E0638BE727
:101CC00005F0800030B106F0800018B1204600F029
:101CD000DBFE81E705F0400030B106F0400018B1AE
:101CE000204600F0B9FC77E700BF75E7252600081D
:101CF00010B504460CB9012010BDA06900B100E088
:101D000000BF94F8390028B9002084F83800204634
:101D100000F028F8242084F839002068C06820F4F6
:101D200000502168C860204600F0FAFC2068006975
:101D300020F49040216808612068406920F02A0062
:101D4000216848612068C06840F400502168C8607C
:101D50000020E063202084F8390084F83A00002055
:101D6000CAE7000010B586B00446142101A8FEF7AA
:101D70008FFB9D492068884239D100BF0020009028
:101D80009A48006840F010009849086008460068CA
:101D900000F01000009000BF00BF00BF00200090C6
:101DA00092481438006840F00100904914390860E6
:101DB0000846006800F00100009000BF00BF4FF42B
:101DC000C060019002200290012003900320049043
:101DD0000720059001A98648FFF792F8002201210B
:101DE0002520FFF737FA2520FFF724FAF9E081498B
:101DF000206888423AD100BF002000907B48001F35
:101E0000006840F400307949091F086008460068FE
:101E100000F40030009000BF00BF00BF0020009021
:101E200072481438006840F00100704914390860A5
:101E30000846006800F00100009000BF00BF0C20C1
:101E400001900220029001200390032004900720BB
:101E5000059001A96648FFF753F8002201212620CA
:101E6000FFF7F8F92620FFF7E5F9BAE062492068A4
:101E700088423BD100BF002000905C48001F0068F2
:101E800040F480205949091F08600846006800F4A2
:101E90008020009000BF00BF00BF0020009053488A
:101EA0001438006840F002005049143908600846B0
:101EB000006800F00200009000BF00BF4FF44060D7
:101EC000019002200290012003900320049007203B
:101ED000059001A94948FFF713F8002201212720A6
:101EE000FFF7B8F92720FFF7A5F97AE04449206801
:101EF00088423AD100BF002000903C48001F006893
:101F000040F400203949091F08600846006800F4C1
:101F10000020009000BF00BF00BF002000903348A9
:101F20001438006840F00100304914390860084650
:101F3000006800F00100009000BF00BF0320019086
:101F400002200290012003900320049008200590B5
:101F500001A92748FEF7D4FF002201213420FFF712
:101F600079F93420FFF766F93BE02649206888427A
:101F700037D100BF002000901C48006840F02000CE
:101F80001A4908600846006800F02000009000BF71
:101F900000BF00BF0020009014481438006840F0D3
:101FA00004001249143908600846006800F0040073
:101FB000009000BF00BFC0200190022002900120CD
:101FC0000390032004900820059001A90E48FEF715
:101FD00097FF002201214720FFF73CF94720FFF738
:101FE00029F906B010BD000000100140443802403D
:101FF000000002400044004000480040000402404D
:10200000004C004000140140000802402DE9F84354
:1020100004460D4616461F464FF0000994F83A0054
:10202000202860D105B116B90120BDE8F88300BFB2
:1020300094F83800012801D10220F6E7012084F845
:10204000380000BF0020E063222084F83A00FFF748
:1020500075F88146A685E68539E0E08D401EE0856D
:10206000A068B0F5805F1BD14B460022202120469E
:10207000009700F03DFD08B10320D6E7A84620698F
:1020800038B920684068C0F30800A8F80000AD1C0B
:102090001DE020684068C0B2A8F800006D1C16E082
:1020A0004B46002220212046009700F021FD08B178
:1020B0000320BAE7206920B92068406805F8010BC1
:1020C00005E02068406800F07F0005F8010BE08D16
:1020D0000028C2D1202084F83A0000BF002084F8F4
:1020E000380000BFA1E702209FE770472DE9F843C1
:1020F00004460D4616461F464FF0000994F8390075
:1021000020285CD105B116B90120BDE8F88300BFD5
:1021100094F83800012801D10220F6E7012084F864
:10212000380000BF0020E063212084F83900FFF769
:1021300005F88146A684E6842BE0E08C401EE0840E
:10214000A068B0F5805F16D14B4600228021204662
:10215000009700F0CDFC08B10320D6E7A846B8F8F8
:102160000000C0F3080021684860206908B9AD1C70
:102170000FE06D1C0DE04B460022802120460097A9
:1021800000F0B6FC08B10320BFE715F8010B216889
:102190004860E08C0028D0D14B46002240212046E8
:1021A000009700F0A5FC08B10320AEE7202084F8DA
:1021B000390000BF002084F8380000BFA5E70220E6
:1021C000A3E7704700BFFEE700BFFEF72FFB0449FF
:1021D000086003E000F0A9F800F0C6F8FAE7000094
:1021E0000800002000BFFEE7704770472DE9F84364
:1021F00004460E46904600250020306043460122EA
:1022000069462F48FFF702FF0746002F53D19DF87C
:102210000000182812D006DC012809D0022809D0B5
:1022200004281DD109E0412817D0612818D115E0F4
:10223000802517E04FF4806514E013E04346012247
:1022400069461F48FFF7E2FE28B99DF800001828EC
:1022500001D1022500E0012704E000BF022701E0D0
:10226000012700BF00BF9DF800002070802D22D301
:10227000281D82B24346A11C1148FFF7C7FE07463E
:10228000C7B9A078E17881F0FF01884202D000252B
:10229000012710E0281D205C4FEA0029681D205C02
:1022A00081442946201DFEF713FA484503D0002536
:1022B000012700E0002535603846BDE8F8830000BE
:1022C000FC0900207047704710B5FEF749FF00F089
:1022D000F1F810BD10B5FFF7F7FF00F025F8FFF794
:1022E000F2FF10BD70B50D4804680D482040B0F1F4
:1022F000005F04D00B482040B0F1805F0CD1FEF7A6
:1023000003FDFEF78DFD0548456800BF84F308888E
:1023100000BFA847012070BD0020FCE700C00008F6
:102320000000FC2F0000FE1F70471FB50020019029
:10233000029003900090684600F04CFC04461FBDDC
:1023400001B5084890F87900A02803D1202105485C
:1023500080F8791064230122694602484030FFF773
:10236000C5FE08BDBC090020012080F3138800BF12
:1023700000BF00BF00BF00BF00BFBFF34F8F00BF53
:1023800000BF00BF0948006800F4E0600849084346
:10239000001D0649086000BF00BF00BFBFF34F8F9C
:1023A00000BF00BF00BF00BF00BFFDE70CED00E0B5
:1023B0000000FA0570B502460C46002100200023FB
:1023C0001578302D3ED15578782D02D05578582D7E
:1023D00038D102212BE0555C412D02DB555C462DA6
:1023E0000BDD555C612D02DB555C662D05DD555C12
:1023F000302D19DB555C392D16DC555C302D05DB95
:10240000555C392D02DC555C303D0AE0555C412DB0
:1024100005DB555C462D02DC555C373D01E0555C23
:10242000573D05EB031301E0002005E0491C0B2993
:1024300002D2555C002DCED100BF555C9DBB236000
:10244000012030E02AE0555C15B92360012024E02A
:10245000555C6B2D02D0555C4B2D04D119B19B02FC
:102460002360012019E0555C6D2D02D0555C4D2D87
:1024700004D119B11B05236001200EE0555C302DFD
:1024800009DB555C392D06DC555C303D03EB8306DA
:1024900005EB460301E0002004E0491C0B2901D2B2
:1024A0000128D0D100BF70BD10B5FEF74DFEFEF77C
:1024B00052F810BD10B592B0302106A8FDF7E8FF24
:1024C000142101A8FDF7E4FF00BF0020009024487C
:1024D000006840F08050224908600846006800F01B
:1024E0008050009000BF00BF00BF002000901D483A
:1024F000006840F440401B4908600846006800F44A
:102500004040009000BF00BF0120069000040790EB
:1025100002200C9041050D9104210E91A8210F91EC
:10252000022110910721119106A8FFF729F804460E
:102530000CB1FEF7E8F80F20019002200290002075
:1025400003904FF4A05004904FF480500590052163
:1025500001A8FEF7D7FE08B1FEF7D5F812B010BDFE
:1025600040380240007000401448006840F4700099
:10257000124908601248006840F0010010490860E4
:1025800000200F49083108600D4800680D490840D7
:102590000B4908600C48091D0860081F006820F4FA
:1025A0008020091F0860002005490C3108604FF0A9
:1025B00000600249803908607047000088ED00E043
:1025C00000380240FFFFF6FE1030002410B502482C
:1025D000FFF717FA10BD00007C08002010B5024874
:1025E000FFF70FFA10BD00007C08002010B502486C
:1025F000FFF707FA10BD0000BC08002010B5FEF779
:102600002BF810BD10B50248FFF7FBF910BD000014
:102610007C09002010B50248FFF7C4FA10BD000085
:102620007C0A002070B50546AC6B0020E085E08494
:102630002046FFF7B5FA70BD0168C96821F49071B2
:102640000268D1600168496921F0010102685161A5
:10265000202180F83A10704710B504462068C06801
:1026600020F040002168C860202084F8390020460E
:10267000FFF7A7FD002010BD70B5044694F83A009E
:1026800022284AD1A068B0F5805F13D1A56A2069DD
:1026900040B920684068C0F308002880A06A801C08
:1026A000A06219E020684068C0B22880A06A401C7F
:1026B000A06211E0206938B920684068C1B2A26AFE
:1026C000501CA062117007E02068406800F07F0194
:1026D000A26A501CA0621170E08D401E80B2E0859D
:1026E000C8B92068C06820F020002168C860206850
:1026F000C06820F480702168C8602068406920F0BC
:10270000010021684861202084F83A002046FFF744
:10271000ECFC002070BD0020FCE70220FAE700007E
:102720002DE9F04104462068006920F44050E1683A
:102730000843216808612169A0680843616908436A
:10274000E16940EA01052068C06849F20C618843EC
:1027500028432168C8602068406920F44070A1695E
:10276000084321684861E069B0F5004F7ED1C44953
:102770002068884203D0C349206888425DD1FEF7B3
:1027800097FE00EBC00101EB001061684900B0FB4F
:10279000F1F06421B0FBF1F00601FEF789FE00EBD9
:1027A000C00101EB001061684900B0FBF1F7FEF7D2
:1027B0007FFE00EBC00101EB001061684900B0FB37
:1027C000F1F06421B0FBF1F000EBC00101EB00106F
:1027D000A7EB8000322101EBC0006421B0FBF1F0D7
:1027E00000F0F80006EB4006FEF762FE00EBC001C9
:1027F00001EB001061684900B0FBF1F7FEF758FEED
:1028000000EBC00101EB001061684900B0FBF1F082
:102810006421B0FBF1F000EBC00101EB0010A7EB6D
:102820008000322101EBC0006421B0FBF1F000F028
:10283000070030442168886020E1FEF729FE00EBA4
:10284000C00101EB001061684900B0FBF1F06421A8
:10285000B0FBF1F00601FEF71BFE00EBC00101EB3F
:10286000001061684900B0FBF1F700E045E0FEF7B9
:102870000FFE00EBC00101EB001061684900B0FBE6
:10288000F1F06421B0FBF1F000EBC00101EB0010AE
:10289000A7EB8000322101EBC0006421B0FBF1F016
:1028A00000F0F80006EB4006FEF7F2FD00EBC00179
:1028B00001EB001061684900B0FBF1F7FEF7E8FD9D
:1028C00000EBC00101EB001061684900B0FBF1F0C2
:1028D0006421B0FBF1F000EBC00101EB0010A7EBAD
:1028E0008000322101EBC0006421B0FBF1F000F068
:1028F0000700304421688860C0E061492068884250
:1029000003D06049206888425CD1FEF7D1FD00EB1E
:10291000C00101EB001061688900B0FBF1F6FEF721
:10292000C7FD00EBC00101EB001061688900B0FB3E
:10293000F1F06421B0FBF1F000EBC00101EB0010FD
:10294000A6EB8000322101EB00106421B0FBF1F016
:1029500000F0F006FEF7ACFD00EBC00101EB00104B
:1029600061688900B0FBF1F06421B0FBF1F006EB87
:102970000016FEF79DFD00EBC00101EB0010616841
:102980008900B0FBF1F7FEF793FD00EBC00101EB0E
:10299000001061688900B0FBF1F06421B0FBF1F038
:1029A00000EBC00101EB0010A7EB8000322101EB2E
:1029B00000106421B0FBF1F000F00F0030442168FA
:1029C00088605BE0FEF764FD00EBC00101EB0010E6
:1029D00061688900B0FBF1F6FEF75AFD00EBC0011B
:1029E00001EB001061688900B0FBF1F06421B0FBDD
:1029F000F1F000EBC00101EB0010A6EB80003221EA
:102A000001EB00106421B0FBF1F000F0F006FEF7DE
:102A10003FFD00EBC00101EB001061688900B0FBD5
:102A2000F1F06421B0FBF1F006EB0016FEF730FD8B
:102A300000EBC00101EB001061688900B0FBF1F709
:102A4000FEF726FD00EBC00101EB00106168890074
:102A5000B0FBF1F06421B0FBF1F000EBC00101EB41
:102A60000010A7EB8000322101EB00106421B0FBC5
:102A7000F1F000F00F00304421688860BDE8F0817B
:102A80000010014000140140014691F8390021284E
:102A90002CD18868B0F5805F0FD10A6A1088C0F326
:102AA00008000B685860086918B9086A801C086239
:102AB00009E0086A401C086205E00B6A581C0862BD
:102AC00018780B685860C88C401E80B2C88458B90A
:102AD0000868C06820F080000B68D8600868C0688B
:102AE00040F040000B68D860002070470220FCE7EF
:102AF0002DE9F04104460D4617469846069E21E012
:102B0000701CF8B12EB1FEF719FBA0EB0800B04223
:102B100018D92068C06820F4D0702168C860206887
:102B2000406920F0010021684861202084F83900C4
:102B300084F83A0000BF002084F8380000BF03206A
:102B4000BDE8F081206800682840A84201D101203A
:102B500000E00020B842D3D00020F1E710B50248D1
:102B6000FFF720F810BD0000BC09002010B5024896
:102B7000FFF718F810BD0000FC09002010B502484E
:102B8000FFF710F810BD00003C0A002010B5024805
:102B9000FFF708F810BD0000BC0A002010B503467E
:102BA0000C46194644F4807200BF4900520002F4FA
:102BB000807000B1491C01F4803010B141F2210055
:102BC000414002F480300028EFD088B210BD00BF31
:102BD000FEE700002DE9F04F8DB0824600200B90FB
:102BE000834609900027069081460090914C16E19B
:102BF0004FF0000800200A900BE1009820B9012056
:102C000000904320FFF79CFB42F210720CA98A4807
:102C1000FFF7ECFA10B1022874D1DEE04FF0000BA0
:102C20000C9838B102280BD10620FFF789FB4FF032
:102C30000209D0E00620FFF783FB01200A90CAE0DA
:102C40007D48807808F0FF01884203D01520FFF707
:102C500077FBBFE0B8F1000F66D177480079002814
:102C600051D00026744D2D1D05E015F8012B30467E
:102C7000761C72490A54287808B1402EF5D30022F8
:102C80003046761C6D490A5400266D1C05E015F887
:102C9000012B3046761C02A90A542878202801D03E
:102CA000102EF4D300223046761C02A90A5407A93C
:102CB00002A8FFF77FFB62490798884211D91820C4
:102CC00001900B05012201A95E48FFF70FFA4FF4AE
:102CD0008013012201A95B48FFF708FA4FF00509AC
:102CE00074E0544A07981044411E1046FDF778FDE1
:102CF0000798CAF800000620FFF722FB4320FFF7E1
:102D00001FFB63E072E047B1069882084E493846DF
:102D1000FDF7A8FD08B14FF004090620FFF710FBEE
:102D200001200A900B9056E04348001D089041494D
:102D300007980844401EA04208D21820FFF700FB65
:102D40001820FFF7FDFA4FF004093FE00C982044EB
:102D5000384A07991144884212D911460798084405
:102D6000001B0C900C9800F0030008B9002004E050
:102D70000C9800F00300C0F104000C9908440C907A
:102D80002C4884420DD127460C9806902E480C9A68
:102D90000899FDF706FB0C9804440620FFF7D0FACB
:102DA00014E00C98820820460899FDF75BFD28B9CD
:102DB0000C9804440620FFF7C3FA07E01820FFF739
:102DC000BFFA1820FFF7BCFA4FF0040908F1010818
:102DD0000120099000BF00BF1AE01820FFF7B0FAE9
:102DE0001820FFF7ADFA4FF0020911E0099808B179
:102DF0000BF1010BBBF1050F06D91820FFF7A0FA64
:102E00001820FFF79DFA02E04320FFF799FA00BF70
:102E100000BF0A9818B9B9F1000F3FF4EEAE0B9855
:102E200018B9B9F1000F3FF4E3AE48460DB0BDE864
:102E3000F08F000000C00008740000203400002063
:102E400001401F00FC0900207A04002002480068AD
:102E5000C0F30220704700000CED00E010B5002820
:102E600004DB0A07130E054A135406E00A07140E82
:102E7000034A00F00F031B1FD45410BD00E400E010
:102E800018ED00E00024FFF725FAFEF735FA0F48A9
:102E90000068012803D100200C490860012414E0D7
:102EA00014B1012C10D104E0FFF71CFA00B9012481
:102EB0000AE04FF4165200210120FDF761FBFDF7F7
:102EC000C7FCFFF781F900BF00BFE9E754280040C5
:102ED0004FF04070E1EE100A704700000000000063
:102EE00000000102030406070809000000000102B7
:102EF00003040000142F000800000020340000002C
:102F0000E8010008482F000834000020741D00006C
:102F100004020008000000000000000000000000A3
:102F200000005000000050000000500000000000B1
:102F30000000000000000000000000001000000081
:082F4000010000000024F40070
:04000005080001AD41
:00000001FF
